:020000040800F2
:1000000008120020D5000008E91A0008D11A0008DB
:1000100000000000000000000000000000000000E0
:10002000000000000000000000000000412900085E
:1000300000000000000000002728000843290008F5
:10004000E7000008E7000008E7000008E7000008F4
:10005000E7000008E7000008E700000819030008AF
:1000600000000000E7000008E700000800000000B2
:10007000E7000008E7000008E700000800000000B3
:10008000012A0008E7000008000000008529000898
:100090000000000095290008E7000008E7000008BC
:1000A00000000000E7000008E7000008D52B00086A
:1000B000652C000800000000E700000800000000B8
:1000C0000348854600F08CF8004800474D020008C0
:1000D000081200200448804704480047FEE7FEE776
:1000E000FEE7FEE7FEE7FEE74D290008C100000835
:1000F00003460B439B0703D009E008C9121F08C041
:10010000042AFAD203E00B780370401C491C521EEB
:10011000F9D27047D2B201E00270401C491EFBD2F6
:1001200070470022F6E710B513460A460446194602
:10013000FFF7F0FF204610BD30B50446002003460F
:1001400000E05B1C934203D2E05CCD5C401BF8D026
:1001500030BD70B50446002903D0002020220123C1
:1001600010E0002801D00020C043C046C0460DE08A
:100170002546D5408D4205D30D469540641B1D464E
:10018000954040191546521E002DF1DC214670BDE8
:1001900070B5002504462E46002911D0002C01DA46
:1001A00001254442002901DA012649422046FFF791
:1001B000D0FFB54200D04042002D00D0494270BD72
:1001C000002C02DA0121C90702E0002C00DD0349FE
:1001D0000846C046C046214670BD0000FFFFFF7FB5
:1001E0001CB5094800900948019005460126009C6D
:1001F00005E0E36807CC33430C3C98471034AC422D
:10020000F7D3FFF761FF0000F05600081057000811
:1002100030B58C180278401C13071B0F01D10378EE
:10022000401C120906D10278401C03E005780D70CD
:10023000401C491C5B1EF9D101E00B70491C521E89
:10024000FBD1A142E6D3002030BD000080B50020E4
:1002500007490122D306C3580B50001DC028F8D10E
:1002600050070449086003F06BFF002080BDC046C2
:100270000000002008ED00E0B0B50146406A826B46
:1002800050231A4204D0006B026B08469047B0BD61
:1002900001214A02836B134383630268D3681B0501
:1002A0009B0F02D000F08EF9B0BD437E002BF9D138
:1002B00013681B07F6D593685B070AD403463833E7
:1002C00054680C25AC435460FF2402341A68A243DE
:1002D00006E0826B20231343836303463C33C26BE7
:1002E0000A431A6000F06EF9B0BD80B5406A816BB8
:1002F00040220A438263C16B04220A43C26300F0B6
:1003000063F980BD80B5406A00F05DF980BD80B5BD
:1003100000F076FB80BD0000F0B581B001246002E2
:1003200000F0CCFD13490020086013490870134900
:100330000A78002A1BD1124A1378124D2D78AB424D
:1003400015D0137815786D1C0F4E6E43360C0C27A4
:100350007E43AD1B15700C707B430C49CA580C4C86
:10036000C9184B6889680CC421600A49088001B02B
:10037000F0BDC046040E0020000E0020AE04002098
:10038000AD040020600B002056150000F40700208B
:10039000E0060020FE030020F0B581B004463420C2
:1003A000205C012802D1022001B0F0BD264634367F
:1003B0000120307022689368A16BDB0723D1812074
:1003C00040008143881CA063D768D068032188431C
:1003D000D06001200090C0079368034393600F40F2
:1003E00000F042FE05462068816800290ED500F025
:1003F0003BFE401B0328F6D3A06B102101430220D3
:100400008143009809E02022114306E0C168394386
:10041000C160A16B02208143002000223270A163E1
:1004200001B0F0BDF0B589B004460025234E20464A
:10043000FFF7B2FF00282FD17068400204A948518D
:100440002D1D142DF3D104A8051D00220BE00298E8
:1004500001990818910004AA039E565004602D1DAE
:10046000052B1A461BD0900004A9029001910C584C
:10047000531C032A03942846194604D9E7E7491C6C
:1004800005293246E3D080C8BC420E4600DC164641
:10049000BC42F4DB3C46F2E7012009B0F0BD06980F
:1004A0004012064AD060906810610120C0031168B4
:1004B00001431160002009B0F0BDC0464424014052
:1004C000F0B583B00246002402943420105C012869
:1004D00002D1022003B0F0BD164634360120307040
:1004E0001768BB685B0715D4019660C901200090AE
:1004F000A840304B08399E4213D1B96A8143B96292
:1005000028460B3801282046019E07D80B2D1AD00B
:100510002B4819E0916B20230B439363347003B095
:10052000F0BDBB6A0343BB62D06A421E072A2ED2CB
:1005300028460B3801282046019EEFD80B2D09D004
:100540000098800508E01D481B490A6802400A60BF
:100550002046E3E70098C00517490A6802430A608D
:100560000B2D2046DAD1CB480068CB49FFF7F1FDCF
:100570000A2141430291029800282046CED00298D9
:10058000401E029002980028F9D12046C6E7009A42
:1005900012079042CCD07A690720024089689142C4
:1005A000C6D07A6982437A610140786908437861EC
:1005B000BEE7C0460110000008270140FFFF7FFF93
:1005C000FFFFBFFF7047704770470000F0B581B074
:1005D0000124002854D006462436816B002906D118
:1005E00000213174C163054600F088F82846816B0C
:1005F000C90641D401688A6852073DD4812252005D
:10060000836B93439A1C82638A68D2070CD1CA68B1
:1006100018239A4383681343CB600F2212070B6998
:10062000934342681A430A61CA68324B1340CB6055
:10063000826A521E531E9A411203037E9C03437E1C
:100640005D032543C46807692C431443BA1E554211
:100650005541AD002543327852002A43847E012C57
:1006600014D1002B0FD0836B20241C438463C36BF5
:1006700001241C43C46309E0816B10220A43826396
:10068000204601B0F0BD01231B041A43C369FF24B7
:10069000C234A34202D0046A22431A43CB681343F4
:1006A000CB60C36A5C1E072C1FD24C690725AC4384
:1006B0004C612B404C691C434C61C9680E4B0B408C
:1006C000934207D10024C463816B01220A430221B3
:1006D0008A43D4E7816B10220A4302218A43826352
:1006E000C16B01242143C163CAE701242407A3424B
:1006F000DBD0E2E719C2FEFFE7FF3FC3F0B587B0EA
:1007000004460025069505950495039502951E4817
:10071000C16801273943C160C1683940019101991D
:10072000416839434160416839400191019901684C
:100730003943016000683840019001980495102009
:100740000290032603960520000702A900F0C2FBD1
:10075000284601F0ABF830030C4E2021FA027B0250
:100760000B4F37607560B560F56033617261B161E0
:10077000F061304600F09AF8304600F0C3F8266386
:10078000746207B0F0BDC0463410024088010020FA
:1007900008000240F0B585B003460468A568022051
:1007A0006D076BD434255D5D012D67D01D46343552
:1007B00001262E7000200490A768FF072ED1029614
:1007C000A7680397324F039E3E420BD0986B1026CA
:1007D00006439E63DE6B01200643DE630026002E87
:1007E0001ED14BE00391019207460093A0680121BE
:1007F0000143A160274800682749FFF7AAFC04903D
:10080000049800283CD03846029E0499491E049161
:1008100004990029F9D1009B019A0399002E2DD04B
:100820009E6B1E4F37400295012503952E02BE197F
:100830009E630026DE631C272760656810272F4310
:100840006760029D2E701D6B164F174EAE62EF62F1
:10085000134E2E63E668039F3E43E66040341F4616
:10086000064628460D46214613462A4600F088F8DB
:10087000304639688A68042313438B6005B0F0BDA5
:10088000009B3846019A0399029E002EC8D1F5E7D5
:1008900015000080C000002040420F00FEF0FFFF66
:1008A000EB0200080503000879020008F0B581B0EA
:1008B000002823D00446203401680A680125AA4391
:1008C0000A6000270F604F608F60CF602B4A8A1844
:1008D000142106461046FFF73CFC014638468900C5
:1008E0008D40254A5560B7632770F2633164B76263
:1008F000F76237637763677001B0F0BD012001B024
:10090000F0BDC046F0B585B000282ED00546203594
:1009100002216970C4C8046841680191816802912C
:10092000C1680391016904911168124B0B40334374
:100930003B43234301990B4302990B4303990B4318
:1009400004990B4313600024C4620B4901632C70AB
:100950000A49521814210C3806461046FFF7F9FBD5
:10096000800030640120687000E00124204605B05A
:10097000F0BDC0460FC0FFFF00000240F8FFFDBF02
:10098000F0B582B004462020255C0220012D28D03D
:10099000019226462036012232707778012F1ED12F
:1009A000022070700020A063266837689743376084
:1009B000E56B0095276C1546BD40009F7D60736018
:1009C0006368102B019F00D00F46B760102B00D03A
:1009D0000199F160E16A002905D00E2108E00021AB
:1009E000317002B0F0BD31680423994331600A21AF
:1009F00033680B43336031681143316002B0F0BD9E
:100A0000B0B5044600F030FB0546601C02D0044837
:100A10000068041900F028FB401BA042FAD3B0BDC7
:100A20003C010020F0B587B00690A44A1078012858
:100A300002D1022007B0F0BD019101200590107095
:100A40009F480068C00A1C2101409E4841589E48AA
:100A500006680D68EFB29D4C9E4BBE4229D12E0C0C
:100A600026404268B24224D102692D0AEDB2AA4260
:100A70001FD182684D68EEB2B2421AD12A0C944D51
:100A80002A40C568954214D142698D681D40AA422A
:100A90000FD18269CD681D40AA420AD1C2690D6991
:100AA000AEB2B24205D12A0CF54D2A40056A9542F4
:100AB00017D007604A88224042604A7802610A796A
:100AC0008260CA88ED4C2240C2608A681A40426146
:100AD000CA681A4082610A8AC261498AE84A11409A
:100AE00001620698006802282CD00125E90288429C
:100AF00014D0042800D0DBE07D20C40000F0B4FA5C
:100B00000494061906952D04734C27682F4000D1D4
:100B1000A5E000F0A9FAB042F7D3A2E07D20C4001E
:100B200000F0A2FA039405190120059007046A4C0D
:100B300026683E401AD000F097FAA842F8D3002E5B
:100B400019D0B5E07D20C40000F08EFA009405199C
:100B5000012005900704604C26683E4043D000F019
:100B600083FAA842F8D3002E41D0A1E0C748206004
:100B7000002E00D09CE000200290C0430199086044
:100B80000698C268006900038018824200D38FE093
:100B9000BA48401C616801436160FF200492106004
:100BA00000F062FA0399451826683E4005D000F02F
:100BB0005BFAA842F8D3032002E0B4482060029810
:100BC00005900120C10262688A436260002E66D1EE
:100BD0000003049A12180699C868096909030818DD
:100BE0008242D5D364E0A9482060002E60D1002065
:100BF0000290C04301990860069842688068C0016D
:100C00008018824254D2984802994160606802215B
:100C1000039108436060FF200492106000F024FA02
:100C20000099451826683E4005D000F01DFAA842FC
:100C3000F8D3032002E09548206002980590606890
:100C4000039988436060002E29D106994868896815
:100C5000C9010818049A80328242D4D328E08B4814
:100C60002060002F0698059022D100217E48059132
:100C7000416060680426304360600120C006174967
:100C8000016000F0F1F904994718206828420AD061
:100C900000F0EAF9B842F8D30320059005E0019886
:100CA0000499016004E0794820606068B0436060A6
:100CB00000206D490870059807B0F0BDC4060020FB
:100CC00004100240E452000800210240FF0100002D
:100CD000FF070000FFFF01001020024021433412F3
:100CE0000120C00768490A6802430A600868C043D7
:100CF000C00F7047F0B585B003925B4A10780128A9
:100D000002D1022005B0F0BD01201070574B1B68C6
:100D1000DB0A1C241C40564B1D59564B1C682E6880
:100D2000F2B294422BD1340C534F3C405F68A7423F
:100D300025D11C69360AF6B2B44220D19C686E688F
:100D4000F7B2BC421BD1340C4C4E3440DE68A64294
:100D500015D15F69AE684B4C2640B7420FD19F69F1
:100D6000EE682640B7420AD1DC692E69B7B2BC42B0
:100D700005D1340C424E34401E6AA64219D01A6086
:100D80006A883D4C22405A606A781A612A799A60D2
:100D9000EA883A4C2240DA60AA683A4C22405A610A
:100DA000EA6822409A612A8ADA616A8A344C2240CF
:100DB0001A624A0601D005B0F0BD02917D20C40040
:100DC00000F052F9019406190120049007042E48FE
:100DD000041F25683D4005D000F046F9B042F6D327
:100DE000032002E0294820600020002D0399029A88
:100DF00035D1254D2868049B18432860EFF31080F7
:100E0000009072B6002303E0121D1F2B2B460CD25C
:100E100020C915605D1C1F2DF6D10498C6041A4820
:100E200000683043184E3060EEE7009880F3108879
:100E300000F01AF90199461825683D4005D000F0E8
:100E400013F9B042F8D3032002E0104820600020DC
:100E50000D4B1968049A91431960002DABD1002104
:100E6000014A117005B0F0BDC40600200410024014
:100E7000E452000800210240FF010000FF070000CB
:100E8000FF3F0000FFFF010014200240118000001E
:100E90000648C168002901D4002070470449016058
:100EA00004490160C068C00F7047C0460820024076
:100EB00023016745AB89EFCD7047000080B5044939
:100EC0000A68024202D00860FFF7F6FF80BDC04604
:100ED0000C180240F0B58BB008900B68002B00D1C5
:100EE000A9E00E4655480899814201D0022000E051
:100EF0000120052109070024089A8A42009400D0A5
:100F000000900898203001900A94274622460496C3
:100F10000DE019436960521C33681846D04008340C
:100F20000A99891C0A913F1D002800D183E0012500
:100F3000284690400340EED0039009920794069310
:100F40007068314610260643122E0DD11C20384001
:100F50000F268640099AD408A400019B1A59B2436F
:100F60000E69864016431E510597084603210A461E
:100F70000A9FBA40089B1C68944340680646029149
:100F80000E40BE4026431E60D643122815D8854029
:100F90002D4A154211D0089DAA683240049BDC6896
:100FA0000A9B9C401443AC60C206D20F099B9A4036
:100FB0006C6803998C4314436C60089BD96831407A
:100FC000049EB2680A9CA2400A43DA60C000069BF5
:100FD000079C059F099A9ED5182020400F2181402B
:100FE000029CA243164DAA18146E8C4300998140AE
:100FF00021431166134801687068C20301D5194383
:1010000000E099430F4A116051688203079C01D5A3
:10101000194300E099430B4A51602968C20201D587
:10102000194300E09943099A29606968800200D554
:101030006FE799436EE70BB0F0BDC0460004005067
:1010400000180240801802400600060000690840AF
:10105000411E88417047002A02D0182281507047F3
:101060002822815070470000254800687047C0461C
:10107000014800687047C046000EFF1F0148006825
:101080007047C046040EFF1F014800687047C04605
:10109000080EFF1FB0B5002817D0044600680E499F
:1010A00001600E49016061684160A1688160FFF7DD
:1010B000DBFF05462068C168002908D0FFF7D4FF90
:1010C000401B3028F6D90320B0BD0120B0BD074930
:1010D00001600020B0BDC046CCCC000055550000DA
:1010E00000680249016000207047C046AAAA0000BB
:1010F0001A48006802490A68101808607047C0461C
:10110000FC0D002080B5032000F008F8002801D075
:10111000012080BD00F024F8002080BDB0B5054658
:101120000E4801680124002916D07D20C000FFF779
:1011300010F80146A0480068FFF70BF800F0BEFB6E
:10114000032D09D8002807D10024E0432946224670
:1011500000F012F8904805602046B0BD3C01002028
:10116000704700001F2101400120884001490860AC
:101170007047C04600E100E0002805D40322034682
:101180009343094A9A1803E00C220240074BD218F5
:101190008007C00E8901C9B28140FF2383401068D7
:1011A000984308431060704700E400E014ED00E04D
:1011B000F0B583B000284AD00D460290734800680D
:1011C000012101910840854214D970490868012421
:1011D000A043284308606E4FFFF746FF06466B4862
:1011E00000682040A84205D0FFF73EFF801BB842B0
:1011F000F5D95CE0029B18688107904F0DD5410737
:1012000004D5072109033A680A433A600F2109020D
:101210003A688A43996811433960C0071AD15B481C
:10122000006801263040854244D258490868B043DE
:101230000860574CFFF718FF054654480068C00780
:1012400038D0FFF711FF401BA042F6D92FE0012054
:1012500003B0F0BD5968042901987CD88A0001A325
:101260009A5897467912000843130008351300086E
:10127000571300084F1300083A46083A12685205FF
:101280005DD538680722904308433860404CFFF72B
:10129000EBFE064638683821014002984068C000DD
:1012A0008142BCD0FFF7E0FE801BA042F2D90320B0
:1012B00003B0F0BD029A1078400706D5072000035E
:1012C00039688143D0680843386038688006400F29
:1012D00006D0386838210840082822D158480FE045
:1012E000384608380168381F00680004400F042899
:1012F00000D900208000544A10588904490FC84082
:10130000396889093C220A40224989581F220A402B
:10131000D0402949086020480068FFF7FFFE03B06D
:10132000F0BD38680840102819D17868C00721D06E
:101330004448E5E73A46083A12689201A1D403B05E
:10134000F0BD3A46083A12689203F8D599E77A6DEB
:101350009207F4D595E7BA6D9207F0D591E73A6810
:101360000A40F003202ACBD03A680A40182AC7D096
:101370000020C5E7381F00680004400F042800D98A
:1013800000208000304908584000B9E700200240A2
:1013900088130000645200084001002006480068DD
:1013A00026490968890A1C220A40044989581F22D3
:1013B0000A40D0407047C046C0000020A452000838
:1013C0001E4908688006400F06D008683822104081
:1013D000082811D11A487047081F083909680068A1
:1013E0000004400F042800D900208000164A10583D
:1013F0008904490FC840704708681040102804D17C
:101400004868C0070DD00F4870470B681340012093
:10141000C003202B04D009681140182900D00020F7
:101420007047081F00680004400F042800D90020FE
:1014300080000549085840007047C0460810024027
:1014400000366E01006CDC0250520008F0B585B029
:101450000127002800D1C2E1029703900078C0075D
:10146000FC4C1CD1039C207880073ED420780007D8
:1014700069D42078400700D49DE1F64A906838216D
:101480000140202900D0ABE0D06D800700D48FE16F
:10149000E068002800D08BE10020012789E1A068E6
:1014A000382202401146103948424841E168082A72
:1014B00056D0084054D103984768002F08D00398AD
:1014C0008068002855D021690C2291430143216195
:1014D0002068052109048F4200D1F0E001210A04AF
:1014E000974200D0F3E01043F8E0E74CA0683826BC
:1014F000064010207040E1680127394041184842F9
:101500004841002E37D0002835D12068BE02039A0A
:101510005169002900D1BFE00721C90288439169C0
:10152000014321603802216801432160FFF79CFDDF
:1015300005462068304200D0EEE0FFF795FD401BE5
:101540000228F6D9DBE0D04A9068382101401829FA
:101550002FD1106E80078CD5206A002889D108E031
:101560002068800300D47DE703984068002800D0FD
:1015700078E7029F33E12068400504D5039840696D
:10158000002800D12BE12246BC025068BF4901402F
:101590000398C06908435060FFF766FD0546BA48E6
:1015A0000068204257D1FFF75FFD401B0228F6D9A3
:1015B000A5E0106E216A002900D1B6E001210843A0
:1015C0001066FFF751FD0546AF48006E800700D555
:1015D0004FE7FFF749FD401B03270228F4D9FEE03F
:1015E00001263107D06B0840019006D1D06B08432B
:1015F000D063D06B0840049004980091A74F3868DE
:10160000C0050FD43402386820433860FFF72CFD42
:1016100005463868204205D1FFF726FD401B022809
:10162000F7D9AFE00398C768002F974B0AD000693D
:101630008103890F00D17004032109041A698A43C8
:1016400002431A61D86D052F00D180E0012F00D030
:1016500083E0304386E0002E15D10720C0028A4C7B
:10166000216881430398806908432060FFF7A8FE42
:10167000A16889093C220A40854989581F220A40ED
:10168000D0408449086084480068FFF747FD00287F
:10169000039C00D0A3E0E9E63902884320601446A9
:1016A000FFF7E2FC054678480068304200D1DDE6ED
:1016B000FFF7DAFC401B03270228F4D98FE0012151
:1016C0008A041043206009042068084306E06F4A3A
:1016D000521E104020608904206888432060012049
:1016E0004604FFF7C1FC0546002F10D020683042A9
:1016F00000D0B7E6FFF7B8FC401BC828F6D903278F
:101700006DE0FFF7B1FC401B0327C82867D85E488F
:1017100000683042F5D1A5E660685C490140039A53
:10172000D069084360601446A0E601218843106632
:10173000FFF79AFC05465448006E800700D498E6EF
:10174000FFF792FC401B03270228F4D947E004214D
:101750000843D865D86D304304E0B043D865D86DF0
:1017600004218843D865FFF77FFC05464C4C002FC9
:1017700011D04548C06D800711D4FFF775FC401BA0
:10178000A042F6D900200327039C12E0FFF76CFC6F
:10179000401BA042F6D83C48C06D8007F6D40198A3
:1017A0000028039C04D13849C86B009A9043C86351
:1017B0000120002813D0606A00280FD0324B9968AE
:1017C00038220A40102A0DD10128029F07D02E4846
:1017D000C06801273840A16A884200D10027F8B2CA
:1017E00005B0F0BD01252A061968914319606E06FF
:1017F00002280FD103950292FFF736FC0546224BD3
:101800001868304217D0FFF72FFC401B032702282F
:10181000F5D9E4E7D868A843D860FFF725FC04466B
:10182000194800683042D9D0FFF71EFC001B03277F
:101830000228F5D9D3E7A06A00280DD15968C90A52
:101840001C220A4017498958174A914204D2039F23
:10185000C5E7C04600100240D968039A914301438E
:10186000D9601868029908431860FFF7FDFB044629
:10187000054800683042B1D1FFF7F6FB001B032793
:101880000228F5D9ABE7C046001002400000FFFF78
:1018900064520008C0000020400100200070004099
:1018A00088130000C45200080024F40002490A68AA
:1018B00002430A607047C0461C000140401E010EF2
:1018C00001D0012070470749074A50600748036864
:1018D0000B400321890759180160002090600721FF
:1018E00011607047FFFFFF0010E000E020ED00E016
:1018F000B0B5002819D005463C356978002905D1D6
:1019000000212970044600F051F820460221697038
:1019100001680C681F4A914202D01F4B994206D1C0
:1019200070239C438368234302E00120B0BD23461B
:101930001A4CA14208DD91420CD0194CA14209D0A9
:10194000184CA14206D022E0134CA14202D0164C02
:10195000A1421CD103242402A34304691C43802315
:101960009C43836923430B60C368CB6243688B62EB
:10197000914205D00A4A914202D00A4A914201D1CD
:10198000406908630120486168700020B0BD1C46B2
:10199000E5E7C046002C014000040040FF2B014059
:1019A00000480140004401400020004070470068AA
:1019B000C26801210A43C260826807231340062BD4
:1019C00002D002680A4302600020704780B50168B7
:1019D0000A69D20707D0CA68D20704D00122D243CD
:1019E0000A6100F001F880BD00201249124A03E0AC
:1019F0001431401C202812D01368C340DB07F7D0F5
:101A00004B68002BF4D04B685B1E4B60F0D1012378
:101A10004B700B78012BEBD18B684B60E8E70748E4
:101A20000168491C01600168054A914201D1002109
:101A300001607047DC0800205C0B0020A40400203B
:101A4000FFFFFF7FF0B581B000283DD0044605467A
:101A500044356878002804D100202870204600F022
:101A600036F82420687001277E032068C168B143DE
:101A7000C160204601F048F82021605C400611D585
:101A80003A032068436993430096666A334343618F
:101A90009642009E06D10322520343699343A26AF1
:101AA0001A434261F8022268136983431361506943
:101AB000082398435061D0683043D0600020A06470
:101AC0006970A97001B0F0BD012001B0F0BD704790
:101AD000FEE7000080B503480121FFF7B7FA414255
:101AE000484180BD00140050704770B5064605207F
:101AF00004070225002220462946FFF7ACFAE7201A
:101B000000F0DCFE304600F0D9FE012220462946D6
:101B1000FFF7A1FA70BDF0B581B005200090040771
:101B200002250026204629463246FFF794FA8320F4
:101B300000F0C4FE304600F0C1FE012720462946D1
:101B40003A46FFF788FA204629463246FFF783FADD
:101B5000852000F0B3FE304600F0B0FE2046294656
:101B60003A46FFF778FA204629463246FFF773FADD
:101B7000009800F0A3FE742000F0A0FE2046294645
:101B80003A46FFF768FA204629463246FFF763FADD
:101B9000552000F093FE384600F090FE204629467E
:101BA0003A46FFF758FA01B0F0BD70B505200407BA
:101BB00002250026204629463246FFF74CFAE62049
:101BC00000F07CFE304600F079FE064601222046F9
:101BD0002946FFF740FA304670BDF0B58BB000F0F3
:101BE00023FE0A20FEF70CFF0520099004070226B9
:101BF0000025204631462A46FFF72DFA01273846B0
:101C000000F05CFE284600F059FE204631463A4678
:101C1000FFF721FA204631462A46FFF71CFA092031
:101C20000A9000F04BFE0320079000F047FE20468C
:101C300031463A46FFF70FFA204631462A46FFF76B
:101C40000AFA099800F03AFE0420089000F036FEE7
:101C5000204631463A46FFF7FEF93846FEF7D0FEF9
:101C6000204631462A46FFF7F6F9099800F026FE8D
:101C7000742000F023FE204631463A46FFF7EBF988
:101C80003846FEF7BDFE204631462A46FFF7E3F907
:101C90000720099000F012FE384600F00FFE2046A3
:101CA00031463A46FFF7D7F93846FEF7A9FE2046F7
:101CB00031462A46FFF7CFF9099800F0FFFD079853
:101CC00000F0FCFD204631463A46FFF7C4F92046B5
:101CD00031462A46FFF7BFF9384600F0EFFD384697
:101CE00000F0ECFD204631463A46FFF7B4F92046B5
:101CF00031462A46FFF7AFF90B20079000F0DEFDD2
:101D0000284600F0DBFD204631463A46FFF7A3F9AE
:101D1000204631462A46FFF79EF90A9800F0CEFD8C
:101D2000089800F0CBFD204631463A46FFF793F97C
:101D3000204631462A46FFF78EF90820099000F028
:101D4000BDFD284600F0BAFD0890204631463A46CF
:101D5000FFF781F9204631462A46FFF77CF90A98B9
:101D600000F0ACFD099800F0A9FD204631463A4646
:101D7000FFF771F9204631462A46FFF76CF90998BA
:101D800000F09CFD284600F099FD0A90204631465F
:101D90003A46FFF760F9204631462A46FFF75BF9DD
:101DA000079800F08BFD384600F088FD204631464C
:101DB0003A46FFF750F90F2008990840012800D053
:101DC000D3E30F4602250026204629463246FFF778
:101DD00042F98F2000F072FD7908702008408330AE
:101DE00000F06CFD0127204629463A46FFF733F9FB
:101DF000204629463246FFF72EF98720059000F04D
:101E00005DFD0898C006C00F11210391484000F005
:101E100055FD204629463A46FFF71DF9204629463A
:101E20003246FFF718F91520099000F047FD4820C9
:101E3000019000F043FD204629463A46FFF70BF992
:101E4000204629463246FFF706F9652000F036FDA8
:101E50001020089000F032FD204629463A46FFF750
:101E6000FAF8204629463246FFF7F5F8672000F0D9
:101E700025FD1C2000F022FD204629463A46FFF7AA
:101E8000EAF8204629463246FFF7E5F86F2004902D
:101E900000F014FD099800F011FD204629463A464D
:101EA000FFF7D9F8204629463246FFF7D4F87520C7
:101EB00000F004FD542000F001FD204629463A467A
:101EC000FFF7C9F8204629463246FFF7C4F87D20BF
:101ED00000F0F4FCF12000F0F1FC204629463A46DF
:101EE0000697FFF7B8F8204629463246FFF7B3F8C1
:101EF000832000F0E3FCA22000F0E0FC204629460D
:101F00003A46FFF7A8F82046294632463746FFF7FB
:101F1000A2F88D2000F0D2FCB020029000F0CEFCA0
:101F200020462946069E3246FFF795F82046294668
:101F30003A46FFF790F8932000F0C0FC442000F0F0
:101F4000BDFC204629463246FFF785F82046294643
:101F50003A46FFF780F8992000F0B0FC019800F0B5
:101F6000ADFC204629463246FFF775F82046294643
:101F70003A46FFF770F8304600F0A0FC384600F013
:101F80009DFC204629463246FFF765F82046294643
:101F90003A46FFF760F80B2000F090FC0A98000921
:101FA000C03000F08BFC204629463246FFF753F83C
:101FB000204629463A46FFF74EF80F2000F07EFCF7
:101FC0008B2000F07BFC204629463246FFF743F881
:101FD000204629463A460797FFF73DF8039800F058
:101FE0006DFCBB200A9000F069FC20462946324671
:101FF000FFF731F8204629463A46FFF72CF8132020
:1020000000F05CFC4026304600F058FC2046294693
:10201000069F3A46FFF71FF820462946079AFFF722
:102020001AF8099800F04AFC304600F047FC2046B8
:1020300029463A46FFF70FF820462946079E3246C2
:10204000FFF709F8532000F039FC304600F036FC69
:10205000204629463A46FEF7FEFF204629463246EC
:10206000FEF7F9FF572000F029FC582000F026FC6D
:10207000204629463A46FEF7EEFF204629463246DC
:10208000FEF7E9FF592000F019FC1B2000F016FCB8
:10209000204629463A46FEF7DEFF204629463246CC
:1020A000FEF7D9FF6D2000F009FC029800F006FC55
:1020B000204629463A46FEF7CEFF204629463246BC
:1020C000FEF7C9FF049800F0F9FB6B2000F0F6FB67
:1020D000204629463A46FEF7BEFF204629463246AC
:1020E000FEF7B9FF712000F0E9FB4B2000F0E6FBA2
:1020F000204629463A46FEF7AEFF2046294632469C
:10210000FEF7A9FF732000F0D9FB552000F0D6FBA5
:10211000204629463A46FEF79EFF2046294632468B
:10212000FEF799FF059800F0C9FB3B2000F0C6FBC5
:10213000204629463A46FEF78EFF2046294632467B
:10214000FEF789FF892000F0B9FB8C2000F0B6FB78
:10215000204629463A46FEF77EFF2046294632466B
:10216000FEF779FFAB2000F0A9FBDD20099000F01D
:10217000A5FB204629463A46FEF76DFF2046294634
:102180003246FEF768FFAD2000F098FBC92000F052
:1021900095FB204629463A46FEF75DFF2046294634
:1021A0003246FEF758FFAF2000F088FBB7200590BD
:1021B00000F084FB204629463A46FEF74CFF2046B5
:1021C00029463246FEF747FFB52000F077FB089816
:1021D00000F074FB204629463A46FEF73CFF2046B5
:1021E00029463246FEF737FF059800F067FBFD20D1
:1021F00000F064FB204629463A46FEF72CFF2046B5
:1022000029463246FEF727FFB92000F057FBE920A8
:1022100000F054FB204629463A46FEF71CFF2046B4
:1022200029463246FEF717FF0A9800F047FBDC20EC
:1022300000F044FB204629463A46FEF70CFF2046B4
:1022400029463246FEF707FFBD2000F037FB28463F
:1022500000F034FB204629463A46FEF7FCFE2046B5
:1022600029463246FEF7F7FEBF2000F027FB062086
:1022700000F024FB204629463A46FEF7ECFE2046B5
:1022800029463246FEF7E7FEC12000F017FB0E207C
:1022900000F014FB204629463A46FEF7DCFE2046B5
:1022A00029463246FEF7D7FEC32000F007FB2E205A
:1022B00000F004FB204629463A46FEF7CCFE2046B5
:1022C00029463246FEF7C7FECD2000F0F7FA34204B
:1022D00000F0F4FA204629463A46FEF7BCFE2046B6
:1022E00029463246FEF7B7FED12000F0E7FA0D206E
:1022F00000F0E4FA204629463A46FEF7ACFE2046B6
:1023000029463246FEF7A7FE099800F0D7FA2020AA
:1023100000F0D4FA204629463A46FEF79CFE2046B5
:1023200029463246FEF797FE384600F0C7FA38468F
:1023300000F0C4FA204629463A46FEF78CFE2046B5
:1023400029463246FEF787FE372000F0B7FA08200C
:1023500000F0B4FA204629463A46FEF77CFE0225F4
:102360000026204629463246FEF775FEE02000F0A2
:10237000A5FA304600F0A2FA064601222046294678
:10238000FEF769FE7006EAD5022500220A92204671
:102390002946FEF760FE3726304600F08FFA1020FF
:1023A00000F08CFA0127204629463A46FEF753FEF4
:1023B0003046FEF725FB204629460A9AFEF74BFEDB
:1023C000052000F07BFA762000F078FA20462946B6
:1023D0003A46FEF740FE3846FEF712FB20462946F5
:1023E0000A9AFEF738FE304600F068FA202000F026
:1023F00065FA204629463A46FEF72DFE02250026BC
:10240000204629463246FEF726FEFE2000F056FA08
:10241000304600F053FA0646012220462946FEF7D0
:102420001AFE70B20028E9D502250022204629466E
:10243000FEF711FE372000F041FA402000F03EFA8E
:10244000012220462946FEF706FE022500262046E8
:1024500029463246FEF7FFFDDA2000F02FFA30461B
:1024600000F02CFA0646012220462946FEF7F3FD2D
:1024700070B20028E9D50225002220462946FEF741
:10248000EAFD372000F01AFA802000F017FA012246
:1024900020462946FEF7DFFD02260025204631466C
:1024A0002A46FEF7D8FDFE2000F008FA284600F084
:1024B00005FA07460125204631462A46FEF7CBFDA0
:1024C00078B20028E8D502260027204631463A4651
:1024D000FEF7C1FD372000F0F1F9384600F0EEF9C3
:1024E000204631462A46FEF7B6FD204631463A469A
:1024F000FEF7B1FD052000F0E1F9742000F0DEF9EF
:10250000204631462A46FEF7A6FD204631463A4689
:10251000FEF7A1FD284600F0D1F9384600F0CEF9CB
:10252000204631462A46FEF796FD204631463A4679
:10253000FEF791FDE72000F0C1F9FF2000F0BEF9A1
:10254000204631462A46FEF786FD204631463A4669
:10255000FEF781FD732000F0B1F94E2000F0AEF9D6
:10256000204631462A46FEF776FD28460BB0F0BDE0
:10257000F0B581B00D46064605200407022700226B
:1025800020463946FEF767FD384600F097F9002DE2
:1025900006D0002000F092F93070761C6D1EF8D144
:1025A000022101222046FEF756FD01B0F0BDF0B534
:1025B00081B00526340700960225002720462946CB
:1025C0003A46FEF748FD304600F078F9742000F0F6
:1025D00075F90126204629463246FEF73CFD204685
:1025E00029463A46FEF737FDE72000F067F9FF205D
:1025F00000F064F9204629463246FEF72CFD2046BD
:1026000029463A46FEF727FD009800F057F9762054
:1026100000F054F9204629463246FEF71CFD01B071
:10262000F0BD70B5064605200407022500222046AD
:102630002946FEF710FD732000F040F9304600F007
:102640003DF9012220462946FEF705FDFFF7AFFFC1
:1026500070BD70B50D460646052004070221002214
:102660002046FEF7F8FC1F2000F028F9002D05D0C9
:10267000307800F023F9761C6D1EF9D10221012279
:102680002046FEF7E8FC70BD70B50D4606460520F5
:102690000407022100222046FEF7DDFC292000F07D
:1026A0000DF9002D05D0307800F008F9761C6D1E6C
:1026B000F9D1022101222046FEF7CDFC70BDF0B514
:1026C00081B00520009004070225002720462946F6
:1026D0003A46FEF7C0FC832000F0F0F8452000F0F9
:1026E000EDF80126204629463246FEF7B4FC204686
:1026F00029463A46FEF7AFFC852000F0DFF82C2093
:1027000000F0DCF8204629463246FEF7A4FC2046BD
:1027100029463A46FEF79FFC552000F0CFF881206D
:1027200000F0CCF8204629463246FEF794FC2046BD
:1027300029463A46FEF78FFC009800F0BFF8752056
:1027400000F0BCF8204629463246FEF784FC01B072
:10275000F0BDF0B581B005263407009602250027AC
:10276000204629463A46FEF776FC304600F0A6F8A9
:10277000742000F0A3F80126204629463246FEF7D1
:102780006AFC204629463A46FEF765FCE72000F041
:1027900095F8FF2000F092F8204629463246FEF7D1
:1027A0005AFC204629463A46FEF755FC009800F0B0
:1027B00085F8752000F082F8204629463246FEF75B
:1027C0004AFC01B0F0BDF0B583B00D4606460527C2
:1027D0003C0702210191002202922046FEF73BFCB9
:1027E000384600F06BF8742000F068F801222046AB
:1027F000019F3946FEF72FFC20463946029AFEF724
:102800002AFC032000F05AF8002D05D0307800F0A3
:1028100055F8761C6D1EF9D1022101222046FEF7E3
:102820001AFC03B0F0BD7047F0B589B000200890E5
:102830000790069005900490FFE71F480168012269
:10284000114301600068104003900398FFE7FFE721
:10285000FFE7194801682022114301600068104019
:1028600002900298FFE7FFE70326049601240594EF
:1028700006940225079505200007019004AF39460C
:10288000FEF728FB082004900594069407952B4832
:102890003946FEF71FFB0496002005900690079529
:1028A00026483946FEF716FB019829462246FEF7D0
:1028B000D2FB09B0F0BDC04634100240F0B583B081
:1028C00005460520000701900026019C029501277E
:1028D000002220463946FEF7BEFB00BF00BF00BF06
:1028E00000BF00BFE8B2C2090821144D2846FEF718
:1028F000B2FB204639463A46FEF7ADFB00BF00BFAB
:1029000000BF00BF00BF02212846FEF79FFB411E0B
:102910008841029949000D18701C072E0646D5D330
:10292000012100220198FEF796FBE8B200BF00BF2C
:1029300000BF00BF00BF03B0F0BDC0460014005090
:10294000704780B5FEF7D4FB80BD000008480168E1
:10295000084A0A4008490968084B19405118C91823
:10296000491C01600120C006054908607047C04647
:10297000041002400000FFFF040FFF1FFF1F0000B4
:1029800008ED00E080B50248FFF720F880BDC046A2
:102990009C080020144801680120C2430A611349C1
:1029A0000A78002A08D1124A1368272B03D8106826
:1029B000401C106000E008700E480178012912D117
:1029C0000D490A88521C0A80098805290BD30B4936
:1029D0000A7A002A01D1282200E018220B684968EF
:1029E000995000210170704700020020000E002065
:1029F000040E0020AE040020FE030020E0060020AC
:102A0000F0B583B0394800680169C90734D00121A5
:102A1000C94301617D208100354C2088401C029112
:102A2000FDF797FB2180FF25F43532480021324A1B
:102A3000324B07E02824C66807693751091D183052
:102A400020290FD0847A012CF8D154580688A41973
:102A5000AC4201DC264600E0E6185650AC42E9DD07
:102A60001824E8E7264C2088401CC821FDF771FB9C
:102A700021802088002801D003B0F0BD00261D4A27
:102A800002E01836C02EF7D09419A07A0128F8D1A8
:102A900020790128F5D1E088401CE080E188A81C5D
:102AA00048432189FDF755FB80B20299884200D343
:102AB00008464000134A125AA78A60880190C01B3A
:102AC00000B25043FDF764FB0299381880B2884287
:102AD00000D30846074A9053E08821898842D0D322
:102AE0000198905300202071CBE7C046400200209F
:102AF000FC01002030070020DC0100200CFEFFFF5D
:102B0000D801002004530008F0B581B0044601212B
:102B10004A03006803699343E2681A430261226929
:102B2000C368294D1D40A368134362691A432A43B1
:102B3000C260CD024169A943E66931434161032185
:102B4000090242698A43A16911434161FEF726FCEB
:102B50000146192048436168AE4218D14900FDF78B
:102B6000F8FA064664273946FDF7F3FA0546184891
:102B700068438019C00032303946FDF7EAFA072170
:102B80000140F822024050002A01801816E0890016
:102B9000FDF7DFFA064664273946FDF7DAFA0546FF
:102BA0000A4868438019000132303946FDF7D1FAEE
:102BB0000F210140F022024028011018401821681E
:102BC000886001B0F0BDC046F3E9FFFF9CFFFF0F36
:102BD0009CFFFF1FF0B583B01E480468A0060ED509
:102BE0001D480068406802A90870FF221B48815CEC
:102BF0004B1CDDB29D4202D18354029A4254E0063E
:102C000003D4200718D403B0F0BD00250195124865
:102C100000680168019140680190FF260F4FB85D80
:102C200001990F490968002903D0002801D00B48F9
:102C30008847BD552007E6D5FF20084900220A54E1
:102C40000092054800680168009140680090009873
:102C500003B0F0BD00380140640D0020610B00207E
:102C600088080020F0B583B01E480468A0060ED581
:102C70001D480068406802A90870FF221B48815C5B
:102C80004B1CDDB29D4202D18354029A4254E006AD
:102C900003D4200718D403B0F0BD002501951248D5
:102CA00000680168019140680190FF260F4FB85DF0
:102CB00001990F490968002903D0002801D00B4869
:102CC0008847BD552007E6D5FF20084900220A5451
:102CD00000920548006801680091406800900098E3
:102CE00003B0F0BD00440040B00D0020610C002096
:102CF0008C080020F0B581B0012420051D490A6828
:102D000002430A600A6882430A600A6902430A6150
:102D1000194D1A4E2E60096901400091009828460D
:102D2000FDF780FB24202C5403210020A862E962D7
:102D3000FF210A46C232EA612862A876023129835D
:102D40000427022162072E606A60A8602A460C32BE
:102D500083C22846FDF73AFC200309490F6048600A
:102D60002846FDF7ADFB504928462246FDF712FDE7
:102D700001B0F0BD301002404801002000240140A5
:102D80009008002010B5002200280DD000290BD09B
:102D900000220B46048812195B1E801C002BF9D1FF
:102DA0001046FDF7D6F9024690B210BD2548002125
:102DB00001702D4801701748017023480170704759
:102DC000F0B581B01F490878002820D0401E087057
:102DD000104B1878411C0F220A401A7022490978BA
:102DE0000029EFD0C00019490C5C0818456800277D
:102DF0001E4E05E0361D7F1C1B4800788742E1D23D
:102E00003268002AF6D0204629469047F2E701B002
:102E1000F0BDC04686080020F0B5062810D8094A43
:102E200013780F2B0CD8084C2578EE00074FB855B7
:102E3000581C1070B8194160681C0F2101402170A6
:102E4000F0BDC04685080020840800202004002032
:102E500010B505490A78072A04D89300034CE050BE
:102E6000501C087010BDC046AC04002000040020B7
:102E700080B50B480168890702D40A4880B280BD3A
:102E80000221416008480168084848438C49FDF721
:102E900060F9074908400A21FDF75BF980B280BD5F
:102EA0000000024088130000A0040020E40C000091
:102EB000FEFF0000F0B5104E002918D000220F4B85
:102EC000144605E0401C641CA6B28E422E460FD26A
:102ED00005787540164604E03D46771C072E3E46B1
:102EE000F0D22F047F0CED07F6D05F40F4E73546B3
:102EF00028BA000CF0BDC046FFFF000001A0FFFF94
:102F00000A46024337D0614A904236D00522120762
:102F1000904200D05CE06948814200DD5AE03F29E0
:102F200000DD6EE0091F1C2900D9A7E062A049005E
:102F30007944898849008F448400A100A100A10040
:102F40001C00A100A100A100A100A100A100A100FE
:102F50009100A100A100A100A100A100A100A10079
:102F6000A100A100A100A100A100A100A100A10059
:102F7000930067A0704742A070474A1E3F2A00D9BD
:102F800037E043A07A441279520097445A1F595DA2
:102F90005959595B59595959595959635959595995
:102FA0005959595959595959595959615959595989
:102FB0005959595959595959595959595959595981
:102FC00059595959595959595959595F38A0704740
:102FD0002CA070473A4881421DDD3A48814226DCE8
:102FE0000120020391423DD04003814246D13AA0E4
:102FF0007047802930D001200002814220D125A0D5
:103000007047402932D0802934D00120000281420B
:1030100034D13AA0704701204202914228D0820266
:10302000914229D0C002814228D12FA070470120AF
:103030008203914218D0C00381421FD122A0704761
:103040001CA0704718A0704718A0704713A07047C5
:1030500013A0704713A070470FA070472BA07047B4
:1030600029A070471EA0704719A0704725A070477F
:1030700021A0704722A070471DA0704725A070476F
:1030800044454600554E4B4E4F574E0000040050ED
:103090005042300050423800504237005042360013
:1030A000504235005042340050423300504232000A
:1030B0005042310050423F0050413200FF010000B9
:1030C000FF0F0000FF3F00005041313500000000BD
:1030D0005041313400000000504131330000000005
:1030E00050413132000000005041313100000000F9
:1030F000504131300000000050413900504138004B
:1031000050413700504136005041350050413400A5
:103110005041330050413F00C3487047AA480078EF
:103120007047C046A748704770B50446FDF7A0FF3A
:103130000546FDF7A3FF0646FDF7A6FF2072310EF8
:10314000E171310CA171310A61712671290EE170B2
:10315000290CA170290A61702570010EE172010C21
:10316000A172000A607270BD59405040084341424C
:103170004841704710B582B009480321094A01242B
:10318000A302026041608360FDF784FF00947D200C
:103190008100054A0020034600F00AFE02B010BD7F
:1031A000CC010020003000403141000880B501F022
:1031B000B7FD80BDF0B589B006467C4D282728466E
:1031C0003946FCF7AEFF7A483946FCF7AAFF012ED4
:1031D00014D0002E00D0BFE072B67C4828222946C9
:1031E00000F056FD62B62868401C1AD06F480A21CC
:1031F0006F4A282300F0D4FC6D4D1DE072B66D4877
:103200002822294600F044FD62B62868401C00D1FF
:10321000A4E066480A21664A282300F0C1FC644CF9
:10322000A7E06BA0624D29461CC81CC11CC81CC16C
:103230001CC81CC10088088020200890285C0790CA
:103240000521CB43E87E0490A87E0390E87D0290A0
:10325000A87D0190687D0090E87F0690A87F05908A
:103260006E7F287F64A4704A12E0514DEF18FD79FB
:103270001570FD7A5570FD7B9570FD7CD570FD7DD8
:103280001571A0CC9560D760383200345B1C18D221
:103290009F1D032FE9D99D1C08D0079D1571069D20
:1032A000D570059D957056701070EAE7049D1571F4
:1032B000039DD570029D9570019D5570009D157000
:1032C000DFE725203A4F385C3F4A10700022564B0A
:1032D000564D06E00020186358633833521C062A06
:1032E0002AD01006400E38182224005DD40705D0DD
:1032F0000009C40706D002249D6105E00F24204088
:10330000C407F8D100249C61DC61840702D4002446
:103310001C6202E00C071C62089C5C62440702D439
:1033200000249C6202E040240E079E62DC620828B2
:10333000D0D301201D63CFE700243B4D264627460E
:10334000E9198869C969FFF7DBFD0837202FF7D134
:103350003835761C062EF2D109B0F0BD2821144C68
:103360002046FCF7DEFE1448A0801448608002204E
:103370006070134D2846FFF7D7FE0C212846FFF753
:1033800099FD1049887010220A70FA228A72092267
:103390004A72000A48700C480078C870206848607B
:1033A000207908726079087309B0F0BDAC02002082
:1033B0008402002000F2000805060000030400005B
:1033C000B506002060060020DC06002000F00008A2
:1033D000F20E0E0E0E010203040000000021212156
:1033E00021000000000E0500440021000E0600210F
:1033F00000B0218400000000000000500800000020
:1034000000000050040000000004005020000000F4
:1034100000040050100000000000005000040000F4
:1034200000000050000800001005002000040050BB
:1034300080B5064800F098F8054800F01BFC0548E8
:1034400000F020FC0448FFF703FD80BD753500083F
:10345000733C0008813C00084551000870B53E4AA5
:1034600013780022012B1FD1244B1C78072C1BD86A
:10347000234C25461035002203E01835521C082A3B
:103480000DD0AE1F3678012EF7D12E1F366886423A
:10349000F3D12E688E42F0D1002A04D506E0002236
:1034A000D243002A02D40022104670BDA27A012520
:1034B000012A2A4613D10022114C072A0AD02226BB
:1034C000A65D521C1834002EF7D1521E072A05D3D0
:1034D000002204E0072AE6D2012070BD0122002666
:1034E00026806680E6802681216126718161E06008
:1034F000A5721878401C1870104670BD800200201C
:103500003007002070B582B01348012101701348C4
:10351000026802210A430260114C0025A561312294
:103520002F23104E26606360A560E260256100686D
:103530000840019001982046FEF7DAF9102630463F
:1035400029462A46FDF718FE3046FDF70BFE2046B9
:10355000FEF72DFA02B070BDF00700203C100240CB
:103560004002002000040040014908607047C04646
:10357000A8040020F0B587B00646FFF7D3FD0690FB
:10358000C179827912025118727A337A1B029B1820
:1035900032798B4203D0052A01D0002A0DD1F3786D
:1035A000B4782402E4188778437805931B02DD1968
:1035B000CA4BAC4203D09C4201D007B0F0BDB47AF4
:1035C000039434460B3404940E2A57D8950001A472
:1035D0006459A746133600081136000881360008E2
:1035E000B337000885380008133800081136000882
:1035F000B1380008513700081136000811360008AC
:10360000113600081136000811360008133700087B
:10361000D3E70421052205460846049900F070F915
:10362000A8786978AE4C06222271EA7862716A79CC
:10363000A2710022E271AB7923722170A2706070D6
:10364000E270E87960721422A27220460B3029469B
:10365000FCF74EFD402161542046FFF7B4F8FFF718
:1036600078F8FEF737FA0028FBD0FFF772F8FEF77C
:1036700031FA0028FBD0FFF76CF828E1822A9CD1B0
:103680004679822A0AD19949029008460499039AF8
:10369000FCF752FD0146029800298ED00A217143A1
:1036A0000A3102918E4E82213171C1787171417956
:1036B000B17100210191F1718179317277700599B1
:1036C0003170FF21B170F170C0797072039DB572D5
:1036D00030460B30049C21462A46FCF709FD402069
:1036E0003054019800900620814A0299334600F038
:1036F0005FFBF54821462A46FCF7FAFC7D4E304632
:1037000021462A46FCF7F4FC20203554012031469E
:10371000DFE0734A0E211171C178517141799171C5
:103720000023D371817911725770059911709370CC
:1037300004994C780D7840215154D370C079D572DA
:1037400014735072022090721046FFF73CF85CE050
:10375000634C0D212171C17861714179A171002102
:10376000E171827922726770059A22704025655551
:10377000A170E170C0796072A1720120FCF7C7FDF1
:10378000615D2046FFF71FF8FEF7E3FFFF20FEF71D
:10379000ACF9FFF7C7FC0079FEF743FFFEF78FFF98
:1037A000FD48FCF7B4FDFEF7B6F9FEF700FF07B0E1
:1037B000F0BD4B4C06212171C17861714179A17135
:1037C0000021E171827922726770059A2270A170DE
:1037D000E170C0796072327BA272F07A06A9091892
:1037E00020460B30FCF784FC402161542046FEF754
:1037F000EAFFFEF7AEFFFEF76DF90028FBD0FEF7FB
:10380000A8FFFEF767F90028FBD0FEF7A2FF07B07C
:10381000F0BD327BF47A2402A2189A4202D08A4286
:1038200000D0CAE6717BFF2903D0C278914200D054
:10383000C3E62B4C06212171C17861714179A171D8
:103840000026E67181792172677005992170A67052
:10385000E670C17961721422A27221460B310546CD
:1038600008462946FCF744FC40202054687900961D
:10387000322141430A3105201A4A234600F098FAC2
:1038800007B0F0BDF07914281DD126211A4D282645
:1038900004982A46334600F0B0F972B61748294614
:1038A000324600F007FA62B60020FFF783FC0EE014
:1038B000307B727B20230C490224CC541202101856
:1038C0000880032005E00122049900F019F8062081
:1038D0000021FFF7A1FA07B0F0BDC046FFFF0000CE
:1038E000D4020020F54000083A030020B004002074
:1038F000CD400008180300205C03002000F0000801
:10390000F0B581B014460D460646012A06D1301F97
:10391000052807D30C2E05D001B0F0BD042EFBD135
:10392000052CF9D1FFF7FEFB42790379077B1B4990
:103930004F71077A0F710B704A7082798A70C07963
:10394000C870174F06223846FCF7D2FB002C09D06E
:10395000002014A12A5C3318DBB2CB5CFA54401C63
:103960008442F7D10D480E490622FCF7E5FB0028FA
:10397000D2D00B4806210F4C082522462B4600F0DA
:103980003CF972B60C4821462A4600F093F962B61B
:103990000120FFF70FFC01B0F0BDC0468A030020F4
:1039A0008403002000000000000102030400000066
:1039B000050000009003002000F20008F0B581B07F
:1039C0001F460E4605463E4C21212046FCF7A9FB2A
:1039D000FFF7A2FBF1212170002F0CD0012F20D185
:1039E00038216943415CFE220A40102A19D1622124
:1039F0006170002114E038216943425CA670627056
:103A00004118C97850220A40502A01D1002107E00C
:103A1000C906314600D50121402A01D171427141C8
:103A2000A1703821694340184178E1708178217193
:103A3000C178A1710079E0710521204600F01CFCDD
:103A400020270821E1556071022630462146FFF704
:103A5000E3F9FFF767FB417882781A4D2E71C3783E
:103A60006B7143790026EE71AB7183792B72FF2362
:103A7000AB706A702970EB70C0796872E65DAE72E7
:103A800028460B3021463246FCF732FB0E482146D1
:103A90003246FCF72DFB402169542846FEF793FE81
:103AA000FEF757FEFEF716F80028FBD0FEF751FE92
:103AB000FEF710F80028FBD0FEF74BFE01B0F0BD7A
:103AC000DC03002098030020B0040020F0B581B092
:103AD000304C10340027FD43009303E018347F1C62
:103AE000082F0ED0A61F3678012EF7D1261F366874
:103AF0008642F3D126688E42F0D1002F04D501B062
:103B0000F0BD2F46002FFAD47D24A400A24200D39A
:103B10002246002B1BD0182179431E4F7818428073
:103B20007C5A1D4DAB4200D300950125052B2B4639
:103B300004D3009B5B1D194E5E43330C03810023AD
:103B4000C38005718482795A9142D8D11CE0114C0E
:103B50001034002303E018345B1C082B0BD0A61F85
:103B60003678012EF7D1261F36688642F3D12668B3
:103B70008E42F0D100E02B46002BC0D418205843D1
:103B800004490A5208184280001D0021017001B04A
:103B9000F0BDC04630070020881300009A190000CD
:103BA000F0B582B0144601918A00934201D20022FE
:103BB00000E00122631E25469D41431E01469941B6
:103BC000294011400091012914D10199002911D0F7
:103BD00000210D46AA0086180F4622463368FB4096
:103BE00013700837521C202FF8D1241D6D1C019A28
:103BF0009542EFD1009802B0F0BDF0B585B00391C9
:103C000001460020002932D0002A30D0039CE41C59
:103C1000A5080295AB422AD30120042C27D300909B
:103C20000023039E019209E00027019A049817508F
:103C3000091D361F5B1C0298834217D0042E3046A4
:103C400000D30420012800D801209C00039A04948A
:103C5000A242E9D0C00000250C462F462278AA4097
:103C60001743641C0835A842F8D1DEE7009805B078
:103C7000F0BD7047014908607047C04688080020C1
:103C800070470000014908607047C0468C0800205A
:103C900070B514460D460646FDF7FAF8002C05D01F
:103CA000002031582950001DA042FAD3FDF718F822
:103CB000002070BDF0B587B016460C460546FDF7EE
:103CC000E7F8002706970597049730467F30C0092C
:103CD000039002950220019001A806A9FCF7A2FE1C
:103CE000002801D0012612E000977719BD420BD2BF
:103CF0000126304629462246FCF7FCFF002806D163
:103D000080348035BD42F3D3FCF7EAFF009E304695
:103D100007B0F0BDF0B587B0E64801680227394327
:103D2000016001683940029102990168012631431E
:103D300001600068304002900298052001071B488E
:103D400088610191AF4A3023009393610597002465
:103D500004940396029002AD08462946FDF7BAF88E
:103D600005970494039600980290A6482946FDF70B
:103D7000B1F8059704940396300202900198294601
:103D8000FDF7A8F8059704940396032002909D4838
:103D90002946FDF79FF8059704940396602002904A
:103DA00001982946FDF796F807B0F0BD0C0C00000D
:103DB000F0B51F2815D8059C14254543424E7719A8
:103DC00072B67960B96000217970611E8C417455BA
:103DD000FA603B61012181403A4802680A4302606F
:103DE00062B6F0BD10B51F2812D814214143364ADF
:103DF000531872B600245C609C605C705454DC60A4
:103E00001C61012181402F4802688A43026062B62A
:103E100010BDC046F0B581B02B482021002545607B
:103E2000856045700570491E14300029F6D1FDF7F4
:103E3000B5FA0121CE03104F3A6832433A600F4C75
:103E40000F4A2260A560E16025616561A5617D2161
:103E5000C900FCF77EF9401E606038683040009071
:103E600000982046FDF744FD1320FDF77BF920461E
:103E7000FDF79DFD01B0F0BD401002409C08002000
:103E80000020004070B50F4C2068002819D00E4D5E
:103E90001035002603E01435761C202E11D0206842
:103EA000F040C007F7D028460F3801780129F2D139
:103EB00000210170281F01680029ECD0286888477C
:103EC000E9E770BD5C0B0020DC080020F0B589B08C
:103ED000002408940794069405940494754908688E
:103EE0000226304308600868304003900398086851
:103EF0003043086008683040039007960125069516
:103F00000596042002900490039808943D4804AF5D
:103F10003946FCF7DFFF0820089005960095280237
:103F2000049038483946FCF7D5FF02980890079668
:103F30000695059680200490324D28463946FCF7B8
:103F4000C9FF0298089005964020049028463946FB
:103F5000FCF7C0FF009DA803564AD1680143D16019
:103F60001746294E0C2302934B21C901274A326080
:103F70007160B460F46034617361F9680140049168
:103F800004983046FDF75EFD1B27384621462A4639
:103F9000FDF7F2F83846FDF7E5F83068C1682022F1
:103FA00001921143C160C16810273943C1606804A0
:103FB000404A9168014391601346154DE121490241
:103FC000144A2A606960AC60EC602C6102996961F6
:103FD00099680140049104982846FDF733FD1C269A
:103FE000304621462246FDF7C7F83046FDF7BAF8BD
:103FF0002868C168019A1143C160C1683943C16032
:1040000009B0F0BD00040050640D002000380140EC
:10401000B00D002000440040F0B587B000250695A3
:1040200005950495039502952249086801273843B0
:10403000086008683840019004971F480390780290
:10404000029001980520000702A9FCF743FF07240E
:104050002046FDF787F8032102222046FDF78CF861
:10406000FDF79CF97E04134AD1683143D160134CAB
:1040700013492160A560E76025616561A5617D2127
:10408000C900FCF766F8401E60600A48C06830400E
:10409000019001982046FDF72BFC1520FDF762F8F2
:1040A0002046FDF784FC074805700748057007B0F7
:1040B000F0BDC04634100240000011100002002084
:1040C00000440140600B0020AD04002080B5402179
:1040D000415CFEF778FBFEF73CFBFDF7FBFC00289C
:1040E000FBD0FEF736FBFDF7F5FC0028FBD0FEF712
:1040F00030FB80BD80B54021415CFEF764FBFEF7DC
:1041000028FBFDF7E7FC0028FBD0FEF722FBFDF7BC
:10411000E1FC0028FBD0FEF71CFB0520FFF762FE48
:1041200080BD80B5FEF7FEFF0079FEF77AFA80BD0C
:1041300080B50248FCF7D4FF80BDC046CC0100200A
:1041400098B0FCF7DFFF0DAE2C213046FBF7E9FFFE
:1041500000251395012108020C4612900A200D90AB
:104160000C950B950A9509953F48006815910E9599
:1041700017950227169710953C490140E00308184F
:1041800014903046FDF762F921460494A0030C9088
:104190000B950A970720099009A8FDF709F86420F4
:1041A000FCF72EFCFDF719FD07A80F210391017103
:1041B0002D210291C1703C21019181704B244470EA
:1041C0005A27077005263146FEF743FA05A80399DA
:1041D00001710299C1700199817044700770314674
:1041E000FEF752FAFF20FDF780FCFFF76FFE28462E
:1041F000FEF7E0FF0498FEF7DDFFFFF70BFEFEF78A
:10420000B9FFFEF7D3FDFFF713F9FEF7CFFFFEF777
:10421000CEF9FEF787FF0079FEF703FA144C154E2E
:1042200007E0FDF7C2FC40B200281AD4FF20FDF7DA
:104230005CFCFFF727FEFEF7C3FDFDF74BFC0028F3
:10424000F7D0FDF7B2FCC007EBD040252046294649
:10425000FEF78EF9655531680029E7D0204688477A
:10426000E4E7FEF7A4F9E1E7100FFF1FFF1F0000CE
:1042700074060020A80400200022002905D003783D
:104280009A18491E401C0029F9D15042C0B270470B
:10429000F0B585B00D4604460078FA2815D160784F
:1042A000012812D1FEF73AFF14280ED1A078002879
:1042B00000D17AE1012801D000F02EFD9B48007862
:1042C000002800D179E1002070E104942078F128E1
:1042D00001D000F021FDFEF71FFF0446944800784E
:1042E000002804991CD14878002819D09148012150
:1042F00001707720C043904A04E03834143001D173
:1043000000F00AFD23780E2BF7D1E3789B07F4D554
:1043100013187F2559557A25595579255955ECE7B4
:104320004878622801D900F0F7FC800001A1085804
:104330008746C046C144000897490008274900083D
:10434000C3480008BD460008BF470008CF4A000820
:104350002D4B0008194D0008194D0008194D000893
:10436000194D0008194D0008E94B00088B4B000857
:104370005F4600081D48000819470008194D00084D
:10438000194D0008194D0008194D0008194D000875
:10439000194D0008194D0008194D0008194D000865
:1043A000194D0008194D0008194D0008194D000855
:1043B000194D0008194D0008194D0008194D000845
:1043C000194D0008194D0008194D0008194D000835
:1043D000194D0008194D0008194D0008194D000825
:1043E000194D0008194D0008194D0008194D000815
:1043F000194D0008194D0008194D0008194D000805
:10440000194D0008194D0008194D0008194D0008F4
:10441000194D0008194D0008194D0008194D0008E4
:10442000194D0008194D0008194D0008194D0008D4
:10443000194D0008194D0008194D0008194D0008C4
:10444000194D0008194D0008194D0008194D0008B4
:10445000194D0008194D0008194D0008194D0008A4
:10446000194D0008194D0008194D0008194D000894
:10447000194D0008194D0008194D0008194D000884
:10448000194D0008194D0008194D0008194D000874
:10449000194D0008194D0008194D0008194D000864
:1044A000194D0008194D0008194D0008194D000854
:1044B000194D0008194D0008194D0008074600085D
:1044C00004988079800702D51C48012101700021E1
:1044D00007E0D87198705870491C062901D100F086
:1044E0001BFC382048432518E8788006F4D504984A
:1044F000007900090F2803D0AB781B099842EBD153
:1045000028781128E8D814234B430B4AD318C04607
:1045100078440079400087443C1816141313131391
:1045200013131313131616141320C0460E05002080
:1045300002050020FE040020C4000020FC0400202E
:10454000CAE70120C5E70020C3E704988078012569
:104550000540DD719D705D70BEE70026204603E0DA
:1045600038301436782E0ED00778102FF8D16F78A7
:104570004278BA42F4D1FB4A92190027D7601772E9
:10458000D7715770ECE70020D86001201872D870FE
:10459000A1E76878049AD57885429DD104988078FF
:1045A0000125DD702840D87195E70120EE490022F1
:1045B0000A80EE49087005B0F0BD0520000701240F
:1045C00021027D239A00DB00FFF780FA7720C543A4
:1045D0000026E44F06E078197F214454383614351C
:1045E00000D199E3FEF798FD8019C1780907F5D548
:1045F00000780D28EFD00E28F0D178197A21445494
:1046000079214454E7E7002104E038341431782953
:1046100000D181E32078FE230340102BF5D1607890
:10462000049AD678331A584258413746FF3F7B42A6
:104630007B41774277416E1E721E96413E42E4D125
:104640000343E2D0C7484018027AD207DDD00022E7
:104650000272C2710123C3704270C260D5E7681E46
:10466000411E88410499C978C9B24A424A41024070
:104670007720C343012603E03834143300D14BE3E1
:104680006078081A451EA8410F46FF3F7D1EAF41C6
:1046900025780F2D354602D1074017433D46002DA2
:1046A000EAD1B048C018049DAD7801272F407F257E
:1046B00047557A25475579254755DDE7681E411E40
:1046C00088410499C978C9B24A424A41024000234C
:1046D000012604E038341433782B00D11CE36078D1
:1046E000081A451EA8410F46FF3F7D1EAF412578A1
:1046F000042D354602D1074017433D46002DE9D130
:104700009848C018049DAD780027C76001272F4046
:10471000077287704770DDE7681E411E8841049963
:10472000C978C9B24A4203914A410240019200232A
:1047300001270AE000200299C86001200872C870B1
:1047400048705B1C062B00D1E6E238255D436019FA
:104750004078039E311A4A1E91413246FF3A561E56
:10476000B241655D112D3D4603D10A4001990A43CE
:104770001546002DE5D1142159437A4A511802916A
:104780000499CA78101A411E8841FF3A511E8A4185
:1047900002400021204603E0383014317829C9D086
:1047A0000578102D3D4600D11546002DF4D16D4DF4
:1047B0006D180026EE602E72EE716E70ECE7681ECA
:1047C000411E88410499C978C9B24A424A4102400F
:1047D0007720C343012603E03834143300D19BE231
:1047E0006078081A451EA8410F46FF3F7D1EAF4165
:1047F0002578052D354602D1074017433D46002D4B
:10480000EAD15848C018049DAD7801272F407F2574
:1048100047557A25475579254755DDE7681E411EDE
:1048200088410499C978C9B24A4203914A41024079
:104830000192002301270AE000200299C8600120AC
:104840000872C87048705B1C062B00D164E23825E2
:104850005D4360194078039E311A4A1E91413246E9
:10486000FF3A561EB241655D102D3D4603D10A4008
:1048700001990A431546002DE5D114215943394ABF
:10488000511802910499CA78101A411E8841FF3AC2
:10489000511E8A4102400021204603E03830143185
:1048A0007829C9D00578112D3D4600D11546002D37
:1048B000F4D12C4D6D180026EE602E72EE716E70E4
:1048C000ECE77720C04303900022264B0CE0142035
:1048D00050431818897801250D40C57185704570C1
:1048E000521C062A00D117E238205043205C0328CE
:1048F000F6D1049988780028E9D02046039D02E08B
:1049000038301435E3D00678022EF9D15E190499B7
:104910008F780121B9437F27F1557A27F1557927FF
:10492000F1550499ECE77720C043039000220D4B2A
:104930000CE0142050431818897801250D40C571EA
:1049400085704570521C062A00D1E5E1382050439D
:10495000205C0228F6D1049988780028E9D0204606
:10496000039D08E0C4000020000500200E05002083
:1049700038301435DDD00678032EF9D15E1904994C
:104980008F780121B9437F27F1557A27F15579278F
:10499000F1550499ECE704988079800702D5DF4847
:1049A00001210170002109E00020D8600120187267
:1049B000D8705870491C062900D1ADE13820484311
:1049C0002518EE78F007F5D00498007900090F2833
:1049D00003D0AB781B099842ECD128781128E9D88C
:1049E00014234B43F64AD318784400794000874497
:1049F000343B0917080808080808080808090909C5
:104A00001E49D7E70498807875B2002D04D401259B
:104A10002840D8719870CCE70028CBD10020F8E767
:104A20000498807801258543DD719D701AE0002689
:104A3000204603E038301436782EB5D00278112A9B
:104A4000F8D16A7847789742F4D1F74A921900274B
:104A5000D7601772D7715770ECE7049880780125FA
:104A60000540DD715D70A5E76878049AD5788542C8
:104A7000A0D15020304050281BD10020D8710125F2
:104A8000DD7096E70026204604E038301436782E94
:104A900000D189E70778102FF7D16F784278BA42B2
:104AA000F3D1E14A92190027D7601772D771577076
:104AB000EBE7F00609D440200640049880780125F1
:104AC0002840002EA5D06840A3E70120A1E7681E7A
:104AD000411E88410499C978C9B24A424A410240FC
:104AE0007720C343012603E03834143300D113E1A7
:104AF0006078081A451EA8410F46FF3F7D1EAF4152
:104B00002578062D354602D1074017433D46002D36
:104B1000EAD1C548C018049DAD7801272F407F25F4
:104B200047557A25475579254755DDE7681E411ECB
:104B300088410499C978C9B24A424A410240772063
:104B4000C343012603E03834143300D1E4E0607835
:104B5000081A451EA8410F46FF3F7D1EAF4125782C
:104B6000072D354602D1074017433D46002DEAD1B7
:104B7000AD48C018049DAD7801272F407F254755CB
:104B80007A25475579254755DDE7681E411E88413E
:104B90000499C978C9B24A424A4102407720C343C6
:104BA000012603E03834143300D1B5E06078081AE8
:104BB000451EA8410F46FF3F7D1EAF4125780E2DB3
:104BC000354602D1074017433D46002DEAD1FB4848
:104BD000C018049DAD7801272F407F2547557A25C1
:104BE000475579254755DDE7049800790F21019154
:104BF0000840029000230120039003E05B1C062B79
:104C000000D189E038205843221802980F2805D097
:104C100090780199084002998142EFD114205843BD
:104C2000E6490F1810780D2803D10025FD71BD70DD
:104C30007D700499CD7916792E42DFD0401E102860
:104C4000DCD8C04678440079400087440908110840
:104C50000808080808080808090908391500CDE7F8
:104C60000498807801210140F971B9707970C5E725
:104C70000020F871B8704DE0049880780028BDD00D
:104C800050780499CA78101A411E8841FF3A511E83
:104C90008A4102400026204603E038301436782E40
:104CA00033D001781029039D00D11546002DF4D191
:104CB000C24989190025CD600D72CD714D70ECE7A8
:104CC00004988078002800D198E750780499CA7831
:104CD000101A451EA841FF3A551EAA41024000265F
:104CE000204603E038301436782E0ED00578112D8A
:104CF000039D00D11546002DF4D1B0498D19002136
:104D0000E9602972E9716970ECE70020F860012020
:104D10003872F870787071E705B0F0BDFC040020BF
:104D2000F0B581B0FEF7F6FFFDF7E4FF0124009433
:104D3000022005261F4A002531462B46FFF738F88A
:104D4000009403201C4A21462B46FFF731F81B48EC
:104D5000FEF77EF8FEF7D6FBFFF75EF9360727026F
:104D600030463946FEF77AFB7D208200C30030468C
:104D70003946FEF7ABFEED4804707720C643EA4F94
:104D800005E0B8197F2144543835143610D0FEF7A9
:104D9000C3F94019C1780907F6D500780D28F0D07D
:104DA0000E28F1D1B8197A21445479214454E8E706
:104DB00001B0F0BDC54F00082D4E0008C54D0008DC
:104DC000C400002010B5401E05282CD87844007976
:104DD0004000874402180428282500221BE04C7854
:104DE000601E84410878401EC0B214214143CE4A5F
:104DF00051184C700B7A002B00D00024F122214670
:104E0000FEF7DCFD10BD20200A5C00238B540A5CF9
:104E1000521C0A54012208461146FFF739FA10BD08
:104E2000C6480121017010BDC4000020F0B583B058
:104E30007D208700FEF770F90090594C2578012DF0
:104E400002970AD159480188491C018088B2C008DC
:104E50007C2815D90022264604E0534E30780128DC
:104E60003A460DD105200007012739024D4BFEF7C8
:104E70002DFE7D40AD480570002030704B49088004
:104E80004B480178012918D14A490A88521C0A80E6
:104E900092B2494B9A4210D37722D243A24B9E182A
:104EA0007F270025F5557927F5557A27F5551432D2
:104EB000F5D10570012020700D800021009E06E0D4
:104EC000E879687238360199491C062966D01420A1
:104ED0000191484394490D18E87801280CD169895B
:104EE000481C6881002901D10121A97080B2642881
:104EF00002D3002068816880287A01280FD1E968F0
:104F0000481CE860002901D10121E9712C4988423F
:104F100005D300202872E871A870E8606870A8784E
:104F20002979884217D1687AE9798142CAD0002765
:104F300002E00837202FC3D0F419A069E1690022EC
:104F40001346FEF711F90028F3D1A069E169EA7967
:104F500000F03EF9EDE7002801D1182100E02821FA
:104F60003822019B5A43009B9A189368D2685A5082
:104F70002871002702240AE0029A05200007012177
:104F80000902084BFEF7A2FD14347A2CCBD06648F8
:104F9000005D3F183806EFD13222EEE703B0F0BDD6
:104FA000FC040020B80B0000FE04002004050020D3
:104FB0000E0500200005002030750000C400002010
:104FC00060EA0000F0B581B0FDF752FF5449884215
:104FD00013D15A480178012900D09EE058490A8827
:104FE000521C0A8092B2322A0ED802204E49012267
:104FF0000A5414307A28FAD18FE04A4B588000279F
:10500000494A3E463C461BE0642A73D80220464982
:1050100000220A5414307A28FAD17EE0E0B2F1225C
:10502000FEF7CCFC012042490870287041480099E5
:1050300001803C4B3C4A38371436641C782EC8D06B
:105040009519298A5888884202D3698A88420AD9E0
:10505000394940180128EED80020354908702870D9
:1050600034490880E7E719784A1C1A704900591832
:105070008880D0B22C4A0A28DDD300200090187016
:10508000181D0A21FDF77EFE274A264B298A8842F1
:10509000D1D3698A8842CED82878002814D02448F1
:1050A00000780128C7D123490888401C088080B2B5
:1050B0003C28C0D3042000252946FDF7ADFE1A4A3E
:1050C000184B1B480570B6E7FEF726F81749097814
:1050D000002902D1C05D1B2804D16878012141401C
:1050E000697001E0009868702B7A002B009995D1C7
:1050F000697893E7962A07D802200B4901220A54BF
:1051000014307A28FAD108E0002202700A800220C6
:1051100005490A5414307A28FBD101B0F0BDC046CD
:1051200088130000E4040020C400002002050020D1
:10513000080500200A050020B7FEFFFF0605002035
:105140000C050020F0B581B004283AD1FDF7EAFF44
:1051500006464078B1781C4D00242C71F2786A71B3
:105160007279EC71AA71B2792A72AC706970287088
:10517000EC70F07968720B27AF720120FDF751FADD
:1051800028460B3031463A46FAF7B2FF40216954BF
:105190002846FDF718FBFDF7DCFAFCF79BFC00281E
:1051A000FBD0FDF7D6FAFCF795FC0028FBD0FDF705
:1051B000D0FA00947D20C1000120044A2346FEF766
:1051C000F7FD01B0F0BDC046EC0600202341000809
:1051D000F0B581B015460C46064611480078012806
:1051E00004D1002D18D0B46101B0F0BD0D48007895
:1051F000401C0C273946FAF7ACFF0B480078814277
:1052000008D0084A107847430848C6511170C019A1
:105210004460856001B0F0BDB46201B0F0BDC0462D
:10522000000E0020600B0020AD040020F4070020D9
:1052300002E008C8121F08C1002AFAD1704770475F
:10524000002001E001C1121F002AFBD170470000BD
:1052500000093D0000127A000024F400408651014C
:1052600000366E0100000000000000000000000099
:10527000000000000000000000000000000000002E
:105280000000000001000000020000000300000018
:1052900004000000060000000700000008000000F5
:1052A00009000000000000000000000000000000F5
:1052B00000000000010000000200000003000000E8
:1052C0000400000000093D0000127A000024F400F0
:1052D0004086510100366E0100093D0000093D0085
:1052E00000093D001C0FFF1F300FFF1F440FFF1F61
:1052F000580FFF1F6C0FFF1F1C0FFF1F1C0FFF1FFE
:105300001C0FFF1F00000100020003000400050045
:1053100006000700080009000A000B000C000D0041
:105320000E000F00100011001200130014001500F1
:1053300016001700180019001A001B001C001D00A1
:105340001E001F0020002100220023002400250051
:1053500026002700280029002A002B002C002D0001
:105360002E002F00300031003200330034003500B1
:1053700036003700380039003A003B003C003D0061
:105380003E003F0040004100420043004400450011
:1053900046004700480049004A004B004C004D00C1
:1053A0004E004F0050005100520053005400550071
:1053B00056005700580059005A005B005C005D0021
:1053C0005E005F00600061006200630064006500D1
:1053D00066006700680069006A006B006C006D0081
:1053E0006E006F0070007100720073007400750031
:1053F00076007700780079007A007B007C007D00E1
:105400007E007F0080008100820083008400850090
:1054100086008700880089008A008B008C008D0040
:105420008E008F00900091009200930094009500F0
:1054300096009700980099009A009B009C009D00A0
:105440009E009F00A000A100A200A300A400A50050
:10545000A600A700A800A900AA00AB00AC00AD0000
:10546000AE00AF00B000B100B200B300B400B500B0
:10547000B600B700B800B900BA00BB00BC00BD0060
:10548000BE00BF00C000C100C200C300C400C50010
:10549000C600C700C800C900CA00CB00CC00CD00C0
:1054A000CE00CF00D000D100D200D300D400D50070
:1054B000D600D700D800D900DA00DB00DC00DD0020
:1054C000DE00DF00E000E100E200E300E400E500D0
:1054D000E600E700E800E900EA00EB00EC00ED0080
:1054E000EE00EF00F000F100F200F300F400F50030
:1054F000F600F700F800F900FA00FB00FC00FD00E0
:10550000FE00FF0000010101020103010401050189
:1055100006010701080109010A010B010C010D0137
:105520000E010F01100111011201130114011501E7
:1055300016011701180119011A011B011C011D0197
:105540001E011F0120012101220123012401250147
:1055500026012701280129012A012B012C012D01F7
:105560002E012F01300131013201330134013501A7
:1055700036013701380139013A013B013C013D0157
:105580003E013F0140014101420143014401450107
:1055900046014701480149014A014B014C014D01B7
:1055A0004E014F0150015101520153015401550167
:1055B00056015701580159015A015B015C015D0117
:1055C0005E015F01600161016201630164016501C7
:1055D00066016701680169016A016B016C016D0177
:1055E0006E016F0170017101720173017401750127
:1055F00076017701780179017A017B017C017D01D7
:105600007E017F0180018101820183018401850186
:1056100086018701880189018A018B018C018D0136
:105620008E018F01900191019201930194019501E6
:1056300096019701980199019A019B019C019D0196
:105640009E019F01A001A101A201A301A401A50146
:10565000A601A701A801A901AA01AB01AC01AD01F6
:10566000AE01AF01B001B101B201B301B401B501A6
:10567000B601B701B801B901BA01BB01BC01BD0156
:10568000BE01BF01C001C101C201C301C401C50106
:10569000C601C701C801C901CA01CB01CC01CD01B6
:1056A000CE01CF01D001D101D201D301D401D50166
:1056B000D601D701D801D901DA01DB01DC01DD0116
:1056C000DE01DF01E001E101E201E301E401E501C6
:1056D000E601E701E801E901EA01EB01EC01ED0176
:1056E000EE01EF01F001F101F201F301F40100001C
:1056F00010570008000000204801000010020008B8
:105700003857000848010020C0100000405200082F
:1057100001C20314127A02120A04121E0028041293
:1057200055005F041291009B0412AA00B446C30006
:08573000CD000182040000001D
:04000005080000C12E
:00000001FF
