:020000040800F2
:10000000C00D0020D5000008D5130008BD1300085E
:1000100000000000000000000000000000000000E0
:10002000000000000000000000000000492100085E
:1000300000000000000000002D2000084B210008F7
:10004000E7000008E7000008E7000008E7000008F4
:10005000E7000008E7000008E700000801060008C4
:1000600000000000E7000008E700000800000000B2
:10007000E7000008E7000008E700000800000000B3
:100080000D220008E7000008000000008D21000894
:10009000000000009D210008E7000008E7000008BC
:1000A00000000000E7000008E7000008E123000866
:1000B000E700000800000000E70000080000000062
:1000C0000348854600F04CFA00480047D505000873
:1000D000C00D00200448804704480047FEE7FEE7C3
:1000E000FEE7FEE7FEE7FEE755210008C100000835
:1000F00003460B439B0703D009E008C9121F08C041
:10010000042AFAD203E00B780370401C491C521EEB
:10011000F9D27047D2B201E00270401C491EFBD2F6
:1001200070470022F6E710B513460A460446194602
:10013000FFF7F0FF204610BDF8B502464A40D40F45
:1001400042004B0052085B089A4202D2024608461F
:1001500011464A0023D0C30D4A00DDB2120EAD1A7B
:10016000202D35DA49020126490AF6058A19002CA4
:1001700000D0524220214F1B1146B9402A4110188D
:10018000C20D9A4221D0002C17D0012D08DCDA05CF
:10019000801AD20F8019D207DBB200F05DF9F8BDEA
:1001A000DA05801A012340001B06C01880185A4245
:1001B0008018CA0F1043490007E04908C2071143DD
:1001C000DA05801A80194008801800F03DF9F8BD62
:1001D00061000122511A001BF7E70122D2075140AA
:1001E000AAE70122D2075040A6E7024670B54A406E
:1001F000D30FDB0740002DD04A002AD0010E140E89
:10020000000212020919400A520A8418E501044644
:100210005443000A120A2E045043A4194219200C18
:10022000C543AA18120C0125AD03521C5219120421
:100230007F39240400D0521C104301D44000491ED1
:10024000C2B20C06C0092018401C4008802A02D007
:1002500003E0002070BD40084000002900DA0020C3
:10026000184370BD70B502464A40D50F40004A00A1
:10027000ED0740085208002814D0002A12D0C40DFF
:10028000D30D41020120C0055202490A520AE41A64
:10029000091812187D34914201D3641C00E0490012
:1002A000002C01DA002070BD0023914201D3891A8D
:1002B0000343400849000028F7D100290AD09142A1
:1002C00002D10121C90705E0914201D2012101E0DB
:1002D0000121C943E005C018401900F0B5F870BD10
:1002E0000122D207002800DB101A002900DB511A76
:1002F000814201D201207047002070470122D207BD
:10030000002800DB101A002900DB511A814201D9B4
:10031000012070470020704710B500229623114637
:1003200000F09AF810BDC20F410040020123400ABC
:10033000DB05D207090EC0187F2901DA00207047BB
:10034000962903DC9623591AC84001E09639884063
:10035000002AF4D04042704770B50446002903D00B
:1003600000202022012310E0002801D00020C043FB
:10037000C046C0460DE02546D5408D4205D30D460A
:100380009540641B1D46954040191546521E002D90
:10039000F1DC214670BD000070B5002504462E46F4
:1003A000002911D0002C01DA01254442002901DA8C
:1003B000012649422046FFF7CFFFB54200D0404218
:1003C000002D00D0494270BD002C02DA0121C9077E
:1003D00002E0002C00DD03490846C046C046214625
:1003E00070BD0000FFFFFF7FF0B51FB40646002080
:1003F00082B005464024019100901BE001992246FD
:100400000F46304600F0D4F8049A059B801A9941B3
:1004100010D310461946224600F0BAF8361A8F411A
:100420000197224601200021009F00F0B1F8381802
:100430004D4100902046641E0028DFDC019B00989F
:100440002946324607B0F0BD002904DA401C4900B5
:1004500001D140084000704770B40024050C05D15C
:100460001024000402D1002921D01124050E01D14D
:1004700000020834050F01D10001241D850F01D1B0
:100480008000A41C002801DB4000641C002908D067
:1004900020252E1B0D46F540A14000D00121294307
:1004A000084301061B1B000ADB1D02D5002070BC9F
:1004B0007047DB05181880180029F8DA401C49003D
:1004C000F5D170BC40084000704770B5002801DCD1
:1004D000002070BD410040020126400AF605090EC9
:1004E0008019CA0701D14000491E4D100022114653
:1004F0003F353346CB409B18D418844201D8001BAB
:100500001A464000491C1729F3DD5100814202D2EE
:100510000021C94300E00021E8058018FFF794FF9F
:1005200070BD10B541000DD04100090E962909DCBF
:100530007E290ADC07DB410205D0C00F7F21C007FE
:10054000C905401810BD002010BD9622541A202164
:100550000A1B01469140E040FFF776FFA04010BD26
:100560001CB5094800900948019005460126009CE9
:1005700005E0E36807CC33430C3C98471034AC42A9
:10058000F7D3FFF7A1FD00000C3B00082C3B00084F
:1005900010B5202A04DB0146203A9140002010BD0E
:1005A000914020239C1A0346E3401943904010BD1C
:1005B00010B5202A04DB0846203AD040002110BDA7
:1005C0000B46D340D0402024A21A9140084319463C
:1005D00010BD000080B5002007490122D306C35892
:1005E0000B50001DC028F8D150070449086002F0E4
:1005F00045FA002080BDC0460000002008ED00E064
:10060000F0B581B00124600200F04CF813490020DD
:1006100008601349087013490A78002A1BD1124A4E
:100620001378124D2D78AB4215D0137815786D1CC8
:100630000F4E6E43360C0C277E43AD1B15700C70AD
:100640007B430C49CA580C4CC9184B6889680CC4C8
:1006500021600A49088001B0F0BDC046B8090020F9
:10066000B4090020460200204502002014080020A2
:1006700056150000200400201003002098010020DF
:10068000B0B5044600F0E4F80546601C02D0A4486A
:100690000068041900F0DCF8401BA042FAD3B0BD9A
:1006A0007047000080B504490A68024202D0086021
:1006B000FFF7F6FF80BDC0460C180240F0B58BB0C6
:1006C00008900B68002B00D1A9E00E465548089908
:1006D000814201D0022000E0012005210907002409
:1006E000089A8A42009400D0009008982030019027
:1006F0000A942746224604960DE019436960521C6D
:1007000033681846D04008340A99891C0A913F1D65
:10071000002800D183E00125284690400340EED018
:100720000390099207940693706831461026064399
:10073000122E0DD11C2038400F268640099AD4086D
:10074000A400019B1A59B2430E69864016431E51FC
:100750000597084603210A460A9FBA40089B1C6871
:1007600094434068064602910E40BE4026431E60F8
:10077000D643122815D885402D4A154211D0089D20
:10078000AA683240049BDC680A9B9C401443AC601E
:10079000C206D20F099B9A406C6803998C4314439C
:1007A0006C60089BD9683140049EB2680A9CA240E4
:1007B0000A43DA60C000069B079C059F099A9ED5F4
:1007C000182020400F218140029CA243164DAA18F8
:1007D000146E8C43009981402143116613480168CF
:1007E0007068C20301D5194300E099430F4A1160B4
:1007F00051688203079C01D5194300E099430B4AD5
:1008000051602968C20201D5194300E09943099A51
:1008100029606968800200D56FE799436EE70BB0E5
:10082000F0BDC0460004005000180240801802408D
:100830000600060000690840411E88417047002AF2
:1008400002D0182281507047282281507047000042
:100850001C4800687047C046B0B5002817D0044651
:1008600000680E4901600E49016061684160A1683D
:100870008160FFF7EDFF05462068C168002908D0B8
:10088000FFF7E6FF401B3028F6D90320B0BD01205A
:10089000B0BD074901600020B0BDC046CCCC00000F
:1008A0005555000000680249016000207047C046AD
:1008B000AAAA00001A48006802490A6810180860CD
:1008C0007047C046B009002080B5032000F008F84A
:1008D000002801D0012080BD00F024F8002080BD58
:1008E000B0B505460E4801680124002916D07D20C8
:1008F000C000FFF731FD0146A0480068FFF72CFD5E
:1009000000F0B6FB032D09D8002807D10024E043EE
:100910002946224600F012F8904805602046B0BDF6
:10092000D8000020704700001F21014001208840AE
:10093000014908607047C04600E100E0002805D486
:10094000032203469343094A9A1803E00C2202400B
:10095000074BD2188007C00E8901C9B28140FF231E
:1009600083401068984308431060704700E400E03B
:1009700014ED00E0F0B583B000284AD00D46029097
:1009800073480068012101910840854214D97049DB
:1009900008680124A043284308606E4FFFF758FF02
:1009A00006466B4800682040A84205D0FFF750FF7C
:1009B000801BB842F5D95CE0029B18688107904F14
:1009C0000DD5410704D5072109033A680A433A6067
:1009D0000F2109023A688A43996811433960C007B8
:1009E0001AD15B48006801263040854244D25849FC
:1009F0000868B0430860574CFFF72AFF0546544883
:100A00000068C00738D0FFF723FF401BA042F6D98B
:100A10002FE0012003B0F0BD5968042901987CD86B
:100A20008A0001A39A5897463D0A0008070B000860
:100A3000F90A00081B0B0008130B00083A46083A95
:100A4000126852055DD53868072290430843386024
:100A5000404CFFF7FDFE06463868382101400298F9
:100A60004068C0008142BCD0FFF7F2FE801BA0426C
:100A7000F2D9032003B0F0BD029A1078400706D5E2
:100A80000720000339688143D0680843386038681C
:100A90008006400F06D0386838210840082822D147
:100AA00058480FE0384608380168381F00680004CD
:100AB000400F042800D900208000544A10588904AF
:100AC000490FC840396889093C220A40224989589F
:100AD0001F220A40D0402949086020480068FFF7DB
:100AE000FFFE03B0F0BD38680840102819D17868BF
:100AF000C00721D04448E5E73A46083A1268920117
:100B0000A1D403B0F0BD3A46083A12689203F8D572
:100B100099E77A6D9207F4D595E7BA6D9207F0D50B
:100B200091E73A680A40F003202ACBD03A680A409D
:100B3000182AC7D00020C5E7381F00680004400FFE
:100B4000042800D900208000304908584000B9E747
:100B5000002002408813000004360008DC0000205A
:100B60000648006826490968890A1C220A40044987
:100B700089581F220A40D0407047C046C800002054
:100B8000443600081E4908688006400F06D00868F1
:100B900038221040082811D11A487047081F083918
:100BA000096800680004400F042800D90020800074
:100BB000164A10588904490FC84070470868104009
:100BC000102804D14868C0070DD00F4870470B6843
:100BD00013400120C003202B04D0096811401829BC
:100BE00000D000207047081F00680004400F042850
:100BF00000D9002080000549085840007047C046D1
:100C00000810024000366E01006CDC02F03500086E
:100C1000F0B585B00127002800D1C2E1029703900A
:100C20000078C007FC4C1CD1039C207880073ED480
:100C30002078000769D42078400700D49DE1F64A67
:100C4000906838210140202900D0ABE0D06D8007AA
:100C500000D48FE1E068002800D08BE1002001275C
:100C600089E1A068382202401146103948424841C3
:100C7000E168082A56D0084054D103984768002FED
:100C800008D003988068002855D021690C22914330
:100C9000014321612068052109048F4200D1F0E061
:100CA00001210A04974200D0F3E01043F8E0E74C3A
:100CB000A0683826064010207040E16801273940BE
:100CC000411848424841002E37D0002835D12068CD
:100CD000BE02039A5169002900D1BFE00721C90271
:100CE00088439169014321603802216801432160F2
:100CF000FFF7AEFD05462068304200D0EEE0FFF77A
:100D0000A7FD401B0228F6D9DBE0D04A90683821C5
:100D1000014018292FD1106E80078CD5206A002839
:100D200089D108E02068800300D47DE703984068FB
:100D3000002800D078E7029F33E12068400504D501
:100D400003984069002800D12BE12246BC0250687C
:100D5000BF4901400398C06908435060FFF778FD20
:100D60000546BA480068204257D1FFF771FD401B85
:100D70000228F6D9A5E0106E216A002900D1B6E05C
:100D8000012108431066FFF763FD0546AF48006E7A
:100D9000800700D54FE7FFF75BFD401B03270228C4
:100DA000F4D9FEE001263107D06B0840019006D14E
:100DB000D06B0843D063D06B084004900498009136
:100DC000A74F3868C0050FD4340238682043386014
:100DD000FFF73EFD05463868204205D1FFF738FD94
:100DE000401B0228F7D9AFE00398C768002F974B44
:100DF0000AD000698103890F00D17004032109041E
:100E00001A698A4302431A61D86D052F00D180E028
:100E1000012F00D083E0304386E0002E15D107205B
:100E2000C0028A4C2168814303988069084320608E
:100E3000FFF7A8FEA16889093C220A408549895824
:100E40001F220A40D0408449086084480068FFF7A8
:100E500047FD0028039C00D0A3E0E9E6390288435F
:100E600020601446FFF7F4FC0546784800683042DD
:100E700000D1DDE6FFF7ECFC401B03270228F4D984
:100E80008FE001218A041043206009042068084390
:100E900006E06F4A521E1040206089042068884393
:100EA000206001204604FFF7D3FC0546002F10D038
:100EB0002068304200D0B7E6FFF7CAFC401BC828C4
:100EC000F6D903276DE0FFF7C3FC401B0327C828B2
:100ED00067D85E4800683042F5D1A5E660685C4995
:100EE0000140039AD069084360601446A0E60121DE
:100EF00088431066FFF7ACFC05465448006E800737
:100F000000D498E6FFF7A4FC401B03270228F4D97D
:100F100047E004210843D865D86D304304E0B0436E
:100F2000D865D86D04218843D865FFF791FC054644
:100F30004C4C002F11D04548C06D800711D4FFF7ED
:100F400087FC401BA042F6D900200327039C12E037
:100F5000FFF77EFC401BA042F6D83C48C06D8007DE
:100F6000F6D401980028039C04D13849C86B009A34
:100F70009043C8630120002813D0606A00280FD076
:100F8000324B996838220A40102A0DD10128029F5D
:100F900007D02E48C06801273840A16A884200D196
:100FA0000027F8B205B0F0BD01252A061968914363
:100FB00019606E0602280FD103950292FFF748FCD4
:100FC0000546224B1868304217D0FFF741FC401B02
:100FD00003270228F5D9E4E7D868A843D860FFF7CB
:100FE00037FC0446194800683042D9D0FFF730FC7E
:100FF000001B03270228F5D9D3E7A06A00280DD1EA
:101000005968C90A1C220A4017498958174A91424F
:1010100004D2039FC5E7C04600100240D968039A76
:1010200091430143D9601868029908431860FFF79B
:101030000FFC0446054800683042B1D1FFF708FCB8
:10104000001B03270228F5D9ABE7C0460010024079
:101050000000FFFF04360008C8000020DC0000206C
:101060000070004088130000643600080024F4007B
:10107000401E010E01D0012070470749074A506009
:10108000074803680B4003218907591801600020B5
:101090009060072111607047FFFFFF0010E000E043
:1010A00020ED00E0B0B5002819D005463C35697840
:1010B000002905D100212970044600F051F820468E
:1010C0000221697001680C681F4A914202D01F4BCF
:1010D000994206D170239C438368234302E0012098
:1010E000B0BD23461A4CA14208DD91420CD0194CE8
:1010F000A14209D0184CA14206D022E0134CA142D3
:1011000002D0164CA1421CD103242402A34304693B
:101110001C4380239C43836923430B60C368CB62D9
:1011200043688B62914205D00A4A914202D00A4A32
:10113000914201D140690863012048616870002034
:10114000B0BD1C46E5E7C046002C0140000400404D
:10115000FF2B0140004801400044014000200040B6
:1011600070470068C26801210A43C2608268072391
:101170001340062B02D002680A4302600020704729
:1011800080B501680A69D20707D0CA68D20704D0BF
:101190000122D2430A6100F001F880BD002012490B
:1011A000124A03E01431401C202812D01368C340B7
:1011B000DB07F7D04B68002BF4D04B685B1E4B600D
:1011C000F0D101234B700B78012BEBD18B684B6076
:1011D000E8E707480168491C01600168054A914237
:1011E00001D10021016070478C0500200C0800200F
:1011F0003C020020FFFFFF7FF0B581B000283DD00A
:101200000446054644356878002804D1002028703B
:10121000204600F036F82420687001277E032068FD
:10122000C168B143C160204601F074F82021605CC0
:10123000400611D53A032068436993430096666AD5
:10124000334343619642009E06D103225203436911
:101250009343A26A1A434261F802226813698343E6
:1012600013615069082398435061D0683043D060BF
:101270000020A0646970A97001B0F0BD012001B028
:10128000F0BD7047F0B585B0049304460746443777
:1012900078780223202813D10120002900D189E089
:1012A000002A00D186E001252E03A068B0420AD1B1
:1012B000C80708D02069002805D1284605B0F0BD30
:1012C000184605B0F0BD38780128184672D0019153
:1012D00000200390A06400953D7021207870154691
:1012E000FFF7B6FA029065862586A068B04202D163
:1012F0002069002838D0019E049A08E0002E12D000
:10130000307821684860761C608E401E6086608E52
:10131000002820D0206800680006EFD4551C18D0A3
:10132000002A0FD124E0039B188823490840216834
:1013300048609B1C03930026E6E701680906DDD49C
:10134000002DFAD0FFF784FA049A0299401A9042CD
:101350000ED82068F1E720680068400625D4002AEE
:1013600006D0551C13D018E0002601980390C3E75F
:101370000D2040012168CA688243CA604869009A0A
:101380009043486120207870B870032010E02068F6
:101390000168490609D4002DFAD0FFF759FA0299DD
:1013A000401A04998842F2D9E2E7202078700020A0
:1013B0000021397005B0F0BDFF010000FEE700001C
:1013C00080B503480121FFF735FA4142484180BD0D
:1013D00000140050704770B506460520040702252A
:1013E000002220462946FFF72AFAE72000F06AFE8D
:1013F000304600F067FE012220462946FFF71FFA1B
:1014000070BD70B505200407022500262046294638
:101410003246FFF714FAE62000F054FE304600F0A2
:1014200051FE0646012220462946FFF708FA3046BB
:1014300070BDF0B58BB000F0FBFD0A20FFF720F97E
:1014400005200990040702260025204631462A4639
:10145000FFF7F5F90127384600F034FE284600F082
:1014600031FE204631463A46FFF7E9F9204631463B
:101470002A46FFF7E4F909200A9000F023FE032032
:10148000079000F01FFE204631463A46FFF7D7F995
:10149000204631462A46FFF7D2F9099800F012FE9D
:1014A0000420089000F00EFE204631463A46FFF731
:1014B000C6F93846FFF7E4F8204631462A46FFF7DA
:1014C000BEF9099800F0FEFD742000F0FBFD2046F7
:1014D00031463A46FFF7B3F93846FFF7D1F82046D0
:1014E00031462A46FFF7ABF90720099000F0EAFDE4
:1014F000384600F0E7FD204631463A46FFF79FF9AF
:101500003846FFF7BDF8204631462A46FFF797F9DF
:10151000099800F0D7FD079800F0D4FD2046314629
:101520003A46FFF78CF9204631462A46FFF787F9FD
:10153000384600F0C7FD384600F0C4FD204631466D
:101540003A46FFF77CF9204631462A46FFF777F9FD
:101550000B20079000F0B6FD284600F0B3FD2046B2
:1015600031463A46FFF76BF9204631462A46FFF7E7
:1015700066F90A9800F0A6FD089800F0A3FD204641
:1015800031463A46FFF75BF9204631462A46FFF7D7
:1015900056F90820099000F095FD284600F092FDCC
:1015A0000890204631463A46FFF749F92046314631
:1015B0002A46FFF744F90A9800F084FD099800F0E4
:1015C00081FD204631463A46FFF739F9204631463B
:1015D0002A46FFF734F9099800F074FD284600F018
:1015E00071FD0A90204631463A46FFF728F9204619
:1015F00031462A46FFF723F9079800F063FD384685
:1016000000F060FD204631463A46FFF718F90F20FA
:1016100008990840012800D0D3E30F460225002690
:10162000204629463246FFF70AF98F2000F04AFD8E
:10163000790870200840833000F044FD01272046DF
:1016400029463A46FFF7FBF8204629463246FFF77F
:10165000F6F88720059000F035FD0898C006C00F09
:1016600011210391484000F02DFD204629463A46BD
:10167000FFF7E5F8204629463246FFF7E0F8152047
:10168000099000F01FFD4820019000F01BFD20464E
:1016900029463A46FFF7D3F8204629463246FFF757
:1016A000CEF8652000F00EFD1020089000F00AFD35
:1016B000204629463A46FFF7C2F8204629463246D8
:1016C000FFF7BDF8672000F0FDFC1C2000F0FAFCDD
:1016D000204629463A46FFF7B2F8204629463246C8
:1016E000FFF7ADF86F20049000F0ECFC099800F0D3
:1016F000E9FC204629463A46FFF7A1F8204629464C
:101700003246FFF79CF8752000F0DCFC542000F016
:10171000D9FC204629463A46FFF791F8204629464B
:101720003246FFF78CF87D2000F0CCFCF12000F071
:10173000C9FC204629463A460697FFF780F820461E
:1017400029463246FFF77BF8832000F0BBFCA2203D
:1017500000F0B8FC204629463A46FFF770F82046CC
:10176000294632463746FFF76AF88D2000F0AAFC7A
:10177000B020029000F0A6FC20462946069E324684
:10178000FFF75DF8204629463A46FFF758F89320C0
:1017900000F098FC442000F095FC20462946324693
:1017A000FFF74DF8204629463A46FFF748F89920BA
:1017B00000F088FC019800F085FC2046294632465E
:1017C000FFF73DF8204629463A46FFF738F83046FD
:1017D00000F078FC384600F075FC20462946324679
:1017E000FFF72DF8204629463A46FFF728F80B2048
:1017F00000F068FC0A980009C03000F063FC204645
:1018000029463246FFF71BF8204629463A46FFF79D
:1018100016F80F2000F056FC8B2000F053FC2046F9
:1018200029463246FFF70BF8204629463A460797E5
:10183000FFF705F8039800F045FCBB200A9000F084
:1018400041FC204629463246FEF7F9FF204629464C
:101850003A46FEF7F4FF132000F034FC40263046F1
:1018600000F030FC20462946069F3A46FEF7E7FF87
:1018700020462946079AFEF7E2FF099800F022FC6D
:10188000304600F01FFC204629463A46FEF7D7FFB7
:1018900020462946079E3246FEF7D1FF532000F02E
:1018A00011FC304600F00EFC204629463A46FEF771
:1018B000C6FF204629463246FEF7C1FF572000F0FA
:1018C00001FC582000F0FEFB204629463A46FEF770
:1018D000B6FF204629463246FEF7B1FF592000F0F8
:1018E000F1FB1B2000F0EEFB204629463A46FEF7AE
:1018F000A6FF204629463246FEF7A1FF6D2000F0E4
:10190000E1FB029800F0DEFB204629463A46FEF74E
:1019100096FF204629463246FEF791FF049800F0D4
:10192000D1FB6B2000F0CEFB204629463A46FEF75D
:1019300086FF204629463246FEF781FF712000F0DF
:10194000C1FB4B2000F0BEFB204629463A46FEF77D
:1019500076FF204629463246FEF771FF732000F0DD
:10196000B1FB552000F0AEFB204629463A46FEF773
:1019700066FF204629463246FEF761FF059800F0D3
:10198000A1FB3B2000F09EFB204629463A46FEF78D
:1019900056FF204629463246FEF751FF892000F0C7
:1019A00091FB8C2000F08EFB204629463A46FEF73C
:1019B00046FF204629463246FEF741FFAB2000F0A5
:1019C00081FBDD20099000F07DFB204629463A4648
:1019D000FEF735FF204629463246FEF730FFAD20A0
:1019E00000F070FBC92000F06DFB204629463A4606
:1019F000FEF725FF204629463246FEF720FFAF209E
:101A000000F060FBB720059000F05CFB2046294603
:101A10003A46FEF714FF204629463246FEF70FFFEE
:101A2000B52000F04FFB089800F04CFB20462946FB
:101A30003A46FEF704FF204629463246FEF7FFFEEF
:101A4000059800F03FFBFD2000F03CFB20462946B6
:101A50003A46FEF7F4FE204629463246FEF7EFFEF0
:101A6000B92000F02FFBE92000F02CFB204629468E
:101A70003A46FEF7E4FE204629463246FEF7DFFEF0
:101A80000A9800F01FFBDC2000F01CFB20462946D2
:101A90003A46FEF7D4FE204629463246FEF7CFFEF0
:101AA000BD2000F00FFB284600F00CFB2046294625
:101AB0003A46FEF7C4FE204629463246FEF7BFFEF0
:101AC000BF2000F0FFFA062000F0FCFA204629466D
:101AD0003A46FEF7B4FE204629463246FEF7AFFEF0
:101AE000C12000F0EFFA0E2000F0ECFA2046294663
:101AF0003A46FEF7A4FE204629463246FEF79FFEF0
:101B0000C32000F0DFFA2E2000F0DCFA2046294640
:101B10003A46FEF794FE204629463246FEF78FFEEF
:101B2000CD2000F0CFFA342000F0CCFA2046294630
:101B30003A46FEF784FE204629463246FEF77FFEEF
:101B4000D12000F0BFFA0D2000F0BCFA2046294653
:101B50003A46FEF774FE204629463246FEF76FFEEF
:101B6000099800F0AFFA202000F0ACFA2046294690
:101B70003A46FEF764FE204629463246FEF75FFEEF
:101B8000384600F09FFA384600F09CFA2046294675
:101B90003A46FEF754FE204629463246FEF74FFEEF
:101BA000372000F08FFA082000F08CFA20462946F2
:101BB0003A46FEF744FE02250026204629463246D4
:101BC000FEF73DFEE02000F07DFA304600F07AFAA4
:101BD0000646012220462946FEF731FE7006EAD568
:101BE000022500220A9220462946FEF728FE3726C3
:101BF000304600F067FA102000F064FA0127204612
:101C000029463A46FEF71BFE3046FEF739FD2046D0
:101C100029460A9AFEF713FE052000F053FA7620B3
:101C200000F050FA204629463A46FEF708FE3846AC
:101C3000FEF726FD204629460A9AFEF700FE3046AA
:101C400000F040FA202000F03DFA204629463A46AE
:101C5000FEF7F5FD02250026204629463246FEF70E
:101C6000EEFDFE2000F02EFA304600F02BFA06467C
:101C7000012220462946FEF7E2FD70B20028E9D590
:101C80000225002220462946FEF7D9FD372000F024
:101C900019FA402000F016FA012220462946FEF7E4
:101CA000CEFD02250026204629463246FEF7C7FD16
:101CB000DA2000F007FA304600F004FA0646012266
:101CC00020462946FEF7BBFD70B20028E9D5022563
:101CD000002220462946FEF7B2FD372000F0F2F937
:101CE000802000F0EFF9012220462946FEF7A7FDEB
:101CF00002260025204631462A46FEF7A0FDFE209A
:101D000000F0E0F9284600F0DDF9074601252046FD
:101D100031462A46FEF793FD78B20028E8D5022620
:101D20000027204631463A46FEF789FD372000F06D
:101D3000C9F9384600F0C6F9204631462A46FEF772
:101D40007EFD204631463A46FEF779FD052000F03B
:101D5000B9F9742000F0B6F9204631462A46FEF75C
:101D60006EFD204631463A46FEF769FD284600F0F2
:101D7000A9F9384600F0A6F9204631462A46FEF772
:101D80005EFD204631463A46FEF759FDE72000F059
:101D900099F9FF2000F096F9204631462A46FEF7D1
:101DA0004EFD204631463A46FEF749FD732000F0CD
:101DB00089F94E2000F086F9204631462A46FEF782
:101DC0003EFD28460BB0F0BDF0B581B00D4606468D
:101DD000052004070227002220463946FEF72FFD82
:101DE000384600F06FF9002D06D0002000F06AF9A7
:101DF0003070761C6D1EF8D1022101222046FEF7BC
:101E00001EFD01B0F0BDF0B581B006460520040707
:101E100002250027204629463A46FEF710FD7006A7
:101E2000000E00F04FF9384600F04CF9064601224A
:101E300020462946FEF703FD304601B0F0BDF0B55F
:101E400081B014460E4607460520050702210022F0
:101E50002846FEF7F4FC7806000E00F033F9002C5B
:101E600006D0002000F02EF93070761C641EF8D1E8
:101E7000022101222846FEF7E2FC01B0F0BDF0B5D8
:101E800081B0052634070096022500272046294602
:101E90003A46FEF7D4FC304600F014F9742000F006
:101EA00011F90126204629463246FEF7C8FC204695
:101EB00029463A46FEF7C3FCE72000F003F9FF206D
:101EC00000F000F9204629463246FEF7B8FC2046CD
:101ED00029463A46FEF7B3FC009800F0F3F8762066
:101EE00000F0F0F8204629463246FEF7A8FC01B083
:101EF000F0BD70B5064605200407022500222046E5
:101F00002946FEF79CFC732000F0DCF8304600F018
:101F1000D9F8012220462946FEF791FCFFF7AFFFD2
:101F200070BDF0B581B00526340700960225002764
:101F3000204629463A46FEF782FC304600F0C2F8B9
:101F4000742000F0BFF80126204629463246FEF7ED
:101F500076FC204629463A46FEF771FCE72000F061
:101F6000B1F8FF2000F0AEF8204629463246FEF7D1
:101F700066FC204629463A46FEF761FC009800F0D0
:101F8000A1F8752000F09EF8204629463246FEF75B
:101F900056FC01B0F0BDF0B583B00D4606460527EE
:101FA0003C0702210191002202922046FEF747FCE5
:101FB000384600F087F8742000F084F801222046AB
:101FC000019F3946FEF73BFC20463946029AFEF750
:101FD00036FC032000F076F8002D05D0307800F0B4
:101FE00071F8761C6D1EF9D1022101222046FEF700
:101FF00026FC03B0F0BDF0B581B00E4607460520C3
:1020000004070225002220462946FEF718FC780026
:10201000401CC0B200F056F8304600F053F80122E0
:1020200020462946FEF70BFC01B0F0BD70470000CA
:10203000F0B589B0002008900790069005900490B4
:10204000FFE71F480168012211430160006810404A
:1020500003900398FFE7FFE7FFE719480168202294
:10206000114301600068104002900298FFE7FFE70B
:10207000032604960124059406940225079505205D
:102080000007019004AF3946FEF718FB08200490C2
:102090000594069407952B483946FEF70FFB0496E6
:1020A000002005900690079526483946FEF706FB66
:1020B000019829462246FEF7C2FB09B0F0BDC04692
:1020C00034100240F0B583B00546052000070190AA
:1020D0000026019C02950127002220463946FEF782
:1020E000AEFB00BF00BF00BF00BF00BFE8B2C20927
:1020F0000821144D2846FEF7A2FB204639463A46F1
:10210000FEF79DFB00BF00BF00BF00BF00BF022164
:102110002846FEF78FFB411E8841029949000D18A1
:10212000701C072E0646D5D3012100220198FEF728
:1021300086FBE8B200BF00BF00BF00BF00BF03B016
:10214000F0BDC04600140050704780B5FEF7B2FBEA
:1021500080BD000008480168084A0A40084909682B
:10216000084B19405118C918491C01600120C006CC
:10217000054908607047C046041002400000FFFF98
:10218000040FFF1FFF1F000008ED00E080B50248AC
:10219000FEF7F6FF80BDC0464C05002015480168DB
:1021A0000120C2430A6114490A78002A09D1134A5E
:1021B00013681B09182B03D81068401C106000E03E
:1021C00008700F480178012912D10E490A88521C63
:1021D0000A80098805290BD30B490A7A002A01D104
:1021E000282200E018220B684968995000210170EC
:1021F0007047C04614010020B4090020B80900202F
:10220000460200209801002010030020F0B583B0A2
:10221000394800680169C90734D00121C943016107
:102220007D208100354C2088401C0291FEF794F8F7
:102230002180FF25F43532480021324A324B07E035
:102240002824C66807693751091D183020290FD086
:10225000847A012CF8D154580688A419AC4201DCC8
:10226000264600E0E6185650AC42E9DD1824E8E7BF
:10227000264C2088401CC821FEF76EF8218020885B
:10228000002801D003B0F0BD00261D4A02E0183638
:10229000C02EF7D09419A07A0128F8D1207901280E
:1022A000F5D1E088401CE080E188A81C48432189E2
:1022B000FEF752F880B20299884200D308464000E7
:1022C000134A125AA78A60880190C01B00B250437B
:1022D000FEF762F80299381880B2884200D30846A7
:1022E000074A9053E08821898842D0D301989053BF
:1022F00000202071CBE7C0465401002010010020CF
:1023000060030020F00000200CFEFFFFEC00002026
:1023100084360008F0B581B0044601214A03006804
:1023200003699343E2681A4302612269C368294D35
:102330001D40A368134362691A432A43C260CD0259
:102340004169A943E66931434161032109024269B8
:102350008A43A16911434161FEF702FC014619203D
:1023600048436168AE4218D14900FDF7F5FF0646C3
:1023700064273946FDF7F0FF054618486843801981
:10238000C00032303946FDF7E7FF07210140F8224F
:10239000024050002A01801816E08900FDF7DCFF9A
:1023A000064664273946FDF7D7FF05460A486843C5
:1023B0008019000132303946FDF7CEFF0F21014070
:1023C000F02202402801101840182168886001B0EE
:1023D000F0BDC046F3E9FFFF9CFFFF0F9CFFFF1F0E
:1023E000F0B583B01D480468A0060BD5FF201C493A
:1023F0000A5C531CDEB21B4D2D686D689E4201D1F4
:102400000B548D54E00603D4200718D403B0F0BD5C
:102410000025029513480068016802914068029007
:10242000FF260F4FB85D0299D4490968002903D0EF
:10243000002801D00A488847BD552007E6D5FF206F
:10244000074900220A540192064800680168019178
:1024500040680190019803B0F0BDC04600380140CB
:10246000150800201809002080B500F089F90548FA
:1024700000F080F9044800F059F904A001F058F880
:1024800080BDC0467D2D0008A52C00086170705FDE
:102490005345545445525F696E697400F0B587B076
:1024A000022901D2002591E00546FC240C4010468B
:1024B0000E46FDF731FF0746002C00964FD00295DF
:1024C00000252E4606970194059602984419405D12
:1024D000FDF722FF3946FDF780FE04906078FDF796
:1024E0001BFF3946FDF779FE0646A078FDF714FF7D
:1024F0003946FDF772FE0746E078FDF70DFF0699B5
:10250000FDF76BFE039030463146FDF76EFE064642
:1025100004980146FDF769FE3146FDF70DFE0446BD
:1025200038463946069FFDF760FE2146FDF704FE5A
:10253000044603980146FDF758FE2146019CFDF72D
:10254000FBFD01460598FDF7F7FD06462D1DA5424A
:10255000BAD3E8B20099029D884205D317E0002063
:1025600031460646884212D20C1A2D182878FDF7FB
:10257000D3FE3946FDF731FE0146FDF736FE314602
:10258000FDF7DAFD0646641E6D1C002CEED10098A6
:10259000401EFDF7C1FE01463046FDF763FE01F027
:1025A00011F800F0D5FF044600252946FDF798FEF6
:1025B00000280BD107492046FDF7A0FE002801D0D6
:1025C000FF2503E02046FDF7AEFE0546284607B08E
:1025D000F0BDC04600007F4380B500F065F800798B
:1025E000FFF787FC00F060F8017902A000F038FDE9
:1025F00080BDC0462D2D2D2D7377697463685F6390
:1026000068616E6E656C3A25642D2D2D2D0A0000D3
:102610001A480021017022480170194801700148D0
:1026200001707047B0040020F0B581B013490878FC
:10263000002820D0401E0870114B1878411C0F2232
:102640000A401A70164909780029EFD0C0000D49D8
:102650000C5C081845680027124E05E0361D7F1CEB
:102660000F4800788742E1D23268002AF6D020462F
:1026700029469047F2E701B0F0BDC046B104002002
:10268000B2040020BC01002010B505490A78072AD1
:1026900004D89300034CE050501C087010BDC04695
:1026A000440200209C01002000487047B80200202E
:1026B00010B582B00C4803210C4A0124A302026029
:1026C00041608360FEF7C8F8002803D008A00CA181
:1026D00000F0C6FC00947D2081000D4A00200346D6
:1026E00000F07CF802B010BDE00000200030004097
:1026F0005B232573235D204552524F52210A00006F
:102700006170705F697764675F696E69740000006B
:102710006D2A000880B5FFF7A7FE80BD80B502488E
:10272000FFF7B2FF80BDC046D52B00080149086005
:102730007047C0464002002080B50D490A78521CFF
:102740000A704021435C1B185B1E1A70415CFFF746
:1027500022FCFFF7E6FBFEF733FE0028FBD0FFF775
:10276000E0FBFEF72DFE0028FBD0FFF7DAFB80BD73
:102770000D030020014908607047C046480500204D
:10278000F0B587B0AB4801680226314301600168AB
:1027900031400291029901680127394301600068C4
:1027A000384002900298059600200190049003970B
:1027B000402002900520040702AD20462946FDF77F
:1027C0007DFF0596019804900397202002902046F3
:1027D0002946FDF773FF07B0F0BDC046F0B51F28CE
:1027E00015D8059C142545433D4E771972B679607E
:1027F000B96000217970611E8C417455FA603B61AB
:1028000001218140354802680A43026062B6F0BD8A
:10281000F0B581B0324820210025456085604570C3
:102820000570491E14300029F6D1FEF799F90121EF
:10283000CE03164F3A6832433A60154C154A22606F
:10284000A560E16025616561A5617D21C900FDF795
:1028500083FD401E6060386830400090009820463C
:10286000FEF720FC002803D0D0480B4900F0F8FB0D
:102870001320FEF759F80648FEF773FC002803D032
:10288000CA48054900F0ECFB01B0F0BD4010024021
:102890004C05002000200040FB3A000870B50F4CAA
:1028A0002068002819D00E4D1035002603E014359D
:1028B000761C202E11D02068F040C007F7D02846A3
:1028C0000F3801780129F2D100210170281F016819
:1028D0000029ECD028688847E9E770BD0C08002083
:1028E0008C05002080B50A4601460120002905D04C
:1028F000002A03D051485C4BFEF7C4FC80BDC046A3
:10290000F0B58BB000240A940994089407940694B7
:10291000484908680226304308600868304005903E
:1029200005980868304308600868304005900996AB
:1029300001250895079604200490069005980A94AE
:102940003D4806AF3946FDF7B9FE08200A900796C4
:1029500001952802069038483946FDF7AFFE0498E5
:102960000A9009960895079680200690324D2846D1
:102970003946FDF7A3FE04980A900796402006907A
:1029800028463946FDF79AFE019DA803294AD168D9
:102990000143D1601746294E0C220492E1214B02DB
:1029A000039327491AC634607460B260F968014025
:1029B000069106980C3E3046FEF71EFC1B27384653
:1029C00021462A46FDF7BAFF3846FDF7ADFF3068CD
:1029D000C168202202921143C160C16810273943A7
:1029E000C1606804134A9168014391601D4D154907
:1029F000296003996960AC60EC602C61049969619D
:102A000091680140069106982846FEF7F5FB1C26C2
:102A1000304621462246FDF791FF3046FDF784FF00
:102A20002868C168029A1143C160C1683943C16016
:102A30000BB0F0BD34100240000400501809002013
:102A4000003801400044004010B582B0044601A99E
:102A5000087004480122C24BFEF714FC204602B065
:102A600010BDC046640900208813000080B50248EC
:102A7000FDF718FF80BDC046E000002090B0FDF7D4
:102A800023FF05AD2C212846FDF74BFB00260B96B6
:102A9000012420020A900A200590049603960296CB
:102AA0000196404800680D9406960F9602270E97EF
:102AB00008963D490140E00308180C902846FEF7AF
:102AC000A7F8002803D03948394900F0C9FA03961D
:102AD000029707200190A003049001A82146FDF76A
:102AE00049FF002803D03148314900F0B9FAFEF718
:102AF000A0FCFF20FEF76FFCFFF702FFFFF788FE48
:102B0000FFF7D6FDFFF784FDFFF708FEFFF702FE93
:102B1000FFF7B5F9FFF7C8FD0079FFF7EAF9FFF70E
:102B2000C3FD017923A000F09BFA254C254F26A573
:102B300007E0FEF766FC40B200282FD4FF20FEF726
:102B40004AFCFFF7ABFEFFF76FFD00F07FF90028AE
:102B500006D000F07BF90028F3D000F07BF9F0E715
:102B6000FEF72EFC0028ECD0FEF74BFCC007E0D0AF
:102B7000402620463146FFF727F9A6553F20215C25
:102B800038788842DAD03970284600F069FA10485F
:102B900001680029D2D020468847CFE7FFF76FF9B8
:102BA000CCE7C046100FFF1FFF1F00006E3A000861
:102BB0007D3A00086368616E6E656C3A25640A00B0
:102BC000CC0200200D0300207365713A25640A00D1
:102BD00040020020F0B581B004284FD1FFF764FD1A
:102BE00005464078A978264C00272771EA7862715B
:102BF0006A79E771A271AA792272A7706170207058
:102C0000E770E87960720B26A6720120FFF771F970
:102C100020460B3029463246FDF76AFA19480178FA
:102C20004A1C3F2162544021615402702046FFF744
:102C3000B2F9FFF776F9FEF7C3FB0028FBD0FFF7E8
:102C400070F9FEF7BDFB0028FBD0FFF76AF90E48CC
:102C50000EA100F005FA114DE15D284600F000FAE2
:102C60007F1C162FF8D10A2000F05AFC0023009395
:102C70007D20C10001200A4AFFF7B0FD01B0F0BD80
:102C80001C0300200D030020E33A00085265717513
:102C90006573745F74785F6368310000E83A000818
:102CA000D9250008F0B581B0014624480278244BAC
:102CB000002A00D0103340241C6001256A400270B5
:102CC00008790D2823D10878204E002434704A78E2
:102CD0001F4B1C60C723DB431E4F3B600002801864
:102CE0001D4A1080487A097A090208181B49088091
:102CF000FFF7C5F83570009404201949194A234696
:102D0000FFF76CFD18A000F013FC01B0F0BD0D4CF6
:102D10000D4820608E7A201D32460F32D5B22A46E9
:102D2000FDF7E6F90D20605560190A214170113652
:102D3000F1B22046FFF7D6FD01B0F0BD47020020FA
:102D400018000050B4040020AC8502403D0500206E
:102D500010080020CC0000209401002096010020E3
:102D600088130000612F0008727373695F656E61DC
:102D7000626C6564203D207472756500F0B581B0A9
:102D80000178C4788678AC2914D001293AD14278E8
:102D9000022A0DD1032E0BD12448202101602448A2
:102DA0000621FFF79FFD23A000F0C2FB01B0F0BD9C
:102DB000AC2927D14178852924D10746124D4121DC
:102DC0002846FDF7AEF9042E15D0012E07D0002EAF
:102DD00018D1381D2146FFF785FD01B0F0BD391D22
:102DE00028462246FDF784F9402028542846FFF75C
:102DF000A3FC01B0F0BD3879FFF77BF8397903A067
:102E000000F02EF901B0F0BDFC0400202D2D2D2D79
:102E100020737769746368206368616E6E656C5BAC
:102E200025645D202D2D2D2D0A0000001800005076
:102E3000D00000202D2D2D2D636F6E6E65637420E4
:102E4000746F20736F66742D2D2D2D0073480078DC
:102E50007047C046F0B581B03A48007801286ED17D
:102E600039480068002803D1C720C04337490860AB
:102E700072B646252846FEF7C6FF06468021014366
:102E80002846FFF7B8F8C02131432846FFF7B3F8CA
:102E90007E206F46022439462246FEF7D0FF7F216E
:102EA00031403E787F782846FFF7A5F83802801930
:102EB00027490143C81C801062B624490A6882422F
:102EC00000DA0860204F3868421C3A60FF22F43272
:102ED000904234DB1F480A2282710D224271032284
:102EE000C270847085224270AC2202700968CA17D1
:102EF00051408C1A04710721FFF7F4FC6420164A34
:102F0000135C632BE1B215D8D454D36E5B18D3662F
:102F1000135C6525002B08D0565DB14200D2545594
:102F20006625555DA94201D802E0545566255455E1
:102F30005B1C135409A000F093F80020386001B026
:102F4000F0BDC0463D05002010080020CC00002048
:102F500000C0FFFF3E0500204802002025640A0053
:102F6000F0B589B027A000F0E3FA2C4800260670DF
:102F7000FEF785FF64202A4C255CE06E2946FDF7AC
:102F8000EBF96727E055C2B220462946FFF786FADB
:102F90000246682103916054E15D66200190255C42
:102FA00065200290235C00921EA02A4600F058F88B
:102FB00004A8C6718671467108210171C6708670B9
:102FC00025490988417004228272244A128842727B
:102FD000E35DC372019BE35C0373090A0170110A8C
:102FE00001720A2101740D21C1730299615C417360
:102FF0000399615C81731121FFF774FCE6666666D4
:1030000009B0F0BD727373695F656E61626C65646F
:10301000203D2066616C7365000000003D050020C6
:10302000480200206D65616E2076616C75653A25F9
:1030300064206D696E5F76616C75653A2564206DFC
:1030400061785F76616C75653A2564207374645F9E
:103050006465763A25640A009401002096010020F8
:103060000FB410B503A9044B044A029800F01EF8EF
:1030700010BC08BC04B01847492A0008C000002052
:1030800002E008C8121F08C1002AFAD17047704731
:10309000002001E001C1121F002AFBD1704700008F
:1030A0000149086070470000C4000020FFB591B0DE
:1030B0000F460546002606E025280AD0149A1399E3
:1030C00090476D1C761C28780028F5D1304615B045
:1030D000F0BD002400940121F34A029400E004436F
:1030E0006D1C2B780846203B98401042F7D1287879
:1030F0002A280ED0022128780246303A092A15D80B
:10310000009A0A235A43303A80180C436D1C0090F1
:10311000F1E701CF0090002805DA012040030443C5
:10312000009840420090022004436D1C28782E280D
:1031300015D10420044368786D1C2A280AD101CFD8
:103140006D1C02900BE002990A225143303940185D
:103150006D1C02902878014630390929F3D9287866
:103160006C2810D006DC4C281AD068280ED06A28AB
:1031700017D104E0742813D07A2812D110E001206E
:10318000400504430CE00121090501E00321090584
:103190000C436978814203D10120000524186D1C7D
:1031A0006D1C287803906E281ED00CDC632831D06B
:1031B00004DC00288AD0582811D1B2E064287BD0E2
:1031C00069280CD178E073282DD004DC6F2870D0EA
:1031D000702804D1A7E075286CD078286BD0149A99
:1031E00013999047761C62E06002400F022807D0D6
:1031F00003280AD0042838680AD006603F1D56E02C
:103200003868F11706604160F8E738680680F5E72E
:103210000670F3E73878694608740020487404A8FB
:103220000390012003E0386803900020C0433F1D55
:1032300061070FD5002101E00199491C029A019113
:10324000914213DA8142F7DB019A0399895C0029E4
:10325000F2D10BE0002101E00199491C019181426A
:10326000FADB019A0399895C0029F5D1019900984C
:10327000139A401A00902146149B00F03BF90199E3
:103280008019461807E0039803990078491C0391B8
:10329000149A139990470198401E0190401CF2D156
:1032A0002146149B139A009800F014F986196D1C9E
:1032B00009E741E033E034E00A2000210490059161
:1032C0006002410F022905D001CFC217944603299D
:1032D00005D007E0FF1DFF08FF0003CF06E000B2A6
:1032E000C2179446042902D140B2C1178C4600226D
:1032F0006146944506DA0A460021404291418C46D7
:103300002D2102E0210504D52B216A4611760121E9
:1033100003E0E10701D02021F7E7019154E00A2002
:103320000BE0102009E01020049000210420044349
:1033300008200591029003E00820002105910490E7
:103340006002410F022905D001CF002294460329D3
:1033500006D006E0FF1DFF08FF0003CF8C4603E008
:1033600080B2042900D1C0B20021019121072BD5E0
:103370000399702906D0049A1021059B4A401A43EC
:1033800005D00EE040216A461176012108E0614631
:10339000014306D030216A46117603995176022105
:1033A0000191049A0821059B4A401A430CD16146B9
:1033B000014301D1610707D530216A461176012109
:1033C00001910299491E02910399582904D037A10D
:1033D00003910FA90F910DE039A1F9E76146059B13
:1033E000049AFDF701F8039B8C469B5C0F9A521ED2
:1033F0000F92137061460143F0D10F9807A9081A84
:1034000020300390600704D5012000048443029813
:1034100001E0012002900399884201DD401A00E09A
:10342000002041180290019809180098401A009055
:10343000E00306D42146149B139A009800F05AF832
:1034400086190020049008E006A9085C149A1399D4
:1034500090470498401C761C049001998842F3DB45
:10346000E0030CD52146149B139A009800F042F813
:10347000861904E0149A302013999047761C02991B
:10348000481E02900029F5DC08E00F980F9900789B
:10349000491C0F91149A13999047761C0399481E62
:1034A00003900029F1DCFBE60928010030313233BA
:1034B0003435363738396162636465660000000070
:1034C000303132333435363738394142434445465A
:1034D00000000000F8B5044600251E461746880483
:1034E00004D405E039462020B0476D1C641EF9D590
:1034F0002846F8BDFFB50446002581B01E46C80326
:1035000001D5302700E02027880404D505E038469F
:103510000399B0476D1C641EF9D5284605B0F0BD6F
:1035200010B50249FFF790FA10BD0000C00000205E
:1035300010B5044601E0FFF787FA2078641C0349C0
:103540000028F8D10A20FFF77FFA10BDC000002044
:1035500070B50546FCF7E5FF044601462846FCF732
:103560003CFE7F263F22BF23FF21F60512061B06E5
:103570000906002D0CDA984202D343008B420CD985
:10358000904219DD4000884211D915E0044613E04D
:10359000984207D943008B4204D831462046FCF7B5
:1035A0001CFEF3E7904207DB4000884204D8314616
:1035B0002046FCF7C1FDE9E760004008E90FC907B4
:1035C000084370BD70B50546FCF77FFF4100044617
:1035D000FF204908C005411AC90F07D069004908F2
:1035E000401AC00F02D10120FFF75AFD204670BDDE
:1035F00000093D0000127A000024F40040865101C9
:1036000000366E0100000000000000000000000015
:1036100000000000000000000000000000000000AA
:103620000000000001000000020000000300000094
:103630000400000006000000070000000800000071
:103640000900000000000000000000000000000071
:103650000000000001000000020000000300000064
:103660000400000000093D0000127A000024F4006C
:103670004086510100366E0100093D0000093D0001
:1036800000093D00000001000200030004000500E5
:1036900006000700080009000A000B000C000D00DE
:1036A0000E000F001000110012001300140015008E
:1036B00016001700180019001A001B001C001D003E
:1036C0001E001F00200021002200230024002500EE
:1036D00026002700280029002A002B002C002D009E
:1036E0002E002F003000310032003300340035004E
:1036F00036003700380039003A003B003C003D00FE
:103700003E003F00400041004200430044004500AD
:1037100046004700480049004A004B004C004D005D
:103720004E004F005000510052005300540055000D
:1037300056005700580059005A005B005C005D00BD
:103740005E005F006000610062006300640065006D
:1037500066006700680069006A006B006C006D001D
:103760006E006F00700071007200730074007500CD
:1037700076007700780079007A007B007C007D007D
:103780007E007F008000810082008300840085002D
:1037900086008700880089008A008B008C008D00DD
:1037A0008E008F009000910092009300940095008D
:1037B00096009700980099009A009B009C009D003D
:1037C0009E009F00A000A100A200A300A400A500ED
:1037D000A600A700A800A900AA00AB00AC00AD009D
:1037E000AE00AF00B000B100B200B300B400B5004D
:1037F000B600B700B800B900BA00BB00BC00BD00FD
:10380000BE00BF00C000C100C200C300C400C500AC
:10381000C600C700C800C900CA00CB00CC00CD005C
:10382000CE00CF00D000D100D200D300D400D5000C
:10383000D600D700D800D900DA00DB00DC00DD00BC
:10384000DE00DF00E000E100E200E300E400E5006C
:10385000E600E700E800E900EA00EB00EC00ED001C
:10386000EE00EF00F000F100F200F300F400F500CC
:10387000F600F700F800F900FA00FB00FC00FD007C
:10388000FE00FF0000010101020103010401050126
:1038900006010701080109010A010B010C010D01D4
:1038A0000E010F0110011101120113011401150184
:1038B00016011701180119011A011B011C011D0134
:1038C0001E011F01200121012201230124012501E4
:1038D00026012701280129012A012B012C012D0194
:1038E0002E012F0130013101320133013401350144
:1038F00036013701380139013A013B013C013D01F4
:103900003E013F01400141014201430144014501A3
:1039100046014701480149014A014B014C014D0153
:103920004E014F0150015101520153015401550103
:1039300056015701580159015A015B015C015D01B3
:103940005E015F0160016101620163016401650163
:1039500066016701680169016A016B016C016D0113
:103960006E016F01700171017201730174017501C3
:1039700076017701780179017A017B017C017D0173
:103980007E017F0180018101820183018401850123
:1039900086018701880189018A018B018C018D01D3
:1039A0008E018F0190019101920193019401950183
:1039B00096019701980199019A019B019C019D0133
:1039C0009E019F01A001A101A201A301A401A501E3
:1039D000A601A701A801A901AA01AB01AC01AD0193
:1039E000AE01AF01B001B101B201B301B401B50143
:1039F000B601B701B801B901BA01BB01BC01BD01F3
:103A0000BE01BF01C001C101C201C301C401C501A2
:103A1000C601C701C801C901CA01CB01CC01CD0152
:103A2000CE01CF01D001D101D201D301D401D50102
:103A3000D601D701D801D901DA01DB01DC01DD01B2
:103A4000DE01DF01E001E101E201E301E401E50162
:103A5000E601E701E801E901EA01EB01EC01ED0112
:103A6000EE01EF01F001F101F201F301F4015B233A
:103A70002573235D204552524F52210A0041505078
:103A80005F53797374656D436C6F636B436F6E66E0
:103A90006967006D795F6465766963655F61646419
:103AA000723A25303458207461675F6465766963C3
:103AB000655F616464723A253034580A006D795F3D
:103AC000726F6F6D5F616464723A25303458207391
:103AD00072635F726F6F6D5F616464723A25303438
:103AE000580A0025733A20002530325820006170B2
:103AF000705F736176655F726567005F5F627370A8
:103B00005F74696D65725F696E697400303B0008AF
:103B100000000020E000000080300008103C000899
:103B2000E0000020E00C00009030000800000000E1
:103B30000000000000000000000000000000000085
:103B40000000000000000000000000000000000075
:103B50000000000000000000000000000000000065
:103B60000000000000000000000000000000000055
:103B70000000000000000000000000000000000045
:103B80000000000000000000000000000000000035
:103B90000000000000000000000000000000000025
:103BA0000000000000000000000000000000000015
:103BB0000000000000000000000000000000000005
:103BC00000000000000000000000000000000000F5
:103BD00000000000000000000000000000000000E5
:103BE00000000000000000000000000000000000D5
:103BF000000000000000000000127A0038FFFFFF04
:103C0000AC85FF0102030000010000000400000079
:04000005080000C12E
:00000001FF
