:020000040800F2
:10000000980E0020D5000008411C0008291C00089B
:1000100000000000000000000000000000000000E0
:10002000000000000000000000000000DD2A0008C1
:100030000000000000000000C1290008DF2A0008BD
:10004000E7000008E7000008E7000008E7000008F4
:10005000E7000008E7000008E7000008B703000811
:1000600000000000E7000008E700000800000000B2
:10007000E7000008E7000008E700000800000000B3
:10008000312B0008E700000800000000212B0008C9
:1000900000000000E7000008E7000008E700000893
:1000A00000000000E7000008E7000008052D000838
:1000B000E700000800000000E70000080000000062
:1000C0000348854600F0BCF800480047ED020008F0
:1000D000980E00200448804704480047FEE7FEE7EA
:1000E000FEE7FEE7FEE7FEE7E92A0008C100000898
:1000F00003460B439B0703D009E008C9121F08C041
:10010000042AFAD203E00B780370401C491C521EEB
:10011000F9D27047D2B201E00270401C491EFBD2F6
:1001200070470022F6E710B513460A460446194602
:10013000FFF7F0FF204610BD30B50446002003460F
:1001400000E05B1C934203D2E05CCD5C401BF8D026
:1001500030BD70B50446002903D0002020220123C1
:1001600010E0002801D00020C043C046C0460DE08A
:100170002546D5408D4205D30D469540641B1D464E
:10018000954040191546521E002DF1DC214670BDE8
:1001900070B5002504462E46002911D0002C01DA46
:1001A00001254442002901DA012649422046FFF791
:1001B000D0FFB54200D04042002D00D0494270BD72
:1001C000002C02DA0121C90702E0002C00DD0349FE
:1001D0000846C046C046214670BD0000FFFFFF7FB5
:1001E000F0B51FB40646002082B0054640240191B8
:1001F00000901BE0019922460F46304600F048F877
:10020000049A059B801A994110D31046194622463C
:1002100000F02EF8361A8F41019722460120002166
:10022000009F00F025F838184D4100902046641ECC
:100230000028DFDC019B00982946324607B0F0BD5C
:100240001CB5094800900948019005460126009C0C
:1002500005E0E36807CC33430C3C98471034AC42CC
:10026000F7D3FFF731FF0000F45C0008145D0008CD
:1002700010B5202A04DB0146203A9140002010BD31
:10028000914020239C1A0346E3401943904010BD3F
:1002900010B5202A04DB0846203AD040002110BDCA
:1002A0000B46D340D0402024A21A9140084319465F
:1002B00010BD30B58C180278401C13071B0F01D1FC
:1002C0000378401C120906D10278401C03E005782F
:1002D0000D70401C491C5B1EF9D101E00B70491CDC
:1002E000521EFBD1A142E6D3002030BD80B50020D4
:1002F00007490122D306C3580B50001DC028F8D16E
:1003000050070449086004F0C1F8002080BDC046D1
:100310000000002008ED00E0B0B50146406A826BA5
:1003200050231A4204D0006B026B08469047B0BDC0
:1003300001214A02836B134383630268D3681B0560
:100340009B0F02D000F04EF9B0BD437E002BF9D1D7
:1003500013681B07F6D593685B070AD40346383346
:1003600054680C25AC435460FF2402341A68A2433D
:1003700006E0826B20231343836303463C33C26B46
:100380000A431A6000F02EF9B0BD80B5406A816B57
:1003900040220A438263C16B04220A43C26300F015
:1003A00023F980BD80B5406A00F01DF980BD80B59D
:1003B00000F036FB80BD7047F0B581B004463420B4
:1003C000205C012802D1022001B0F0BD264634365F
:1003D0000120307022689368A16BDB0723D1812054
:1003E00040008143881CA063D768D06803218843FC
:1003F000D06001200090C0079368034393600F40D2
:1004000000F034FE05462068816800290ED500F012
:100410002DFE401B0328F6D3A06B102101430220C0
:100420008143009809E02022114306E0C168394366
:10043000C160A16B02208143002000223270A163C1
:1004400001B0F0BDF0B589B004460025234E20462A
:10045000FFF7B2FF00282FD17068400204A948516D
:100460002D1D142DF3D104A8051D00220BE00298C8
:1004700001990818910004AA039E565004602D1D8E
:10048000052B1A461BD0900004A9029001910C582C
:10049000531C032A03942846194604D9E7E7491C4C
:1004A00005293246E3D080C8BC420E4600DC164621
:1004B000BC42F4DB3C46F2E7012009B0F0BD0698EF
:1004C0004012064AD060906810610120C003116894
:1004D00001431160002009B0F0BDC0464424014032
:1004E000F0B583B00246002402943420105C012849
:1004F00002D1022003B0F0BD164634360120307020
:100500001768BB685B0715D4019660C9012000908D
:10051000A840304B08399E4213D1B96A8143B96271
:1005200028460B3801282046019E07D80B2D1AD0EB
:100530002B4819E0916B20230B439363347003B075
:10054000F0BDBB6A0343BB62D06A421E072A2ED2AB
:1005500028460B3801282046019EEFD80B2D09D0E4
:100560000098800508E01D481B490A6802400A609F
:100570002046E3E70098C00517490A6802430A606D
:100580000B2D2046DAD1CB480068CB49FFF7E1FDBF
:100590000A2141430291029800282046CED00298B9
:1005A000401E029002980028F9D12046C6E7009A22
:1005B00012079042CCD07A690720024089689142A4
:1005C000C6D07A6982437A610140786908437861CC
:1005D000BEE7C0460110000008270140FFFF7FFF73
:1005E000FFFFBFFF7047704770470000F0B581B054
:1005F0000124002854D006462436816B002906D1F8
:1006000000213174C163054600F088F82846816BEB
:10061000C90641D401688A6852073DD4812252003C
:10062000836B93439A1C82638A68D2070CD1CA6891
:1006300018239A4383681343CB600F2212070B6978
:10064000934342681A430A61CA68324B1340CB6035
:10065000826A521E531E9A411203037E9C03437EFC
:100660005D032543C46807692C431443BA1E5542F1
:100670005541AD002543327852002A43847E012C37
:1006800014D1002B0FD0836B20241C438463C36BD5
:1006900001241C43C46309E0816B10220A43826376
:1006A000204601B0F0BD01231B041A43C369FF2497
:1006B000C234A34202D0046A22431A43CB681343D4
:1006C000CB60C36A5C1E072C1FD24C690725AC4364
:1006D0004C612B404C691C434C61C9680E4B0B406C
:1006E000934207D10024C463816B01220A43022193
:1006F0008A43D4E7816B10220A4302218A43826332
:10070000C16B01242143C163CAE701242407A3422A
:10071000DBD0E2E719C2FEFFE7FF3FC3F0B587B0C9
:1007200004460025069505950495039502951E48F7
:10073000C16801273943C160C168394001910199FD
:10074000416839434160416839400191019901682C
:1007500039430160006838400190019804951020E9
:100760000290032603960520000702A900F0B4FBBF
:10077000284601F09DF830030C4E2021FA027B023E
:100780000B4F37607560B560F56033617261B161C0
:10079000F061304600F09AF8304600F0C3F8266366
:1007A000746207B0F0BDC0463410024090010020D2
:1007B00008000240F0B585B003460468A568022031
:1007C0006D076BD434255D5D012D67D01D46343532
:1007D00001262E7000200490A768FF072ED10296F4
:1007E000A7680397324F039E3E420BD0986B1026AA
:1007F00006439E63DE6B01200643DE630026002E67
:100800001ED14BE00391019207460093A06801219D
:100810000143A160274800682749FFF79AFC04902C
:10082000049800283CD03846029E0499491E049141
:1008300004990029F9D1009B019A0399002E2DD02B
:100840009E6B1E4F37400295012503952E02BE195F
:100850009E630026DE631C272760656810272F43F0
:100860006760029D2E701D6B164F174EAE62EF62D1
:10087000134E2E63E668039F3E43E66040341F46F6
:10088000064628460D46214613462A4600F088F8BB
:10089000304639688A68042313438B6005B0F0BD85
:1008A000009B3846019A0399029E002EC8D1F5E7B5
:1008B00015000080C400002040420F00FEF0FFFF42
:1008C0008B030008A503000819030008F0B581B0E8
:1008D000002823D00446203401680A680125AA4371
:1008E0000A6000270F604F608F60CF602B4A8A1824
:1008F000142106461046FFF72CFC014638468900B5
:100900008D40254A5560B7632770F2633164B76242
:10091000F76237637763677001B0F0BD012001B003
:10092000F0BDC046F0B585B000282ED00546203574
:1009300002216970C4C8046841680191816802910C
:10094000C1680391016904911168124B0B40334354
:100950003B43234301990B4302990B4303990B43F8
:1009600004990B4313600024C4620B4901632C708B
:100970000A49521814210C3806461046FFF7E9FBC5
:10098000800030640120687000E00124204605B03A
:10099000F0BDC0460FC0FFFF00000240F8FFFDBFE2
:1009A000F0B582B004462020255C0220012D28D01D
:1009B000019226462036012232707778012F1ED10F
:1009C000022070700020A063266837689743376064
:1009D000E56B0095276C1546BD40009F7D607360F8
:1009E0006368102B019F00D00F46B760102B00D01A
:1009F0000199F160E16A002905D00E2108E000218B
:100A0000317002B0F0BD31680423994331600A218E
:100A100033680B43336031681143316002B0F0BD7D
:100A2000B0B5044600F022FB0546601C02D0044825
:100A30000068041900F01AFB401BA042FAD3B0BDB5
:100A400044010020F0B587B00690A44A1078012830
:100A500002D1022007B0F0BD019101200590107075
:100A60009F480068C00A1C2101409E4841589E488A
:100A700006680D68EFB29D4C9E4BBE4229D12E0CEC
:100A800026404268B24224D102692D0AEDB2AA4240
:100A90001FD182684D68EEB2B2421AD12A0C944D31
:100AA0002A40C568954214D142698D681D40AA420A
:100AB0000FD18269CD681D40AA420AD1C2690D6971
:100AC000AEB2B24205D12A0CF54D2A40056A9542D4
:100AD00017D007604A88224042604A7802610A794A
:100AE0008260CA88ED4C2240C2608A681A40426126
:100AF000CA681A4082610A8AC261498AE84A11407A
:100B000001620698006802282CD00125E90288427B
:100B100014D0042800D0DBE07D20C40000F0A6FA49
:100B20000494061906952D04734C27682F4000D1B4
:100B3000A5E000F09BFAB042F7D3A2E07D20C4000C
:100B400000F094FA039405190120059007046A4CFB
:100B500026683E401AD000F089FAA842F8D3002E49
:100B600019D0B5E07D20C40000F080FA009405198A
:100B7000012005900704604C26683E4043D000F0F9
:100B800075FAA842F8D3002E41D0A1E0C7482060F2
:100B9000002E00D09CE000200290C0430199086024
:100BA0000698C268006900038018824200D38FE073
:100BB000BA48401C616801436160FF2004921060E4
:100BC00000F054FA0399451826683E4005D000F01D
:100BD0004DFAA842F8D3032002E0B44820600298FE
:100BE00005900120C10262688A436260002E66D1CE
:100BF0000003049A12180699C868096909030818BD
:100C00008242D5D364E0A9482060002E60D1002044
:100C10000290C04301990860069842688068C0014C
:100C20008018824254D2984802994160606802213B
:100C3000039108436060FF200492106000F016FAF0
:100C40000099451826683E4005D000F00FFAA842EA
:100C5000F8D3032002E09548206002980590606870
:100C6000039988436060002E29D1069948688968F5
:100C7000C9010818049A80328242D4D328E08B48F4
:100C80002060002F0698059022D100217E48059112
:100C9000416060680426304360600120C006174947
:100CA000016000F0E3F904994718206828420AD04F
:100CB00000F0DCF9B842F8D30320059005E0019874
:100CC0000499016004E0794820606068B043606086
:100CD00000206D490870059807B0F0BDF8060020A7
:100CE00004100240F857000800210240FF010000F4
:100CF000FF070000FFFF01001020024021433412D3
:100D00000120C00768490A6802430A600868C043B6
:100D1000C00F7047F0B585B003925B4A1078012888
:100D200002D1022005B0F0BD01201070574B1B68A6
:100D3000DB0A1C241C40564B1D59564B1C682E6860
:100D4000F2B294422BD1340C534F3C405F68A7421F
:100D500025D11C69360AF6B2B44220D19C686E686F
:100D6000F7B2BC421BD1340C4C4E3440DE68A64274
:100D700015D15F69AE684B4C2640B7420FD19F69D1
:100D8000EE682640B7420AD1DC692E69B7B2BC4290
:100D900005D1340C424E34401E6AA64219D01A6066
:100DA0006A883D4C22405A606A781A612A799A60B2
:100DB000EA883A4C2240DA60AA683A4C22405A61EA
:100DC000EA6822409A612A8ADA616A8A344C2240AF
:100DD0001A624A0601D005B0F0BD02917D20C40020
:100DE00000F044F9019406190120049007042E48EC
:100DF000041F25683D4005D000F038F9B042F6D315
:100E0000032002E0294820600020002D0399029A67
:100E100035D1254D2868049B18432860EFF31080D6
:100E2000009072B6002303E0121D1F2B2B460CD23C
:100E300020C915605D1C1F2DF6D10498C6041A4800
:100E400000683043184E3060EEE7009880F3108859
:100E500000F00CF90199461825683D4005D000F0D6
:100E600005F9B042F8D3032002E0104820600020CA
:100E70000D4B1968049A91431960002DABD10021E4
:100E8000014A117005B0F0BDF806002004100240C0
:100E9000F857000800210240FF010000FF07000092
:100EA000FF3F0000FFFF01001420024011800000FE
:100EB0000648C168002901D4002070470449016038
:100EC00004490160C068C00F7047C0460820024056
:100ED00023016745AB89EFCDF0B58BB008900B6867
:100EE000002B00D1A9E00E4655480899814201D057
:100EF000022000E00120052109070024089A8A4207
:100F0000009400D000900898203001900A94274661
:100F1000224604960DE019436960521C3368184656
:100F2000D04008340A99891C0A913F1D002800D13D
:100F300083E00125284690400340EED003900992BB
:100F4000079406937068314610260643122E0DD181
:100F50001C2038400F268640099AD408A400019B23
:100F60001A59B2430E69864016431E51059708462A
:100F700003210A460A9FBA40089B1C6894434068B4
:100F8000064602910E40BE4026431E60D6431228FC
:100F900015D885402D4A154211D0089DAA683240C7
:100FA000049BDC680A9B9C401443AC60C206D20FD1
:100FB000099B9A406C6803998C4314436C60089BAE
:100FC000D9683140049EB2680A9CA2400A43DA60A4
:100FD000C000069B079C059F099A9ED518202040BB
:100FE0000F218140029CA243164DAA18146E8C4317
:100FF0000099814021431166134801687068C2035B
:1010000001D5194300E099430F4A116051688203EA
:10101000079C01D5194300E099430B4A51602968A8
:10102000C20201D5194300E09943099A2960696811
:10103000800200D56FE799436EE70BB0F0BDC04664
:10104000000400500018024080180240060006000C
:1010500000690840411E88417047002A02D01822CA
:101060008150704728228150704700002548006851
:101070007047C046014800687047C046000EFF1F19
:10108000014800687047C046040EFF1F0148006811
:101090007047C046080EFF1FB0B5002817D00446A1
:1010A00000680E4901600E49016061684160A168F5
:1010B0008160FFF7DBFF05462068C168002908D082
:1010C000FFF7D4FF401B3028F6D90320B0BD012024
:1010D000B0BD074901600020B0BDC046CCCC0000C7
:1010E0005555000000680249016000207047C04665
:1010F000AAAA00001A48006802490A681018086085
:101100007047C046940A002080B5032000F008F81C
:10111000002801D0012080BD00F024F8002080BD0F
:10112000B0B505460E4801680124002916D07D207F
:10113000C000FFF70EF80146A0480068FFF709F865
:1011400000F0BEFB032D09D8002807D10024E0439E
:101150002946224600F012F8904805602046B0BDAE
:1011600044010020704700001F21014001208840F9
:10117000014908607047C04600E100E0002805D43E
:10118000032203469343094A9A1803E00C220240C3
:10119000074BD2188007C00E8901C9B28140FF23D6
:1011A00083401068984308431060704700E400E0F3
:1011B00014ED00E0F0B583B000284AD00D4602904F
:1011C00073480068012101910840854214D9704993
:1011D00008680124A043284308606E4FFFF746FFCC
:1011E00006466B4800682040A84205D0FFF73EFF46
:1011F000801BB842F5D95CE0029B18688107904FCC
:101200000DD5410704D5072109033A680A433A601E
:101210000F2109023A688A43996811433960C0076F
:101220001AD15B48006801263040854244D25849B3
:101230000868B0430860574CFFF718FF054654484C
:101240000068C00738D0FFF711FF401BA042F6D955
:101250002FE0012003B0F0BD5968042901987CD823
:101260008A0001A39A5897467D1200084713000888
:10127000391300085B130008531300083A46083A74
:10128000126852055DD538680722904308433860DC
:10129000404CFFF7EBFE06463868382101400298C3
:1012A0004068C0008142BCD0FFF7E0FE801BA04236
:1012B000F2D9032003B0F0BD029A1078400706D59A
:1012C0000720000339688143D068084338603868D4
:1012D0008006400F06D0386838210840082822D1FF
:1012E00058480FE0384608380168381F0068000485
:1012F000400F042800D900208000544A1058890467
:10130000490FC840396889093C220A402249895856
:101310001F220A40D0402949086020480068FFF792
:10132000FFFE03B0F0BD38680840102819D1786876
:10133000C00721D04448E5E73A46083A12689201CE
:10134000A1D403B0F0BD3A46083A12689203F8D52A
:1013500099E77A6D9207F4D595E7BA6D9207F0D5C3
:1013600091E73A680A40F003202ACBD03A680A4055
:10137000182AC7D00020C5E7381F00680004400FB6
:10138000042800D900208000304908584000B9E7FF
:101390000020024088130000505700084801002038
:1013A0000648006826490968890A1C220A4004493F
:1013B00089581F220A40D0407047C046C400002010
:1013C000905700081E4908688006400F06D008683C
:1013D00038221040082811D11A487047081F0839D0
:1013E000096800680004400F042800D9002080002C
:1013F000164A10588904490FC840704708681040C1
:10140000102804D14868C0070DD00F4870470B68FA
:1014100013400120C003202B04D009681140182973
:1014200000D000207047081F00680004400F042807
:1014300000D9002080000549085840007047C04688
:101440000810024000366E01006CDC020C570008E8
:10145000F0B585B00127002800D1C2E102970390C2
:101460000078C007FC4C1CD1039C207880073ED438
:101470002078000769D42078400700D49DE1F64A1F
:10148000906838210140202900D0ABE0D06D800762
:1014900000D48FE1E068002800D08BE10020012714
:1014A00089E1A0683822024011461039484248417B
:1014B000E168082A56D0084054D103984768002FA5
:1014C00008D003988068002855D021690C229143E8
:1014D000014321612068052109048F4200D1F0E019
:1014E00001210A04974200D0F3E01043F8E0E74CF2
:1014F000A0683826064010207040E1680127394076
:10150000411848424841002E37D0002835D1206884
:10151000BE02039A5169002900D1BFE00721C90228
:1015200088439169014321603802216801432160A9
:10153000FFF79CFD05462068304200D0EEE0FFF743
:1015400095FD401B0228F6D9DBE0D04A906838218F
:10155000014018292FD1106E80078CD5206A0028F1
:1015600089D108E02068800300D47DE703984068B3
:10157000002800D078E7029F33E12068400504D5B9
:1015800003984069002800D12BE12246BC02506834
:10159000BF4901400398C06908435060FFF766FDEA
:1015A0000546BA480068204257D1FFF75FFD401B4F
:1015B0000228F6D9A5E0106E216A002900D1B6E014
:1015C000012108431066FFF751FD0546AF48006E44
:1015D000800700D54FE7FFF749FD401B032702288E
:1015E000F4D9FEE001263107D06B0840019006D106
:1015F000D06B0843D063D06B0840049004980091EE
:10160000A74F3868C0050FD43402386820433860CB
:10161000FFF72CFD05463868204205D1FFF726FD6F
:10162000401B0228F7D9AFE00398C768002F974BFB
:101630000AD000698103890F00D1700403210904D5
:101640001A698A4302431A61D86D052F00D180E0E0
:10165000012F00D083E0304386E0002E15D1072013
:10166000C0028A4C21688143039880690843206046
:10167000FFF7A8FEA16889093C220A4085498958DC
:101680001F220A40D0408449086084480068FFF760
:1016900047FD0028039C00D0A3E0E9E63902884317
:1016A00020601446FFF7E2FC0546784800683042A7
:1016B00000D1DDE6FFF7DAFC401B03270228F4D94E
:1016C0008FE001218A041043206009042068084348
:1016D00006E06F4A521E104020608904206888434B
:1016E000206001204604FFF7C1FC0546002F10D002
:1016F0002068304200D0B7E6FFF7B8FC401BC8288E
:10170000F6D903276DE0FFF7B1FC401B0327C8287B
:1017100067D85E4800683042F5D1A5E660685C494C
:101720000140039AD069084360601446A0E6012195
:1017300088431066FFF79AFC05465448006E800700
:1017400000D498E6FFF792FC401B03270228F4D947
:1017500047E004210843D865D86D304304E0B04326
:10176000D865D86D04218843D865FFF77FFC05460E
:101770004C4C002F11D04548C06D800711D4FFF7A5
:1017800075FC401BA042F6D900200327039C12E001
:10179000FFF76CFC401BA042F6D83C48C06D8007A8
:1017A000F6D401980028039C04D13849C86B009AEC
:1017B0009043C8630120002813D0606A00280FD02E
:1017C000324B996838220A40102A0DD10128029F15
:1017D00007D02E48C06801273840A16A884200D14E
:1017E0000027F8B205B0F0BD01252A06196891431B
:1017F00019606E0602280FD103950292FFF736FC9E
:101800000546224B1868304217D0FFF72FFC401BCB
:1018100003270228F5D9E4E7D868A843D860FFF782
:1018200025FC0446194800683042D9D0FFF71EFC59
:10183000001B03270228F5D9D3E7A06A00280DD1A1
:101840005968C90A1C220A4017498958174A914207
:1018500004D2039FC5E7C04600100240D968039A2E
:1018600091430143D9601868029908431860FFF753
:10187000FDFB0446054800683042B1D1FFF7F6FB96
:10188000001B03270228F5D9ABE7C0460010024031
:101890000000FFFF50570008C4000020480100204E
:1018A0000070004088130000D85700080024F4009E
:1018B00002490A6802430A607047C0461C000140A2
:1018C000401E010E01D0012070470749074A5060B1
:1018D000074803680B40032189075918016000205D
:1018E0009060072111607047FFFFFF0010E000E0EB
:1018F00020ED00E0B0B5002819D005463C356978E8
:10190000002905D100212970044600F051F8204635
:101910000221697001680C681F4A914202D01F4B76
:10192000994206D170239C438368234302E001203F
:10193000B0BD23461A4CA14208DD91420CD0194C8F
:10194000A14209D0184CA14206D022E0134CA1427A
:1019500002D0164CA1421CD103242402A3430469E3
:101960001C4380239C43836923430B60C368CB6281
:1019700043688B62914205D00A4A914202D00A4ADA
:10198000914201D1406908630120486168700020DC
:10199000B0BD1C46E5E7C046002C014000040040F5
:1019A000FF2B01400048014000440140002000405E
:1019B00070470068C26801210A43C2608268072339
:1019C0001340062B02D002680A43026000207047D1
:1019D00080B501680A69D20707D0CA68D20704D067
:1019E0000122D2430A6100F001F880BDF0B581B058
:1019F00017480078002828D00024164D164E03E022
:101A00006D1C1034802C16D028780028F8D0371997
:101A100078680028F4D07868401E7860F0D1012002
:101A20007870F868002800D0804738780128E7D11E
:101A3000B8687860E4E709480168491C01600168FA
:101A4000074A914201D10021016001B0F0BDC046BA
:101A5000B0040020F008002070080020A804002036
:101A6000FFFFFF7FF0B581B000283DD0044605465A
:101A700044356878002804D100202870204600F002
:101A800036F82420687001277E032068C168B143BE
:101A9000C160204601F0D0F82021605C400611D5DD
:101AA0003A032068436993430096666A334343616F
:101AB0009642009E06D10322520343699343A26AD1
:101AC0001A434261F8022268136983431361506923
:101AD000082398435061D0683043D0600020A06450
:101AE0006970A97001B0F0BD012001B0F0BD704770
:101AF000F0B585B00493044607464437787802234E
:101B0000202813D10120002900D189E0002A00D12A
:101B100086E001252E03A068B0420AD1C80708D08C
:101B20002069002805D1284605B0F0BD184605B04B
:101B3000F0BD38780128184672D00191002003903A
:101B4000A06400953D70212078701546FFF78EFA4D
:101B5000029065862586A068B04202D120690028DF
:101B600038D0019E049A08E0002E12D03078216807
:101B70004860761C608E401E6086608E002820D0F3
:101B8000206800680006EFD4551C18D0002A0FD139
:101B900024E0039B188823490840216848609B1C67
:101BA00003930026E6E701680906DDD4002DFAD08C
:101BB000FFF75CFA049A0299401A90420ED8206806
:101BC000F1E720680068400625D4002A06D0551C9D
:101BD00013D018E0002601980390C3E70D204001C0
:101BE0002168CA688243CA604869009A9043486184
:101BF00020207870B870032010E020680168490642
:101C000009D4002DFAD0FFF731FA0299401A04994D
:101C10008842F2D9E2E72020787000200021397054
:101C200005B0F0BDFF010000FEE7000080B50348ED
:101C30000121FFF70DFA4142484180BD00140050D8
:101C4000704770B50646052004070225002220468D
:101C50002946FFF702FAE72000F0FEFE304600F0CA
:101C6000FBFE012220462946FFF7F7F970BDF0B5CB
:101C700081B0052000900407022500262046294651
:101C80003246FFF7EAF9832000F0E6FE304600F026
:101C9000E3FE0127204629463A46FFF7DEF92046B3
:101CA00029463246FFF7D9F9852000F0D5FE3046A7
:101CB00000F0D2FE204629463A46FFF7CEF92046EC
:101CC00029463246FFF7C9F9009800F0C5FE742096
:101CD00000F0C2FE204629463A46FFF7BEF92046EC
:101CE00029463246FFF7B9F9552000F0B5FE3846CF
:101CF00000F0B2FE204629463A46FFF7AEF901B0A1
:101D0000F0BD70B5052004070225002620462946AF
:101D10003246FFF7A2F9E62000F09EFE304600F0C2
:101D20009BFE0646012220462946FFF796F93046DB
:101D300070BDF0B58BB000F045FE0A20FEF770FED6
:101D400005200990040702260025204631462A4630
:101D5000FFF783F90127384600F07EFE284600F0A1
:101D60007BFE204631463A46FFF777F9204631465A
:101D70002A46FFF772F909200A9000F06DFE032051
:101D8000079000F069FE204631463A46FFF765F9B4
:101D9000204631462A46FFF760F9099800F05CFEBC
:101DA0000420089000F058FE204631463A46FFF7DE
:101DB00054F93846FEF734FE204631462A46FFF7EE
:101DC0004CF9099800F048FE742000F045FE2046CA
:101DD00031463A46FFF741F93846FEF721FE2046E4
:101DE00031462A46FFF739F90720099000F034FE02
:101DF000384600F031FE204631463A46FFF72DF9CD
:101E00003846FEF70DFE204631462A46FFF725F9F3
:101E1000099800F021FE079800F01EFE204631468A
:101E20003A46FFF71AF9204631462A46FFF715F9D8
:101E3000384600F011FE384600F00EFE20463146CE
:101E40003A46FFF70AF9204631462A46FFF705F9D8
:101E50000B20079000F000FE284600F0FDFD204614
:101E600031463A46FFF7F9F8204631462A46FFF751
:101E7000F4F80A9800F0F0FD089800F0EDFD204617
:101E800031463A46FFF7E9F8204631462A46FFF741
:101E9000E4F80820099000F0DFFD284600F0DCFDA2
:101EA0000890204631463A46FFF7D7F8204631469B
:101EB0002A46FFF7D2F80A9800F0CEFD099800F004
:101EC000CBFD204631463A46FFF7C7F8204631465B
:101ED0002A46FFF7C2F8099800F0BEFD284600F038
:101EE000BBFD0A90204631463A46FFF7B6F8204639
:101EF00031462A46FFF7B1F8079800F0ADFD3846A5
:101F000000F0AAFD204631463A46FFF7A6F80F201A
:101F100008990840012800D0D3E30F460225002687
:101F2000204629463246FFF798F88F2000F094FDAE
:101F3000790870200840833000F08EFD012720468C
:101F400029463A46FFF789F8204629463246FFF7E8
:101F500084F88720059000F07FFD0898C006C00F28
:101F600011210391484000F077FD204629463A466A
:101F7000FFF773F8204629463246FFF76EF8152022
:101F8000099000F069FD4820019000F065FD2046B1
:101F900029463A46FFF761F8204629463246FFF7C0
:101FA0005CF8652000F058FD1020089000F054FD0A
:101FB000204629463A46FFF750F820462946324641
:101FC000FFF74BF8672000F047FD1C2000F044FDB0
:101FD000204629463A46FFF740F820462946324631
:101FE000FFF73BF86F20049000F036FD099800F0F1
:101FF00033FD204629463A46FFF72FF8204629466A
:102000003246FFF72AF8752000F026FD542000F034
:1020100023FD204629463A46FFF71FF82046294669
:102020003246FFF71AF87D2000F016FDF12000F08F
:1020300013FD204629463A460697FFF70EF820463C
:1020400029463246FFF709F8832000F005FDA2205B
:1020500000F002FD204629463A46FEF7FEFF2046E4
:10206000294632463746FEF7F8FF8D2000F0F4FC93
:10207000B020029000F0F0FC20462946069E324631
:10208000FEF7EBFF204629463A46FEF7E6FF93208F
:1020900000F0E2FC442000F0DFFC204629463246F6
:1020A000FEF7DBFF204629463A46FEF7D6FF992089
:1020B00000F0D2FC019800F0CFFC204629463246C1
:1020C000FEF7CBFF204629463A46FEF7C6FF3046CC
:1020D00000F0C2FC384600F0BFFC204629463246DC
:1020E000FEF7BBFF204629463A46FEF7B6FF0B2017
:1020F00000F0B2FC0A980009C03000F0ADFC2046A8
:1021000029463246FEF7A9FF204629463A46FEF701
:10211000A4FF0F2000F0A0FC8B2000F09DFC2046C7
:1021200029463246FEF799FF204629463A46079748
:10213000FEF793FF039800F08FFCBB200A9000F09D
:102140008BFC204629463246FEF787FF204629466B
:102150003A46FEF782FF132000F07EFC4026304610
:1021600000F07AFC20462946069F3A46FEF775FFA6
:1021700020462946079AFEF770FF099800F06CFC8C
:10218000304600F069FC204629463A46FEF765FFD6
:1021900020462946079E3246FEF75FFF532000F097
:1021A0005BFC304600F058FC204629463A46FEF7D4
:1021B00054FF204629463246FEF74FFF572000F0D5
:1021C0004BFC582000F048FC204629463A46FEF7D2
:1021D00044FF204629463246FEF73FFF592000F0D3
:1021E0003BFC1B2000F038FC204629463A46FEF70F
:1021F00034FF204629463246FEF72FFF6D2000F0BF
:102200002BFC029800F028FC204629463A46FEF7AF
:1022100024FF204629463246FEF71FFF049800F0AF
:102220001BFC6B2000F018FC204629463A46FEF7BE
:1022300014FF204629463246FEF70FFF712000F0BA
:102240000BFC4B2000F008FC204629463A46FEF7DE
:1022500004FF204629463246FEF7FFFE732000F0B9
:10226000FBFB552000F0F8FB204629463A46FEF7D6
:10227000F4FE204629463246FEF7EFFE059800F0B0
:10228000EBFB3B2000F0E8FB204629463A46FEF7F0
:10229000E4FE204629463246FEF7DFFE892000F0A4
:1022A000DBFB8C2000F0D8FB204629463A46FEF79F
:1022B000D4FE204629463246FEF7CFFEAB2000F082
:1022C000CBFBDD20099000F0C7FB204629463A46AB
:1022D000FEF7C3FE204629463246FEF7BEFEAD207D
:1022E00000F0BAFBC92000F0B7FB204629463A4669
:1022F000FEF7B3FE204629463246FEF7AEFEAF207B
:1023000000F0AAFBB720059000F0A6FB2046294666
:102310003A46FEF7A2FE204629463246FEF79DFECB
:10232000B52000F099FB089800F096FB204629465E
:102330003A46FEF792FE204629463246FEF78DFECB
:10234000059800F089FBFD2000F086FB2046294619
:102350003A46FEF782FE204629463246FEF77DFECB
:10236000B92000F079FBE92000F076FB20462946F1
:102370003A46FEF772FE204629463246FEF76DFECB
:102380000A9800F069FBDC2000F066FB2046294635
:102390003A46FEF762FE204629463246FEF75DFECB
:1023A000BD2000F059FB284600F056FB2046294688
:1023B0003A46FEF752FE204629463246FEF74DFECB
:1023C000BF2000F049FB062000F046FB20462946CE
:1023D0003A46FEF742FE204629463246FEF73DFECB
:1023E000C12000F039FB0E2000F036FB20462946C4
:1023F0003A46FEF732FE204629463246FEF72DFECB
:10240000C32000F029FB2E2000F026FB20462946A1
:102410003A46FEF722FE204629463246FEF71DFECA
:10242000CD2000F019FB342000F016FB2046294691
:102430003A46FEF712FE204629463246FEF70DFECA
:10244000D12000F009FB0D2000F006FB20462946B4
:102450003A46FEF702FE204629463246FEF7FDFDCB
:10246000099800F0F9FA202000F0F6FA20462946F3
:102470003A46FEF7F2FD204629463246FEF7EDFDCC
:10248000384600F0E9FA384600F0E6FA20462946D8
:102490003A46FEF7E2FD204629463246FEF7DDFDCC
:1024A000372000F0D9FA082000F0D6FA2046294655
:1024B0003A46FEF7D2FD022500262046294632463E
:1024C000FEF7CBFDE02000F0C7FA304600F0C4FA7A
:1024D0000646012220462946FEF7BFFD7006EAD5D2
:1024E000022500220A9220462946FEF7B6FD37262D
:1024F000304600F0B1FA102000F0AEFA0127204675
:1025000029463A46FEF7A9FD3046FEF789FA2046ED
:1025100029460A9AFEF7A1FD052000F09DFA7620D3
:1025200000F09AFA204629463A46FEF796FD3846CC
:10253000FEF776FA204629460A9AFEF78EFD3046C7
:1025400000F08AFA202000F087FA204629463A4611
:10255000FEF783FD02250026204629463246FEF777
:102560007CFDFE2000F078FA304600F075FA064651
:10257000012220462946FEF770FD70B20028E9D5F9
:102580000225002220462946FEF767FD372000F08D
:1025900063FA402000F060FA012220462946FEF747
:1025A0005CFD02250026204629463246FEF755FDF1
:1025B000DA2000F051FA304600F04EFA06460122C9
:1025C00020462946FEF749FD70B20028E9D50225CC
:1025D000002220462946FEF740FD372000F03CFA55
:1025E000802000F039FA012220462946FEF735FD09
:1025F00002260025204631462A46FEF72EFDFE2003
:1026000000F02AFA284600F027FA0746012520465E
:1026100031462A46FEF721FD78B20028E8D5022689
:102620000027204631463A46FEF717FD372000F0D6
:1026300013FA384600F010FA204631462A46FEF7D3
:102640000CFD204631463A46FEF707FD052000F016
:1026500003FA742000F000FA204631462A46FEF7BD
:10266000FCFC204631463A46FEF7F7FC284600F0CF
:10267000F3F9384600F0F0F9204631462A46FEF7D5
:10268000ECFC204631463A46FEF7E7FCE72000F036
:10269000E3F9FF2000F0E0F9204631462A46FEF734
:1026A000DCFC204631463A46FEF7D7FC732000F0AA
:1026B000D3F94E2000F0D0F9204631462A46FEF7E5
:1026C000CCFC28460BB0F0BDF0B581B00D460646F7
:1026D000052004070227002220463946FEF7BDFCEC
:1026E000384600F0B9F9002D06D0002000F0B4F90A
:1026F0003070761C6D1EF8D1022101222046FEF7B3
:10270000ACFC01B0F0BDF0B581B006460520040771
:1027100002250027204629463A46FEF79EFC700611
:10272000000E00F099F9384600F096F906460122AD
:1027300020462946FEF791FC304601B0F0BDF0B5C9
:1027400081B014460E4607460520050702210022E7
:102750002846FEF782FC7806000E00F07DF9002C7A
:1027600006D0002000F078F93070761C641EF8D195
:10277000022101222846FEF770FC01B0F0BDF0B541
:1027800081B00526340700960225002720462946F9
:102790003A46FEF762FC304600F05EF9742000F025
:1027A0005BF90126204629463246FEF756FC2046B4
:1027B00029463A46FEF751FCE72000F04DF9FF208C
:1027C00000F04AF9204629463246FEF746FC2046EC
:1027D00029463A46FEF741FC009800F03DF9762084
:1027E00000F03AF9204629463246FEF736FC01B0A1
:1027F000F0BD70B5064605200407022500222046DC
:102800002946FEF72AFC732000F026F9304600F036
:1028100023F9012220462946FEF71FFCFFF7AFFFF0
:1028200070BDF0B581B00520009004070225002797
:10283000204629463A46FEF710FC832000F00CF9AA
:10284000452000F009F90126204629463246FEF7C8
:1028500004FC204629463A46FEF7FFFB852000F09F
:10286000FBF82C2000F0F8F8204629463246FEF707
:10287000F4FB204629463A46FEF7EFFB552000F0D0
:10288000EBF8812000F0E8F8204629463246FEF7B2
:10289000E4FB204629463A46FEF7DFFB009800F0AD
:1028A000DBF8752000F0D8F8204629463246FEF7BE
:1028B000D4FB01B0F0BDF0B581B005263407009619
:1028C00002250027204629463A46FEF7C6FB304639
:1028D00000F0C2F8742000F0BFF801262046294617
:1028E0003246FEF7BAFB204629463A46FEF7B5FBCC
:1028F000E72000F0B1F8FF2000F0AEF820462946AE
:102900003246FEF7AAFB204629463A46FEF7A5FBCB
:10291000009800F0A1F8752000F09EF820462946A6
:102920003246FEF79AFB01B0F0BDF0B583B00D461C
:10293000064605273C07022101910022029220460B
:10294000FEF78BFB384600F087F8742000F084F81F
:1029500001222046019F3946FEF77FFB204639467B
:10296000029AFEF77AFB032000F076F8002D05D0DE
:10297000307800F071F8761C6D1EF9D10221012229
:102980002046FEF76AFB03B0F0BDF0B581B00E46FD
:102990000746052004070225002220462946FEF7A7
:1029A0005CFB7800401CC0B200F056F8304600F0E6
:1029B00053F8012220462946FEF74FFB01B0F0BD37
:1029C00070470000F0B589B000200890079006908D
:1029D00005900490FFE71F48016801221143016040
:1029E0000068104003900398FFE7FFE7FFE71948EE
:1029F0000168202211430160006810400290029893
:102A0000FFE7FFE7032604960124059406940225B8
:102A1000079505200007019004AF3946FEF75CFAE0
:102A2000082004900594069407952B483946FEF734
:102A300053FA0496002005900690079526483946DB
:102A4000FEF74AFA019829462246FEF706FB09B02E
:102A5000F0BDC04634100240F0B583B005460520F5
:102A6000000701900026019C0295012700222046C4
:102A70003946FEF7F2FA00BF00BF00BF00BF00BF3B
:102A8000E8B2C2090821144D2846FEF7E6FA2046AE
:102A900039463A46FEF7E1FA00BF00BF00BF00BF6B
:102AA00000BF02212846FEF7D3FA411E8841029951
:102AB00049000D18701C072E0646D5D301210022AF
:102AC0000198FEF7CAFAE8B200BF00BF00BF00BF1E
:102AD00000BF03B0F0BDC04600140050704780B581
:102AE000FEF708FB80BD000008480168084A0A405C
:102AF00008490968084B19405118C918491C016058
:102B00000120C006054908607047C0460410024015
:102B10000000FFFF040FFF1FFF1F000008ED00E093
:102B200080B50248FEF754FF80BDC0463008002043
:102B3000F0B583B0394800680169C90734D0012174
:102B4000C94301617D208100354C2088401C0291E1
:102B5000FDF7FFFA2180FF25F43532480021324A83
:102B6000324B07E02824C66807693751091D183021
:102B700020290FD0847A012CF8D154580688A41942
:102B8000AC4201DC264600E0E6185650AC42E9DDD6
:102B90001824E8E7264C2088401CC821FDF7D9FA04
:102BA00021802088002801D003B0F0BD00261D4AF6
:102BB00002E01836C02EF7D09419A07A0128F8D177
:102BC00020790128F5D1E088401CE080E188A81C2C
:102BD00048432189FDF7BDFA80B20299884200D3AB
:102BE00008464000134A125AA78A60880190C01B09
:102BF00000B25043FDF7CCFA0299381880B28842EF
:102C000000D30846074A9053E08821898842D0D3F0
:102C10000198905300202071CBE7C04608020020A5
:102C20000402002054070020E40100200CFEFFFFF6
:102C3000E001002018580008F0B581B004460121D9
:102C40004A03006803699343E2681A4302612269F8
:102C5000C368294D1D40A368134362691A432A4380
:102C6000C260CD024169A943E66931434161032154
:102C7000090242698A43A16911434161FEF790FB51
:102C80000146192048436168AE4218D14900FDF75A
:102C900060FA064664273946FDF75BFA0546184890
:102CA00068438019C00032303946FDF752FA0721D7
:102CB0000140F822024050002A01801816E08900E5
:102CC000FDF747FA064664273946FDF742FA0546FE
:102CD0000A4868438019000132303946FDF739FA55
:102CE0000F210140F02202402801101840182168ED
:102CF000886001B0F0BDC046F3E9FFFF9CFFFF0F05
:102D00009CFFFF1FF0B583B01D480468A0060BD5DB
:102D1000FF201C490A5C531CDEB21B4D2D686D68F8
:102D20009E4201D10B548D54E00603D4200718D4E1
:102D300003B0F0BD002502951348006801680291B8
:102D400040680290FF260F4FB85D02990F4909684D
:102D5000002903D0002801D00A488847BD55200724
:102D6000E6D5FF20074900220A5401920648006870
:102D70000168019140680190019803B0F0BDC04620
:102D800000380140FC080020FC0900202008002039
:102D9000F0B581B00125280529490A6802430A6077
:102DA0000A6882430A600A6902430A61254C264E7A
:102DB000266009690140009100982046FDF742FB1A
:102DC000002803D02148224902F02EFA242025545D
:102DD00003210020A062E1622062A0760427022184
:102DE000FF221346C233E361023222836A07266060
:102DF0006260A06022460C3283C22046FDF7F6FBDB
:102E0000002803D01148124902F00EFA1149280394
:102E10000F6048600B48FDF763FB002803D00B48A8
:102E20000B4902F001FA074865490122FDF7C2FC8F
:102E3000002803D00548064902F0F6F901B0F0BDBC
:102E4000301002405001002000240140025C0008C4
:102E5000275C00082408002010B5002200280DD0AF
:102E600000290BD000220B46048812195B1E801C1F
:102E7000002BF9D11046FDF76CF9024690B210BD57
:102E8000B0B50D46044600F0D7F94178217081783D
:102E900061702571C17861714179A1710021E17181
:102EA00082792272C0796072022D00D1C943A1706B
:102EB000E170B0BD80B500F0BFF90079FFF799FC73
:102EC00080BD00002548002101702D480170174881
:102ED0000170234801707047F0B581B01F49087830
:102EE000002820D0401E0870104B1878411C0F227B
:102EF0000A401A70224909780029EFD0C000194908
:102F00000C5C0818456800271E4E05E0361D7F1C26
:102F10001B4800788742E1D23268002AF6D020466A
:102F200029469047F2E701B0F0BDC04617080020DF
:102F3000F0B5052810D8094A13780F2B0CD8084C87
:102F40002578EE00074FB855581C1070B81941602D
:102F5000681C0F2101402170F0BDC04616080020FA
:102F6000150800202404002010B505490A78072A16
:102F700004D89300034CE050501C087010BDC046AC
:102F8000B10400200404002080B50B4801688907C3
:102F900002D40A4880B280BD02214160084801681D
:102FA000084848438C49FDF7D4F8074908400A21EE
:102FB000FDF7CFF880B280BD00000240881300000A
:102FC000A4040020E40C0000FEFF0000F0B5104E49
:102FD000002918D000220F4B144605E0401C641C49
:102FE000A6B28E422E460FD205787540164604E0F2
:102FF0003D46771C072E3E46F0D22F047F0CED078E
:10300000F6D05F40F4E7354628BA000CF0BDC04664
:10301000FFFF000001A0FFFF0A46024337D0614ACC
:10302000904236D005221207904200D05CE06948F9
:10303000814200DD5AE03F2900DD6EE0091F1C29B6
:1030400000D9A7E062A049007944898849008F44EB
:103050008400A100A100A1001C00A100A100A1000A
:10306000A100A100A100A1009100A100A100A10068
:10307000A100A100A100A100A100A100A100A10048
:10308000A100A100A100A100930067A0704742A089
:1030900070474A1E3F2A00D937E043A07A4412798C
:1030A000520097445A1F595D5959595B59595959FA
:1030B0005959596359595959595959595959595976
:1030C0005959596159595959595959595959595968
:1030D0005959595959595959595959595959595960
:1030E0005959595F38A070472CA070473A4881421F
:1030F0001DDD3A48814226DC0120020391423DD089
:103100004003814246D13AA07047802930D0012047
:103110000002814220D125A07047402932D0802969
:1031200034D001200002814234D13AA070470120FE
:103130004202914228D08202914229D0C0028142AB
:1031400028D12FA0704701208203914218D0C003DC
:1031500081421FD122A070471CA0704718A0704761
:1031600018A0704713A0704713A0704713A07047B2
:103170000FA070472BA0704729A070471EA0704772
:1031800019A0704725A0704721A0704722A0704762
:103190001DA0704725A0704744454600554E4B4E34
:1031A0004F574E000004005050423000504238004B
:1031B00050423700504236005042350050423400F1
:1031C00050423300504232005042310050423F00E2
:1031D00050413200FF010000FF0F0000FF3F0000E0
:1031E00050413135000000005041313400000000F2
:1031F00050413133000000005041313200000000E6
:1032000050413131000000005041313000000000D9
:10321000504139005041380050413700504136008C
:1032200050413500504134005041330050413F007F
:103230000048704744050020F748704770B50446C1
:10324000FDF718FF0546FDF71BFF0646FDF71EFFBD
:103250002072310EE171310CA171310A6171267158
:10326000290EE170290CA170290A61702570010EE8
:10327000E172010CA172000A607270BD59405040A9
:10328000084341424841704780B50C4803210C4A2D
:1032900001239B02026041608360FDF7FDFE002870
:1032A00003D008A00BA101F0BFFF7D20810000200A
:1032B0000C4A012300F05AFF80BDC046D401002013
:1032C000003000405B232573235D204552524F524E
:1032D000210A00006170705F697764675F696E69D9
:1032E000740000007D44000880B501F06FF980BDD6
:1032F000F0B58BB00546B54824273946FCF711FFD9
:10330000B3482621FCF70DFFFDF7D2FDB14E304644
:10331000394600F087FEFDF7F3FC012D21D0002D8A
:1033200000D0EEE072B6A94D24223046294600F0C6
:103330008DFE002803D0A948A94901F075FF62B6A7
:103340002868401CA24D2DD0A0480921A04A262360
:1033500000F0F8FD002832D1A048A14901F064FF37
:103360002DE072B69C48994D2422294600F06EFE4D
:10337000002803D099489A4901F056FF62B62868A0
:10338000401C934F00D1BEE090480921904A26236B
:1033900000F0D8FD002800D0C2E09048904901F02C
:1033A00043FFBDE0C04802F0A1F9C04829461CC84F
:1033B0001CC11CC81CC11CC81CC10088088020205E
:1033C0000A90285C09900521CB43E87E0690A87EF0
:1033D0000590E87D0490A87D0390687D0290E87FC9
:1033E0000890A87F07906E7F2C7FB148B14A12E009
:1033F000774DEF18FD791570FD7A5570FD7B95704E
:10340000FD7CD570FD7D1571A0C89560D760383200
:1034100000305B1C18D29F1D032FE9D99D1C08D0DA
:10342000099D1571089DD570079D95705670147093
:10343000EAE7069D1571059DD570049D9570039D65
:103440005570029D1570DFE700229A4B9A4D604F30
:1034500006E00020186358633833521C062A2AD02D
:103460001006400E38182224005DD40705D000094C
:10347000C40706D002249D6105E00F242040C40744
:10348000F8D100249C61DC61840702D400241C6212
:1034900001E001241D625C62440702D400249C62A6
:1034A00002E040240E079E62DC620828D1D30807A0
:1034B00018630A98CFE700267E4F814D0A96382080
:1034C00070437C4A115C101883784278C478007984
:1034D00000940190794801F0A7FE0A9C3919886987
:1034E000C969FFF799FD0146284601F09DFE0834A1
:1034F000202CF3D10A2002F0F1F83837761C062E82
:10350000DDD10BB0F0BD37A002F0F0F8262138462F
:10351000FCF707FE3648B88036487880022078707D
:1035200035A037A101F080FE002438A6295D304681
:1035300001F07AFE641C052CF8D10A2002F0CEF8C6
:10354000344D2846FFF77AFE0C212846FFF73EFD52
:10355000314DFA21A972092169720021E970A87020
:1035600010212970000A68703868686038792872FC
:103570007879287329A001F057FE6978AA782AA0E3
:1035800001F052FEE9782CA001F04EFE29792DA021
:1035900001F04AFE69792FA001F046FEA979EA7987
:1035A00030A001F041FE297A32A001F03DFE697A97
:1035B00035A001F039FEA97A36A001F035FE297B4D
:1035C00037A001F031FE0BB0F0BDC0467402002000
:1035D0004C02002000F0000800F20008025C000825
:1035E0003A5C0008726567206973206E756C6C0028
:1035F000050600000304000025733A2000000000C7
:103600006E65775F64617461000000002530325898
:1036100020000000E9060020940600207665723A3A
:10362000253032580A00000063706164643A253026
:103630003258253032580A0063706C65693A25307B
:1036400032580A006368616E6E656C3A25303258F4
:103650000A0000007A7577666C61673A2530325847
:103660000A000000726F6F6D3A25303258253032F3
:10367000580A0000666F72776172645F656E3A2562
:103680003032580A0000000074785F64623A2564A2
:103690000A00000074785F73753A25640A00000020
:1036A0006B65793A25640A004A5C0008B057000847
:1036B000205700084405002000040050565C000814
:1036C000345C00087047000080B5054800F0A4FC99
:1036D000044800F091F80448FFF746FC80BDC0465E
:1036E000C5360008053800086550000870B53E4A28
:1036F00013780022012B1FD1244B1C78072C1BD8D8
:10370000234C25461035002203E01835521C082AA8
:103710000DD0AE1F3678012EF7D12E1F36688642A7
:10372000F3D12E688E42F0D1002A04D506E00022A3
:10373000D243002A02D40022104670BDA27A01258D
:10374000012A2A4613D10022114C072A0AD0222628
:10375000A65D521C1834002EF7D1521E072A05D33D
:10376000002204E0072AE6D2012070BD01220026D3
:1037700026806680E6802681216126718161E06075
:10378000A5721878401C1870104670BD48020020C1
:103790005407002070B582B013480121017013480E
:1037A000026802210A430260114C0025A561312202
:1037B0002F23104E26606360A560E26025610068DB
:1037C0000840019001982046FEF794F810263046F4
:1037D00029462A46FDF7D2FC3046FDF7C5FC2046B7
:1037E000FEF7E7F802B070BD140800203C1002405C
:1037F0000802002000040040014908607047C046EC
:10380000AC040020F0B583B00546C0780190AF78D5
:103810006E7A2C7AFFF710FD029021028A19C17985
:1038200083791B0259182E798A4204D0002E02D0C7
:10383000052E00D087E03902019A8A18D7498A42BA
:1038400007D0817843781B0259188A4201D0114869
:103850007AE00190D24C41212046FCF762FC0E2E0A
:1038600000D97DE12F460B377600C0467E44B688EE
:103870007600B744110075017700FA003C016A0137
:1038800075016D0086007501750175017501750181
:10389000D400C046715C00080097012000F07CFC59
:1038A000C248E4A101F0C0FC0027C34EE95D3046E8
:1038B00001F0BAFC7F1C102FF8D10A2001F00EFF96
:1038C00004200522009900F0D9F9FFF7B5FC4178F2
:1038D000827806232371C378637143790026E671E9
:1038E000A37183792372A67062702170E670C0792B
:1038F00060721422A27220460B300199FCF7F8FB8B
:103900004020205472B6215C2046FFF70EF8FEF7E7
:10391000D2FF62B6A548CAA101F086FCA64DA15D02
:10392000284601F081FC761C162EF8D10A2001F001
:10393000D5FE019C2079FEF75CFF2179C3A001F040
:1039400073FC03B0F0BDC74801F06EFC03B0F0BDDE
:103950002A7B6B7B2024A649022008551B029A185B
:103960000A800AE02C7BA34D284639462246FCF704
:10397000BFFB20202C5401202946FFF7D9FA03B0C1
:10398000F0BDFFF759FC417882780D232371C3788D
:10399000637143790027E771A3718379237240260D
:1039A000A655A77062702170E770C0796072A77227
:1039B0000120FCF7FCFC7D487DA101F035FCA05DF9
:1039C000002808D07C4DE15D284601F02DFCA05D6B
:1039D0007F1C8742F7D30A2001F080FE72B6A15DFA
:1039E0002046FEF7A2FFFEF766FF62B673A001F065
:1039F0007DFEFF20FEF725F9FFF71EFC0079FEF79C
:103A0000F8FEFEF70EFF7348FCF7D1FCFEF72FF926
:103A100071A001F06BFEFEF7B2FE03B0F0BDFFF740
:103A20000BFC417882780E232371C378637143794C
:103A30000025E571A37183792372A57062702170EE
:103A4000E570C07960720220A07278783978E172EE
:103A500020734020205472B6215C2046FEF765FF9B
:103A6000FEF729FF62B603B0F0BD2E7BED7A66A0AB
:103A70002946324601F0D8FBFFF7DEFB4178827819
:103A800006232371C378637143790027E771A3711B
:103A900083792372A77062702170E770C0796072B9
:103AA000A67202A8411920460B303246FCF720FBD3
:103AB0004026A65572B6A15D2046FEF736FFFEF7FA
:103AC000FAFE62B6394858A101F0AEFBA05D0028AD
:103AD00008D0394DE15D284601F0A6FBA05D7F1CB2
:103AE0008742F7D30A2001F0F9FD03B0F0BD00973B
:103AF0002E4640362D4840A101F096FB3078002834
:103B000009D000272C4CE95D204601F08DFB7F1C7D
:103B100030788742F7D30A2001F0E0FDE8791428D5
:103B200020D12621364C2425009822462B4600F031
:103B300036FA72B6334821462A4600F099FA62B640
:103B40000020FFF7D5FB03B0F0BD019D6879002888
:103B50000ED00A2141430520124A002300F006FB43
:103B600003B0F0BD0122009900F088F803B0F0BD69
:103B700005212046FFF784F91422A27220460B305B
:103B80002946FCF7B5FA40202054204600F06CF896
:103B9000054801F0ABFD03B0F0BDC046FFFF0000DB
:103BA00098020020ED430008CC5C0008C15C0008CE
:103BB00041636B5273736900C65C000850414E321A
:103BC00031315F5374617274436172726965725707
:103BD000617665008813000050414E3231315F45F7
:103BE0007869744361727269657257617665000025
:103BF000FE020020DC0200207361766500000000F8
:103C00002003002000F00008726561645F61646455
:103C1000723A256420726561645F6C656E677468D2
:103C20003A25640A00000000525265675F61636BC9
:103C300000000000526571756573745F7278000052
:103C4000526571756573745F747800002D2D2D2D8C
:103C50006368616E6E656C5B25645D2D2D2D2D0A8C
:103C6000000000009B5C000880B572B64021415CFA
:103C7000FEF75BFEFEF71FFE62B680BDF0B581B0B9
:103C800014460D460646052A0CD0012C48D1301F9B
:103C9000052809D30C2E07D02548264901F0C4FA7F
:103CA00001B0F0BD042EF7D1FFF7C6FA42790379CF
:103CB000077B21494F71077A0F710B704A70827927
:103CC0008A70C079C8701D4F06223846FCF710FA7A
:103CD000002C09D000201AA12A5C3318DBB2CB5C7F
:103CE000FA54401C8442F7D1134814490622FCF7C9
:103CF00023FA002816D016A001F0F8FC0F48062180
:103D0000174C082522462B4600F049F972B6154893
:103D100021462A4600F0ACF962B60120FFF7E8FA26
:103D200001B0F0BD10A001F0E1FC01B0F0BDC04653
:103D3000025C0008D35C00084A0300204403002012
:103D40000000000000010203040000000500000064
:103D5000726567206973206368616E6765000000A3
:103D60005003002000F20008726567206973206E1E
:103D70006F74206368616E6765000000F0B581B004
:103D80001F460E460546394C21212046FCF7C9F94D
:103D9000FFF74EFAF1212170002F0CD0012F20D116
:103DA00038216943415CFE220A40102A19D1622160
:103DB0006170002114E038216943425CA670627092
:103DC0004118C97850220A40502A01D1002107E049
:103DD000C906314600D50121402A01D17142714105
:103DE000A1703821694340184178E17081782171D0
:103DF000C178A1710079E07100210846625C101859
:103E0000491C0529FAD120260821A155404260719C
:103E100001202146FFF78CF8FFF70EFA41788278EF
:103E2000134D02232B71C3786B7143790027EF7117
:103E3000AB7183792B72FF23AB706A702970EB70C2
:103E4000C0796872A25DAA7228460B302146FCF741
:103E50004FF94020285472B6295C2846FEF765FDCC
:103E6000FEF729FD62B601B0F0BDC0469C030020FC
:103E700058030020F0B581B0304C10340027FD43CA
:103E8000009303E018347F1C082F0ED0A61F36784D
:103E9000012EF7D1261F36688642F3D126688E425E
:103EA000F0D1002F04D501B0F0BD2F46002FFAD479
:103EB0007D24A400A24200D32246002B1BD018214F
:103EC00079431E4F781842807C5AF54DAB4200D39F
:103ED00000950125052B2B4604D3009B5B1D184E36
:103EE0005E43330C03810023C38005718482795AB9
:103EF0009142D8D11CE0114C1034002303E0183457
:103F00005B1C082B0BD0A61F3678012EF7D1261F7D
:103F100036688642F3D126688E42F0D100E02B4607
:103F2000002BC0D41820584304490A520818428074
:103F3000001D0021017001B0F0BDC04654070020F3
:103F40009A190000F0B582B0144601918A0093429C
:103F500001D2002200E00122631E25469D41431E3E
:103F600001469941294011400091012914D101993C
:103F7000002911D000210D46AA0086180F462246BE
:103F80003368FB4013700837521C202FF8D1241DD2
:103F90006D1C019A9542EFD1009802B0F0BDF0B5CA
:103FA00085B0039101460020002932D0002A30D08C
:103FB000039CE41CA5080295AB422AD30120042CE3
:103FC00027D300900023039E019209E00027019A65
:103FD00004981750091D361F5B1C0298834217D0A6
:103FE000042E304600D30420012800D801209C0074
:103FF000039A0494A242E9D0C00000250C462F4643
:104000002278AA401743641C0835A842F8D1DEE79D
:10401000009805B0F0BD0000014908607047C04637
:104020002008002080B586B00022059204920392F9
:104030007F31C9090291019002200090684605A9CC
:10404000FCF700FD411E884106B080BD70B51446E6
:104050000D460646FCF72CFF002C05D000203158F9
:104060002950001DA042FAD3FCF74AFE002070BD83
:10407000F0B587B016460C460546FCF719FF002739
:1040800006970597049730467F30C0090390029544
:104090000220019001A806A9FCF7D4FC002801D059
:1040A000012612E000977719BD420BD20126304657
:1040B00029462246FCF72EFE002806D180348035A2
:1040C000BD42F3D3FCF71CFE009E304607B0F0BDA6
:1040D000F0B587B0C0480168022739430160016824
:1040E000394002910299016801263143016000685C
:1040F000304002900298052001071B488861019119
:10410000B64A3023009393610597002404940396E4
:10411000029002AD08462946FCF7DEFE059704949E
:10412000039600980290AD482946FCF7D5FE059706
:10413000049403963002029001982946FCF7CCFEC5
:1041400005970494039603200290A4482946FCF79F
:10415000C3FE0597049403966020029001982946B7
:10416000FCF7BAFE07B0F0BD0C0C000070B50728D4
:1041700011D8012484F31088414D2C5400013F4C88
:1041800025186960A960002169705E1EB34123543F
:10419000EA6081F3108870BD07280ED8012181F3F1
:1041A0001088374900220A54000134490B185A601C
:1041B0009A605A700A5482F310887047F0B581B043
:1041C00000202E4902468B18586098605870885419
:1041D0001032802AF7D1FDF7E3F80125EE03184FDE
:1041E000396831433960174C174921600021A160BB
:1041F000E56021616161A1617D21C900FBF7A9FF33
:10420000401E606038683040009000982046FDF7FE
:1042100071FB002803D0E5480C4901F005F8132094
:10422000FCF7A2FF0748FDF7C4FB002803D0DF48D6
:10423000064900F0F9FF0648057001B0F0BDC04620
:10424000401002403008002000200040E05C0008E0
:10425000B00400200948401C0021094A03E0103046
:10426000491C082908D0535C002BF8D00378012B97
:10427000F5D100230370F2E77047C04670080020B4
:10428000F008002080B50A4601460120002905D02B
:10429000002A03D05248784BFDF72AFC80BDC04667
:1042A00088130000F0B58BB000240A940994089498
:1042B0000794069448490868022630430860086855
:1042C0003040059005980868304308600868304021
:1042D00005900996012508950796042004900690FC
:1042E00005980A943D4806AF3946FCF7F5FD0820CD
:1042F0000A90079601952802069038483946FCF73F
:10430000EBFD04980A900996089507968020069080
:10431000324D28463946FCF7DFFD04980A9007968F
:104320004020069028463946FCF7D6FD019DA8039B
:10433000294AD1680143D1601746294E0C220492C4
:10434000E1214B02039327491AC634607460B260BE
:10435000F9680140069106980C3E3046FDF782FB55
:104360001B27384621462A46FCF708FF3846FCF74B
:10437000FBFE3068C168202202921143C160C1680F
:1043800010273943C1606804134A91680143916062
:10439000384D1549296003996960AC60EC602C6167
:1043A0000499696191680140069106982846FDF7D5
:1043B00059FB1C26304621462246FCF7DFFE3046DC
:1043C000FCF7D2FE2868C168029A1143C160C16837
:1043D0003943C1600BB0F0BD3410024000040050FE
:1043E000FC090020003801400044004070B5184826
:1043F00001F07CF9FEF720FF0546164C41212046CE
:10440000FBF78FFEFEF718FF4178827805232371B2
:10441000C378637143790026E671A37183792372AF
:10442000A67062702170E670C07960721422A27268
:1044300020460B302946FBF75BFE4020205472B625
:10444000215C2046FEF771FAFEF735FA62B670BDC0
:10445000CC5C0008C003002010B582B0044601A95E
:10446000087004480122044BFDF742FB204602B0CD
:1044700010BDC046480A00208813000080B50248DD
:10448000FCF730FE80BDC046D401002090B0FCF7A0
:104490003BFE05AD2C212846FBF743FE00260B967C
:1044A000012420020A900A200590049603960296A1
:1044B00001963C4800680D9406960F9602270E97C9
:1044C000089639490140E00308180C902846FCF78B
:1044D000BFFF002803D03548354900F0A5FE0396FC
:1044E000029707200190A003049001A82146FCF741
:1044F00061FE002803D02D482D4900F095FEFDF700
:1045000018FCFF20FDF79DFBFFF7CCFE0120FEF716
:10451000EFFE0020FEF7ECFEFFF750FEFEF7B4FEC4
:10452000FEF7D0FCFFF7D0F8FEF7DEFEFEF727F926
:10453000FEF782FE0079FEF75CF920A41D4D1E4FA8
:1045400007E0FDF7DEFB40B2002825D4FF20FDF791
:1045500078FBFFF77FFEFEF7BFFC00F0DBFD0028D5
:1045600006D000F0D7FD0028F3D000F0D7FDF0E72B
:10457000FDF75CFB0028ECD0FDF7C3FBC007E0D0E3
:10458000402628463146FEF79FF8AE553968002987
:10459000DCD028468847D9E7FEF7F1F8204601F03D
:1045A000A5F8D3E7100FFF1FFF1F0000025C0008F3
:1045B000115C0008A8060020AC04002050414E32D7
:1045C00031315F527853746172740000B0B5FFF7F7
:1045D0007FFDFEF7DDFB022001240F4A0A2321465E
:1045E000FFF7C4FD03200D4A21462346FFF7BEFD19
:1045F0000B48FEF7B9FCFFF7CDF8052005072402AC
:1046000028462146FFF772F87D208200C300284625
:104610002146FFF72FFCB0BD714F0008614E000826
:1046200025460008F0B583B00F46022800D192E07D
:10463000012800D0ADE06EA06FA100F0F5FD2020B4
:10464000385C00280BD03C46203400266DA5B95DAF
:10465000284600F0E9FD761C20788642F7D30A2030
:1046600001F03CF8FEF7E4FD04467878622800D9B2
:104670008FE002974000C04678448088400087441D
:10468000620061022202E301440193011D03390328
:10469000880088008800880088007103550328017D
:1046A000AF015F01880088008800880088008800CA
:1046B00088008800880088008800880088008800BA
:1046C00088008800880088008800880088008800AA
:1046D000880088008800880088008800880088009A
:1046E000880088008800880088008800880088008A
:1046F000880088008800880088008800880088007A
:104700008800880088008800880088008800880069
:104710008800880088008800880088008800880059
:104720008800880088008800880088008800880049
:104730008800880088008800880088008800880039
:10474000880088000901B879800702D52F48012127
:104750000170002129E07D783878401EC4B22CA079
:1047600021462A4600F060FD681E85411420604302
:104770002E490E1875702EA0294600F055FD337A8B
:10478000002B01D0002100E07178F1222046FFF7D4
:10479000F5FA03B0F0BD0020D86001201872D8707F
:1047A0005870029F491C0629F3D038204843251829
:1047B000E8788006F6D5387900090F2803D0AB7861
:1047C0001B099842EED128781128EBD814234B43CB
:1047D000164AD31878440079400087444F3231326A
:1047E0003131313131313131313131323139C0460C
:1047F00025733A200000000070616E656C5F72786E
:10480000000000002530325820000000CA040020BB
:104810006B65795F6E756D6265723A25642073749D
:10482000617475733A25640A00000000CC00002012
:104830006B65795F7374617475733A25640A00005F
:10484000B0E7B87801250540DD719D705D70A9E77E
:104850000026274604E038371436782E00D19AE730
:1048600038781028F7D168787A788242F3D1DB481B
:1048700080190022C2600272C271ECE76878FD788C
:10488000854200D08EE7B8780125DD702840D871C8
:10489000587087E70021D14A04E038341431782970
:1048A00000D176E72078FE230340102BF5D1F8786D
:1048B000FF2802D063789842EFD15018037A012B79
:1048C000EBD100230372C3710125C5704370C3602F
:1048D000E3E77720C143C14A0DE05018BB780125BA
:1048E0001D407F23C5547A23C5547923C5543834D9
:1048F000143100D14DE720780F28F8D1F878FF283F
:10490000EBD063789842F2D1E7E70021B34A0DE09B
:104910005018BB780025C56001251D4005728570C3
:10492000457038341431782900D132E720780428D2
:10493000F7D1F878FF28EBD063789842F1D1E7E718
:104940000021A64A09E00020D86001201872D87022
:104950005870491C062900D11BE738204843235CC6
:10496000112BF6D1FB78FF2B03D02018407883421F
:10497000EFD11420484313180025264609E05019AA
:104980000027C7600772C771029F38361435782D2B
:10499000D9D030781028F8D1F878FF28EFD0777880
:1049A000B842029FF1D1EAE77720C1438B4A0DE07C
:1049B0005018BB7801251D407F23C5547A23C55468
:1049C0007923C5543834143100D1E2E62078052823
:1049D000F8D1F878FF28EBD063789842F2D1E7E776
:1049E00000217E4A09E00020D86001201872D870AA
:1049F0005870491C062900D1CBE638204843235C77
:104A0000102BF6D1FB78FF2B03D02018407883427F
:104A1000EFD11420484313180025264609E0501909
:104A20000027C7600772C771029F38361435782D8A
:104A3000D9D030781128F8D1F878FF28EFD07778DE
:104A4000B842029FF1D1EAE77720C04301900022EB
:104A5000624B0CE0142050431818B97801250D4022
:104A6000C57185704570521C062A00D191E6382028
:104A70005043255C032DF6D1FD78FF2D03D020187F
:104A800040788542EFD1B8780028E3D02546019ED2
:104A90000EE0981902998F780121B9437F27C155FB
:104AA0007A27C1557927C155029F38351436D1D0A0
:104AB00028780228F9D1F878FF28EAD06F78B84230
:104AC000029FF2D1E5E77720C04301900022E24B3C
:104AD0000CE0142050431818B97801250D40C57119
:104AE00085704570521C062A00D152E6382050438A
:104AF000255C022DF6D1FD78FF2D03D020184078DB
:104B00008542EFD1B8780028E3D02546019E0EE01B
:104B1000981902998F780121B9437F27C1557A27C7
:104B2000C1557927C155029F38351436D1D0287820
:104B30000328F9D1F878FF28EAD06F78B842029FAD
:104B4000F2D1E5E7B879800702D5C44801210170A8
:104B5000002104E05D70491C062900D119E63820C7
:104B600048432518EE78F007F5D0387900090F286A
:104B700003D0AB781B099842EDD128781128EAD8E8
:104B800014234B43F84AD318800002A73858029FD9
:104B90008746C0463B4C0008454C0008EF4B0008D8
:104BA000E34B0008E14B0008E14B0008E14B000833
:104BB000E14B0008E14B0008E14B0008E14B000825
:104BC000E14B0008E14B0008EF4B0008EF4B0008F9
:104BD000EF4B00080B4C0008614C0008CC00002093
:104BE000B9E7B87801258543DD719D70B2E7B878E3
:104BF00075B2002D05D401252840D87198705870E1
:104C0000A9E70028A7D10020F7E7B8780028A2D0AC
:104C10000026274603E038371436782E39D0387806
:104C20001128F8D168787A788242F4D1CE48801978
:104C30000022C2600272C271EDE7B878012505401A
:104C4000DD7187E76878FD78854284D15020304057
:104C5000502826D10020D8710125DD7058707AE7E0
:104C6000B878002800D076E70026274603E03837DA
:104C70001436782E0DD038781028F8D168787A78E4
:104C80008242F4D1F34880190022C2600272C271DC
:104C9000EDE70020D86001201872D8705870029F8C
:104CA00059E7F00608D440200640B878012528408E
:104CB000002EA2D06840A0E701209EE77720C143E4
:104CC000E44A0DE05018BB7801251D407F23C554F0
:104CD0007A23C5547923C5543834143100D158E5AA
:104CE00020780628F8D1F878FF28EBD0637898422E
:104CF000F2D1E7E77720C143D64A0DE05018BB78E0
:104D000001251D407F23C5547A23C5547923C554FA
:104D10003834143100D13CE520780728F8D1F878F0
:104D2000FF28EBD063789842F2D1E7E77720C143C0
:104D3000C84A0DE05018BB7801251D407F23C5549B
:104D40007A23C5547923C5543834143100D120E571
:104D500020780E28F8D1F878FF28EBD063789842B5
:104D6000F2D1E7E738790F21009108400190002344
:104D700009E00020F06001203072F07070705B1C60
:104D8000062B00D105E538205843271801980F2835
:104D900005D0B8780099084001998142EFD11420DC
:104DA0005843AC490E180022F271B2707270387913
:104DB0000299CD792842E2D03878401E1028DED8FA
:104DC0007844007940008744090808080808080862
:104DD00008080808090908112A00D0E70298807815
:104DE00001210140F171B1707170C8E702988078BB
:104DF0000028C4D00022204603E038301432782A3C
:104E0000B7D00578112DF8D17D784178A942F4D139
:104E1000904989180025CD600D72CD71EDE702989B
:104E200080780028ABD127460AE08A488018002104
:104E3000C1600172C17138371432782A00D198E705
:104E400038781028F7D10298C078FF28EDD079780B
:104E50008842F0D1E9E7C046CC000020CA04002017
:104E6000F0B583B0FEF7E4F901903C4C20780128BE
:104E700012D13B4E3088401C308080B2C0087D2863
:104E80000AD305200007012109020025354B2A46D7
:104E9000FEF7F0FF3580257000256E4E019C07E07F
:104EA000F8797872029D6B4E38346D1C062D52D005
:104EB000142068433718F87801280CD17989481CE8
:104EC0007881002901D10121B97080B2642802D310
:104ED000002078817880387A01280FD1F968481C41
:104EE000F860002901D10121F9712049884205D3D8
:104EF00000203872F871B870F8607870B878397935
:104F000088420CD0002801D1182100E02821382245
:104F10006A43019B9A189368D2685A503871787A1C
:104F2000F9798142C0D00295002606E02820A969BF
:104F3000EA690A500836202EB2D0A519A869E96995
:104F400000221346FEF79AF90028F3D1F8790028D9
:104F5000ECD01820EBE703B0F0BDC046CA04002037
:104F6000CC040020B80B0000CC00002030750000FD
:104F7000F0B583B0FEF708F83449884201D103B098
:104F8000F0BD334D68800026324B34460FE0C9B285
:104F9000E0B2F122FEF7F2FE2E4B019999552E4810
:104FA00001702E4807801436641C782EE7D09F19B4
:104FB000398A6888884202D3798A88420AD928497E
:104FC00040180128EFD80020234908703870234981
:104FD0000880E8E729784A1C2A7049006918888007
:104FE000D0B20A28DFD3002002902870281D0A21A1
:104FF000FDF732FF174B398A8842D4D3798A884229
:10500000D1D83878002814D0134800780128CAD1A4
:1050100012490888401C088080B280084B28C2D3FF
:10502000032000273946FDF783FF0A4B0A48077023
:10503000B9E7787801210191484078703B7A002BDC
:10504000029F3946A3D10146A1E7C046881300005C
:10505000B2040020CC000020CE040020D0040020A8
:10506000B7FEFFFFF0B581B0032841D1FEF7E4F8A9
:105070000546FEF7E1F8417882781E4C002727713B
:10508000C37863714379E771A37183792372A77041
:1050900062702170E770C07960720B26A6720120E1
:1050A000FDF7A7FB20460B3029463246FBF720F8D8
:1050B0004020205472B6215C2046FDF736FCFDF7F7
:1050C000FAFB62B60C480DA100F0AEF80F4DE15DA1
:1050D000284600F0A9F87F1C162FF8D10A2000F00E
:1050E000FDFA7D2081000120094A0023FFF73EF8E8
:1050F00001B0F0BD10070020C15C00085265717559
:105100006573745F74785F6368310000C65C000883
:10511000B52E00083D4800787047C046F0B581B014
:105120003A48007801286ED139480068002803D138
:10513000C720C0433749086072B646252846FDF7A8
:10514000E2FA0646802101432846FDF71EFCC021F5
:1051500031432846FDF719FC7E206F46022439466C
:105160002246FDF7ECFA7F2131403E787F782846D1
:10517000FDF70BFC3802801927490143C81C801039
:1051800062B624490A68824200DA0860204F386813
:10519000421C3A60FF22F432904234DB1F480A225C
:1051A00082710D2242710322C27084708522427086
:1051B000AC2202700968CA1751408C1A0471072189
:1051C000FFF760F86420164A135C632BE1B215D830
:1051D000D454D36E5B18D366135C6525002B08D0BE
:1051E000565DB14200D254556625555DA94201D89D
:1051F00002E05455662554555B1C135409A000F079
:1052000013F80020386001B0F0BDC0461808002037
:10521000F8080020C800002000C0FFFF1908002087
:10522000D404002025640A000FB410B503A9044B70
:10523000044A029800F018F810BC08BC04B01847E3
:1052400059440008C000002002E008C8121F08C12D
:10525000002AFAD170477047002001E001C1121FF7
:10526000002AFBD170470000FFB591B00F460546FC
:10527000002606E025280AD0149A139990476D1C41
:10528000761C28780028F5D1304615B0F0BD0024F2
:1052900000940121F34A029400E004436D1C2B7832
:1052A0000846203B98401042F7D128782A280ED093
:1052B000022128780246303A092A15D8009A0A2392
:1052C0005A43303A80180C436D1C0090F1E701CF2F
:1052D0000090002805DA0120400304430098404272
:1052E0000090022004436D1C28782E2815D104203C
:1052F000044368786D1C2A280AD101CF6D1C0290E6
:105300000BE002990A225143303940186D1C02907B
:105310002878014630390929F3D928786C2810D02B
:1053200006DC4C281AD068280ED06A2817D104E071
:10533000742813D07A2812D110E0012040050443CC
:105340000CE00121090501E0032109050C436978FE
:10535000814203D10120000524186D1C6D1C2878A2
:1053600003906E281ED00CDC632831D004DC0028AA
:105370008AD0582811D1B2E064287BD069280CD19A
:1053800078E073282DD004DC6F2870D0702804D109
:10539000A7E075286CD078286BD0149A13999047A1
:1053A000761C62E06002400F022807D003280AD072
:1053B000042838680AD006603F1D56E03868F117A7
:1053C00006604160F8E738680680F5E70670F3E7A5
:1053D0003878694608740020487404A803900120B6
:1053E00003E0386803900020C0433F1D61070FD5DC
:1053F000002101E00199491C029A0191914213DABE
:105400008142F7DB019A0399895C0029F2D10BE014
:10541000002101E00199491C01918142FADB019AC6
:105420000399895C0029F5D101990098139A401AD3
:1054300000902146149B00F03BF901998019461811
:1054400007E0039803990078491C0391149A139973
:1054500090470198401E0190401CF2D12146149BB8
:10546000139A009800F014F986196D1C09E741E0C1
:1054700033E034E00A200021049005916002410FDE
:10548000022905D001CFC2179446032905D007E0B1
:10549000FF1DFF08FF0003CF06E000B2C2179446CD
:1054A000042902D140B2C1178C46002261469445BE
:1054B00006DA0A460021404291418C462D2102E045
:1054C000210504D52B216A461176012103E0E1076D
:1054D00001D02021F7E7019154E00A200BE01020D1
:1054E00009E01020049000210420044308200591C5
:1054F000029003E008200021059104906002410F12
:10550000022905D001CF00229446032906D006E0E7
:10551000FF1DFF08FF0003CF8C4603E080B2042983
:1055200000D1C0B20021019121072BD50399702928
:1055300006D0049A1021059B4A401A4305D00EE07C
:1055400040216A461176012108E06146014306D0F8
:1055500030216A4611760399517602210191049A0D
:105560000821059B4A401A430CD16146014301D1F1
:10557000610707D530216A46117601210191029910
:10558000491E02910399582904D037A103910FA90C
:105590000F910DE039A1F9E76146059B049AFAF7EE
:1055A0001FFE039B8C469B5C0F9A521E0F9213703A
:1055B00061460143F0D10F9807A9081A20300390E3
:1055C000600704D5012000048443029801E0012013
:1055D00002900399884201DD401A00E00020411842
:1055E0000290019809180098401A0090E00306D430
:1055F0002146149B139A009800F05AF8861900204F
:10560000049008E006A9085C149A1399904704983E
:10561000401C761C049001998842F3DBE0030CD512
:105620002146149B139A009800F042F8861904E072
:10563000149A302013999047761C0299481E0290C4
:105640000029F5DC08E00F980F990078491C0F91AC
:10565000149A13999047761C0399481E03900029C9
:10566000F1DCFBE6092801003031323334353637BE
:10567000383961626364656600000000303132339E
:10568000343536373839414243444546000000003E
:10569000F8B5044600251E461746880404D405E0E4
:1056A00039462020B0476D1C641EF9D52846F8BD48
:1056B000FFB50446002581B01E46C80301D530273A
:1056C00000E02027880404D505E038460399B04758
:1056D0006D1C641EF9D5284605B0F0BD10B5024911
:1056E000FEF7BAFE10BD0000C000002010B5044651
:1056F00001E0FEF7B1FE2078641C03490028F8D1D0
:105700000A20FEF7A9FE10BDC000002000093D00E0
:1057100000127A000024F4004086510100366E0128
:1057200000000050080000000000005004000000CD
:105730000004005020000000000400501000000091
:1057400000000050000400000000005000080000AD
:105750000000000000000000000000000000000049
:105760000000000000000000000000000000000039
:10577000010000000200000003000000040000001F
:1057800006000000070000000800000009000000FB
:105790000000000000000000000000000000000009
:1057A00001000000020000000300000004000000EF
:1057B000F20E0E0E0E00000000000000002121215C
:1057C00021000000000E0000440021000E00002116
:1057D00000B021840000000000093D0000127A00A2
:1057E0000024F4004086510100366E0100093D009E
:1057F00000093D0000093D001C0FFF1F300FFF1F77
:10580000440FFF1F580FFF1F6C0FFF1F1C0FFF1FC0
:105810001C0FFF1F1C0FFF1F0000010002000300F0
:105820000400050006000700080009000A000B003C
:105830000C000D000E000F001000110012001300EC
:105840001400150016001700180019001A001B009C
:105850001C001D001E001F0020002100220023004C
:105860002400250026002700280029002A002B00FC
:105870002C002D002E002F003000310032003300AC
:105880003400350036003700380039003A003B005C
:105890003C003D003E003F0040004100420043000C
:1058A0004400450046004700480049004A004B00BC
:1058B0004C004D004E004F0050005100520053006C
:1058C0005400550056005700580059005A005B001C
:1058D0005C005D005E005F006000610062006300CC
:1058E0006400650066006700680069006A006B007C
:1058F0006C006D006E006F0070007100720073002C
:105900007400750076007700780079007A007B00DB
:105910007C007D007E007F0080008100820083008B
:105920008400850086008700880089008A008B003B
:105930008C008D008E008F009000910092009300EB
:105940009400950096009700980099009A009B009B
:105950009C009D009E009F00A000A100A200A3004B
:10596000A400A500A600A700A800A900AA00AB00FB
:10597000AC00AD00AE00AF00B000B100B200B300AB
:10598000B400B500B600B700B800B900BA00BB005B
:10599000BC00BD00BE00BF00C000C100C200C3000B
:1059A000C400C500C600C700C800C900CA00CB00BB
:1059B000CC00CD00CE00CF00D000D100D200D3006B
:1059C000D400D500D600D700D800D900DA00DB001B
:1059D000DC00DD00DE00DF00E000E100E200E300CB
:1059E000E400E500E600E700E800E900EA00EB007B
:1059F000EC00ED00EE00EF00F000F100F200F3002B
:105A0000F400F500F600F700F800F900FA00FB00DA
:105A1000FC00FD00FE00FF00000101010201030186
:105A20000401050106010701080109010A010B0132
:105A30000C010D010E010F011001110112011301E2
:105A40001401150116011701180119011A011B0192
:105A50001C011D011E011F01200121012201230142
:105A60002401250126012701280129012A012B01F2
:105A70002C012D012E012F013001310132013301A2
:105A80003401350136013701380139013A013B0152
:105A90003C013D013E013F01400141014201430102
:105AA0004401450146014701480149014A014B01B2
:105AB0004C014D014E014F01500151015201530162
:105AC0005401550156015701580159015A015B0112
:105AD0005C015D015E015F016001610162016301C2
