:020000040800F2
:1000000040050020D5000008070A0008030A000880
:1000100000000000000000000000000000000000E0
:10002000000000000000000000000000830A00083B
:100030000000000000000000810A0008850A000896
:10004000E7000008E7000008E7000008E7000008F4
:10005000E7000008E7000008E7000008E7000008E4
:1000600000000000E7000008E700000800000000B2
:10007000E7000008E7000008E700000800000000B3
:10008000E7000008E700000800000000E7000008A3
:1000900000000000E7000008E7000008E700000893
:1000A00000000000E7000008E7000008E700000883
:1000B000E700000800000000E70000080000000062
:1000C0000348854600F03CF80048004765010008F9
:1000D000400500200448804704480047FEE7FEE74B
:1000E000FEE7FEE7FEE7FEE78D0A0008C100000814
:1000F00030B50B46014600202022012409E00D46C0
:10010000D5409D4205D31D469540491B2546954047
:1001100040191546521E002DF1DC30BDD2B201E06F
:100120000270401C491EFBD270470022F6E710B552
:1001300013460A4604461946FFF7F0FF204610BD55
:10014000064C0125064E05E0E36807CC2B430C3C2A
:1001500098471034B442F7D3FFF7B6FF980E000863
:10016000B80E000870B50125ED06002406E0A000D9
:100170002858A100064A5050601CC4B2302CF6DB4F
:10018000012040070349886000F0F4FD002070BDA5
:100190000000002000ED00E000B587B0142102A8A7
:1001A000FFF7C3FF00BF0E48406B012108430C4915
:1001B00048630846406BC007C00F019000BF00BFF6
:1001C00008480390012004900220059040200290EE
:1001D00002A90520000700F049F907B000BD0000A2
:1001E000001002400000221010B586B0044600BF87
:1001F00000BF1448406B0121084312494863084678
:10020000406BC007C00F009000BF00BF00BF600080
:100210000D49085A0190012002900020039002200D
:100220000490A100094A505801A900F01FF962008A
:10023000054B995AA200054B9858012200F001FA8B
:1002400006B010BD00100240900E0008C40000204F
:1002500010B504466200044B995AA200034B98580B
:10026000012200F0EEF910BD900E0008C40000203D
:1002700010B504466200044B995AA200034B9858EB
:10028000002200F0DEF910BD900E0008C40000202E
:1002900010B504466200044B995AA200034B9858CB
:1002A00000F0C7F910BD0000900E0008C400002047
:1002B00010B504466200044B995AA200034B9858AB
:1002C00000F0AEF910BD0000920E0008C80000203A
:1002D00030B587B004460D4600BF002C0DD100BFDD
:1002E0001B48406B01210843194948630846406B8D
:1002F000C007C00F019000BF00BF00BF60001549DC
:10030000085A02900020049001200590002D07D18A
:1003100000200390A100104A505802A900F0A6F84E
:10032000012D13D10D480390A1000B4A505802A98A
:1003300000F09CF80A49095D48B200220F2100F044
:1003400005FA0749095D48B200F0F4F907B030BD7D
:1003500000100240920E0008C8000020000021108A
:10036000940E000800B587B000BF0020019031480E
:10037000C06B0121490408432E49C8630846C06B7D
:10038000012149040840019000BF00BF2A482B49C1
:100390000860E12040024860002128488160C16077
:1003A000016181610C2141610021C161002023496B
:1003B0000862084600F060FA00BF1E48406B012149
:1003C00008431C4948630846406BC007C00F0190B2
:1003D00000BF00BF00BF0846406B0121084315491C
:1003E00048630846406BC007C00F019000BF00BFC4
:1003F0000420029002200390012004900320059025
:100400000420069002A90520000700F02FF808201C
:1004100002900420069002A90520000700F026F8AB
:10042000012200211C2000F091F91C2000F082F92B
:1004300007B000BD0010024000440040F000002062
:1004400070B5044600F004F906462546681C0028ED
:1004500002D0054800682D1800BF00F0F9F8801B95
:10046000A842FAD370BD0000D400002070B5034646
:100470000022CBE0012696400C683440002C71D05D
:100480004D68022D02D04D68122D15D1D508AE0051
:100490001D462035A8595507EE0E0F25B5400646D6
:1004A000AE4330465607F60E0D69B5402843D508D1
:1004B000AD001E4620367051186856000325B54021
:1004C0000646AE4330460D79AD07AD0F5600B54038
:1004D000284318604D68012D08D04D68022D05D0C5
:1004E0004D68112D02D04D68122D18D19868560014
:1004F0000325B5400646AE4330465600CD68B540AC
:10050000284398605868012595400646AE4330461A
:1005100010264D6835402D09954028435860D8680D
:1005200056000325B5400646AE43304656008D685A
:10053000B5402843D860012636074D683540B5429E
:1005400063D1354D9608B600A8599507EE0E0F25D4
:10055000B5400646AE43304605252D07AB4202D1D5
:10056000002506E051E02D4DAB4201D1012500E010
:1005700002259607F60EB5402843274D9608B6008B
:10058000A851254D203528680546A5432846012653
:1005900036044D683540B54202D10546254328460C
:1005A0001D4D2035286068680546A543284601266C
:1005B00076044D683540B54202D1054625432846AC
:1005C000154D20356860144D603D28680546A543EB
:1005D0002846012636054D683540B54202D105460C
:1005E000254328460C4D603D286068680546A543B4
:1005F0002846012676054D683540B54202D10546AC
:1006000025432846044D603D6860521C0D68D54066
:10061000002D00D02EE770BD60180240000400508D
:10062000024613690B40002B01D0012000E000209E
:10063000704742690A40002A01D0816200E081616E
:100640007047002A01D0816100E08162704700009C
:100650000148006870470000CC0000200348006893
:10066000034909684018014908607047CC00002020
:10067000D400002010B50024032000F009F8002861
:1006800001D0012401E000F033F8204610BD000045
:10069000F8B5044600251348006800281ED011480C
:1006A00001687D20C000FFF723FD074639460E484C
:1006B0000068FFF71DFD064600F0B8F800280BD1D2
:1006C000042C07D200222146401E00F03FF80748C4
:1006D000046004E0012502E0012500E00125284630
:1006E000F8BD0000D4000020C0000020D000002091
:1006F00008B500BF0E480068012108430C49086096
:1007000008460068C007C00F009000BF00BF00BFD0
:1007100007484038C06B8905084305494039C8631C
:100720000846C06B09040840009000BF00BF08BD28
:100730004010024000BFC206D20E01219140024A81
:10074000116000BF7047000000E100E070B5044692
:100750000D4616462946204600F056F970BD0000A9
:1007600001468A68086810434A681043CA68104303
:100770000A691043044A1268044B1A401043024AA3
:10078000106000207047000000700040FFC1F0FFC3
:10079000002807D0114A126801239B031A430F4B0C
:1007A0001A6006E00D4A126801239B039A430B4B23
:1007B0001A600B4A126904231A43094B1A61012972
:1007C00001D130BF02E040BF20BF20BF044A126900
:1007D00004239A43024B1A617047000000700040E6
:1007E00000ED00E00148006870470000C0000020F4
:1007F00000B5FFF7F7FF0649896807221203114089
:10080000090B8900034A515CC906C90EC84000BDE6
:1008100000100240500E00080348006902210843FE
:10082000014908617047000000E000E070B504462F
:100830002546681E0949884201D901200CE0681E3E
:10084000074948610321081F00F0DEF80020044931
:10085000886107200861002070BD0000FFFFFF00D5
:1008600000E000E003480069022188430149086173
:100870007047000000E000E010B50446002C01D1F4
:10088000012010BDA069002800D000E000BF452075
:10089000005D002805D1002144200155204600F0CC
:1008A00030F82421452001552068C0680121490302
:1008B00088432168C860204600F01CF9206A00289F
:1008C00002D0204600F0FAF8206800690121C90230
:1008D00088432168086120684069082188432168AD
:1008E00048612068C0680121490308432168C86045
:1008F0000020A064202145200155462001550020FC
:10090000BFE77047FFB583B004460D461746002089
:1009100001904520005D202871D1002D01D0002FCD
:1009200002D1012007B0F0BD01210903A06888426F
:1009300008D12069002805D1E807C00F002801D0A0
:100940000120EFE700BF4420005D012801D1022013
:10095000E8E701214420015500BF0020A0642121C7
:1009600045200155FFF774FE019027866786012117
:100970000903A068884205D12069002802D1002619
:10098000029502E02E46002002901EE0069800909C
:10099000002280212046019B00F07EF9002801D032
:1009A0000320BFE7002E09D102980088C005C00DC2
:1009B000216848600298801C029003E0307821682A
:1009C0004860761C608E401E6086608E0028DDD1F7
:1009D00006980090002240212046019B00F05CF91F
:1009E000002801D003209DE720214520015500BFAC
:1009F00000214420015500BF002093E7FFE70220BB
:100A000090E700BFFEE7704710B5002819DA1A4AD0
:100A100003071B0F083B9B089B00D2588307DC0E83
:100A2000FF23A3409A438B071B0E8407E40EA340C9
:100A30001A43114B0407240F083CA408A4001A51C0
:100A400018E00E4A03231B02D21883089B00D258D9
:100A50008307DC0EFF23A3409A438B071B0E8407FA
:100A6000E40EA3401A43054B032424021B198408F7
:100A7000A4001A5110BD00001CED00E000E100E0F0
:100A80007047704710B5FFF7E9FD10BD0848406892
:100A9000000C000401214903401806498988C90453
:100AA000C90C084302494860C8030349886070477D
:100AB00000100240000FFF1F00ED00E04022016A1D
:100AC0001140002915D00168496992019143426A99
:100AD00011430268516101221203416A914208D117
:100AE00001684969032252039143826A11430268F3
:100AF00051617047FEB50446206800690121490331
:100B00008843E1680843216808612169A0680843B7
:100B10006169084302902068C0685E4908400299F4
:100B200008432168C860E06902902068406901219B
:100B3000C9028843029908432168486120684069D6
:100B4000032109028843A169084321684861012102
:100B5000C902E06988424ED1FFF74AFE0546626845
:100B6000510019226A431046FFF7C2FA0646642173
:100B7000FFF7BEFA07016268510019226A43104666
:100B8000FFF7B6FA06466268510019226A4310461A
:100B9000FFF7AEFA64210090FFF7AAFA64214843F8
:100BA000301AC00032300190FFF7A2FAF821084055
:100BB00040003F186268510019226A431046FFF74F
:100BC00097FA06466268510019226A431046FFF7F9
:100BD0008FFA64210090FFF78BFA64214843301AA2
:100BE000C00032300190FFF783FA4007400F3818F9
:100BF000216888604CE0FFF7FBFD054662689100C4
:100C000019226A431046FFF773FA06466421FFF77C
:100C10006FFA07016268910019226A431046FFF7D4
:100C200067FA06466268910019226A431046FFF788
:100C30005FFA64210090FFF75BFA64214843301AA1
:100C4000000132300190FFF753FAF02108403F18BD
:100C50006268910019226A431046FFF749FA064676
:100C60006268910019226A431046FFF741FA642135
:100C70000090FFF73DFA64214843301A00013230FA
:100C80000190FFF735FA0007000F381821688860D7
:100C9000FEBD0000F3E9FFFFFFB581B004460D463D
:100CA00017460A9E24E0701C002821D0002E05D093
:100CB000FFF7CEFC0499401AB04219D92068C068E9
:100CC000FF21A13188432168C8602068406940083D
:100CD00040002168486120214520015546200155EA
:100CE00000BF00214420015500BF032005B0F0BD26
:100CF000206800682840A84201D1012000E00020BF
:100D0000B842D0D00020F1E710B5024A024900F005
:100D100014F810BD590D0008D800002002E008C8E2
:100D2000121F08C1002AFAD170477047002001E065
:100D300001C1121F002AFBD17047F8B516460F46B5
:100D40000446002503E03946B047641C6D1C20783A
:100D50000028F8D12846F8BD13B50C467D23DB00EA
:100D6000012269460248FFF7CDFD00981CBD000036
:100D7000F0000020FFF77EFC00210846FFF7A8FAEC
:100D80000020FFF731FAFFF707FAFFF7EBFA002030
:100D9000FFF76EFA00BF0020FFF78AFA0028FAD1A9
:100DA000FFF756FA11A0FFF7AFFFFFF75BFD012039
:100DB00040021249086000200861886048600120F4
:100DC0008004C8600846FFF7CBFC02214803FFF708
:100DD000DFFCFFF721FD0AA0FFF796FF05E00020EA
:100DE000FFF756FAC820FFF72BFBF8E753544F5094
:100DF000204D4F4445210A0A00000000DC0000207D
:100E000057414B455550204F4B210A0A0000000026
:100E100000000000000000000000000000000000D2
:100E200000000000000000000000000000000000C2
:100E300001000000020000000300000004000000A8
:100E40000600000007000000080000000900000084
:100E50000000000000000000000000000000000092
:100E60000100000002000000030000000400000078
:100E700000093D0000127A000024F4004086510170
:100E800000366E0100093D0000093D0000093D00EB
:100E90000008001007000000B80E00080000002045
:100EA000DC0000001C0D0008940F0008DC0000208E
:100EB000640400002C0D0008000000000000000089
:100EC0000000000000000000000000000000000022
:100ED0000000000000000000000000000000000012
:100EE0000000000000000000000000000000000002
:100EF00000000000000000000000000000000000F2
:100F000000000000000000000000000000000000E1
:100F100000000000000000000000000000000000D1
:100F200000000000000000000000000000000000C1
:100F300000000000000000000000000000000000B1
:100F400000000000000000000000000000000000A1
:100F50000000000000000000000000000000000091
:100F60000000000000000000000000000000000081
:100F7000000000000000000000127A000000005095
:100F8000000000500000000004000000010000000C
:040F9000000000005D
:04000005080000C12E
:00000001FF
