:020000040800F2
:10000000D0040020D5000008ED0E0008E90E00081D
:1000100000000000000000000000000000000000E0
:10002000000000000000000000000000890F000830
:100030000000000000000000690F00088B0F00089E
:10004000E7000008E7000008E7000008E7000008F4
:10005000E7000008E7000008E7000008E7000008E4
:1000600000000000E7000008E700000800000000B2
:10007000E7000008E7000008E700000800000000B3
:10008000E7000008E700000800000000E7000008A3
:1000900000000000E7000008E7000008E700000893
:1000A00000000000E7000008E7000008E700000883
:1000B000E700000800000000E70000080000000062
:1000C0000348854600F04EF80048004789010008C3
:1000D000D00400200448804704480047FEE7FEE7BC
:1000E000FEE7FEE7FEE7FEE7950F0008C100000807
:1000F00030B50B46014600202022012409E00D46C0
:10010000D5409D4205D31D469540491B2546954047
:1001100040191546521E002DF1DC30BD03460B433D
:100120009B0703D009E008C9121F08C0042AFAD2AD
:1001300003E00B780370401C491C521EF9D2704733
:10014000D2B201E00270401C491EFBD2704700226F
:10015000F6E710B513460A4604461946FFF7F0FFC6
:10016000204610BD064C0125064E05E0E36807CC8D
:100170002B430C3C98471034B442F7D3FFF7A4FF4D
:10018000AC100008CC10000870B50125ED06002465
:1001900006E0A0002858A100064A5050601CC4B2D6
:1001A000302CF6DB012040070349886000F027FF70
:1001B000002070BD0000002000ED00E000BFFEE761
:1001C00000B58FB02C2104A8FFF7C1FF00200090DC
:1001D0000190029003900F200490FF2001300990BD
:1001E0001248008AC004C00C0121C90308430B90C7
:1001F00000200A9005900C90079001200D9004A813
:1002000000F06CFB002801D0FFF7D8FF072000901A
:1002100000200190029003900021684600F03CF914
:10022000002801D0FFF7CAFF0FB000BD000FFF1F6D
:1002300070B503460022CBE0012696400C6834409E
:10024000002C71D04D68022D02D04D68122D15D1B1
:10025000D508AE001D462035A8595507EE0E0F25CE
:10026000B5400646AE4330465607F60E0D69B5401A
:100270002843D508AD001E46203670511868560038
:100280000325B5400646AE4330460D79AD07AD0FA8
:100290005600B540284318604D68012D08D04D68C0
:1002A000022D05D04D68112D02D04D68122D18D1A8
:1002B000986856000325B5400646AE4330465600C2
:1002C000CD68B5402843986058680125954006469A
:1002D000AE43304610264D6835402D0995402843E1
:1002E0005860D86856000325B5400646AE433046F0
:1002F00056008D68B5402843D860012636074D6802
:100300003540B54263D1354D9608B600A8599507DA
:10031000EE0E0F25B5400646AE43304605252D07A7
:10032000AB4202D1002506E051E02D4DAB4201D198
:10033000012500E002259607F60EB5402843274D1B
:100340009608B600A851254D203528680546A543D6
:100350002846012636044D683540B54202D105468F
:10036000254328461D4D2035286068680546A5436D
:100370002846012676044D683540B54202D105462F
:1003800025432846154D20356860144D603D28688A
:100390000546A5432846012636054D683540B54239
:1003A00002D10546254328460C4D603D286068680B
:1003B0000546A5432846012676054D683540B542D9
:1003C00002D1054625432846044D603D6860521C15
:1003D0000D68D540002D00D02EE770BD601802409A
:1003E000000400500148006870470000C40000206D
:1003F00003480068034909684018014908607047CC
:10040000C4000020CC00002010B50024032000F020
:1004100009F8002801D0012401E000F033F820465B
:1004200010BD0000F8B504460025134800680028F8
:100430001ED0114801687D20C000FFF759FE074615
:1004400039460E480068FFF753FE064600F030FDBF
:1004500000280BD1042C07D200222146401E00F0B8
:1004600012F80748046004E0012502E0012500E0DD
:1004700001252846F8BD0000CC000020C000002067
:10048000C8000020704770B504460D461646294640
:10049000204600F02DFD70BD70B504460D46002CC1
:1004A00001D1012070BD6B480068C007C00FA84291
:1004B00018D2684800684008400028436549086031
:1004C000FFF790FF064607E0FFF78CFF801B6249AD
:1004D000884201D90320E5E75E480068C007C00FE5
:1004E000A842F1D1022120680840022815D1042138
:1004F00020680840042807D158488068072109036C
:100500008843401855498860544880680F21090283
:100510008843A1680843514988602078C007C00F0C
:10052000002854D06068012808D14C480068012197
:100530004904084000282ED10120B3E76068002854
:1005400008D146480068012189020840002822D1CC
:100550000120A7E76068022808D14048006801210F
:1005600049060840002816D101209BE7606804284E
:1005700008D13A484030C0690221084000280AD119
:1005800001208FE735484030006A022108400028EA
:1005900001D1012086E731488068C008C000616849
:1005A00008432E498860FFF71DFF064607E0FFF766
:1005B00019FF801B2849884201D9032072E7274888
:1005C0008068382108406168C9008842EFD121481D
:1005D0000068C007C00FA84218D91E48006840082C
:1005E000400028431B490860FFF7FCFE064607E071
:1005F000FFF7F8FE801B1849884201D9032051E714
:1006000014480068C007C00FA842F1D10421206837
:100610000840042808D1114880680721090388434D
:10062000E16808430D49886000F020F80B498968AB
:100630000F2212021140090A8900094A515CC906B9
:10064000C90EC8400749086007480068FFF7EAFE7E
:1006500028E700000020024088130000001002403C
:1006600018100008C0000020C8000020F0B585B0B8
:10067000142230496846FFF751FD2F488068382121
:100680000840002817D12C48006809020840C10A18
:1006900001268E4028484068072149030840450B41
:1006A000042D00D90025A9006A4650583146FFF7AD
:1006B0001FFD04463BE02048806838210840082898
:1006C00001D11E4C33E01C488068382108401028B6
:1006D0001BD11948C068C707FF0F002F03D0012F97
:1006E0000FD1174C10E01448406807214903084017
:1006F000450B042D00D90025A80069460858440080
:1007000002E00498440000BF11E00B4880683821E3
:100710000840202801D1840209E007488068382178
:100720000840182802D10124E40300E000242046F8
:1007300005B0F0BD981000080010024000366E01B0
:10074000006CDC0270B586B004460D4616460220E9
:1007500002900320049000200390230000F032FC5C
:100760000796051D354C657E950000BF5948406BC6
:1007700001210843574948630846406BC007C00F32
:10078000009000BF00BF022001900F20059001A93A
:1007900005200007FFF74CFD8FE000BF4D48406B80
:1007A000012108434B4948630846406BC007C00F0E
:1007B000009000BF00BF202001900F20059001A9EC
:1007C00005200007FFF734FD77E000BF4148406B8C
:1007D000012108433F4948630846406BC007C00FEA
:1007E000009000BF00BF481501900520059001A9A9
:1007F0000007FFF71DFD60E000BF3648406B012198
:100800000843344948630846406BC007C00F009056
:1008100000BF00BF0120400301900F20059001A9F7
:1008200005200007FFF704FD47E000BF2948406BA3
:1008300001210843274948630846406BC007C00FA1
:10084000009000BF00BF0120800301900F200590A1
:1008500001A905200007FFF7EBFC2EE000BF1D48B3
:10086000406B202108431B4948630846406B202108
:100870000840009000BF00BF0420019006200590B2
:1008800001A91548FFF7D4FC17E000BF00BF1148CD
:10089000406B012108430F4948630846406BC0077D
:1008A000C00F009000BF00BF881501900520059083
:1008B00001A90007FFF7BCFC00BF00BF0548806826
:1008C0007721090688432946314308430149886056
:1008D00006B070BD0010024000140050FEB5044682
:1008E000002C01D10120FEBD2078C007C00F0028D8
:1008F0006DD0F548866838210E40C068C707FF0FE5
:10090000102E01D1012F01D0082E0BD1EE48006826
:1009100001214904084000286CD06068002869D192
:100920000120E0E7606800280DD0A068002808D00A
:10093000E54800690C218843A1680843E249086141
:1009400001E00120CFE700BF01210904606888426F
:1009500005D1DD4800680843DB49086021E0052136
:100960000904606888420ED1D748006801218904D3
:100970000843D54908600846006801210904084376
:10098000D14908600DE0D04800680121090488437E
:10099000CD49086008460068012189048843CA4996
:1009A000086000BF6068002812D0FFF71BFD0546F5
:1009B00006E0FFF717FD401BC82801D9032092E786
:1009C000C14800680121490408400028F1D011E025
:1009D000FFF708FD054606E0FFF704FD401BC828A9
:1009E00001D903207FE7B848006801214904084085
:1009F0000028F1D1022120680840022874D1B248B1
:100A00008068382108400646AF48C068C707FF0F16
:100A1000102E01D1002F01D0002E48D1AA48006825
:100A2000012189020840002804D06069002801D112
:100A3000012058E7A4484068000C0004E16908431D
:100A4000A1494860FFF7CEFC054606E0FFF7CAFC67
:100A5000401B022801D9032045E79B48006801217B
:100A6000890208400028F1D0002E18D1964800686D
:100A70000721C9028843A169084393490860FFF729
:100A8000F5FD914989680F2212021140090A890077
:100A90008E4A515CC906C90EC8408D4908608D4810
:100AA0000068FFF7BFFC002848D001201BE7606901
:100AB00000282AD0844800680721C9028843A16918
:100AC00008438149086008460068891508437E4943
:100AD0000860FFF787FC054607E0FFF783FC401B33
:100AE000022802D90320FEE628E0774800680121A9
:100AF000890208400028F0D073484068000C0004C8
:100B0000E16908437049486018E06F480068FF21B8
:100B1000013188436C490860FFF764FC054606E034
:100B2000FFF760FC401B022801D90320DBE6664882
:100B300000680121890208400028F1D108212068BD
:100B40000840082849D160488068382108401828A2
:100B50000BD15D484030006A0221084000283CD09B
:100B6000206A002839D10120BDE6206A00281AD069
:100B700055484030006A012108435349403108621A
:100B8000FFF730FC054606E0FFF72CFC401B02286F
:100B900001D90320A7E64C484030006A02210840F2
:100BA0000028F1D019E048484030006A4008400071
:100BB000454940310862FFF715FC054606E0FFF79E
:100BC00011FC401B022801D903208CE63E4840302E
:100BD000006A022108400028F1D104212068084061
:100BE00004287BD1002001903748806838210840D4
:100BF00020280BD134484030C06902210840002829
:100C00006DD0E06800286AD101206CE62E48C06BE8
:100C1000010F01208843002810D000BF2A48C06B74
:100C20000121090708432849C8630846C06B090425
:100C30000840009000BF00BF0120019026480068D6
:100C4000FF2101310840002816D1234800680843DD
:100C500021490860FFF7C6FB054606E0FFF7C2FB27
:100C6000401B022801D903203DE61B480068FF21F4
:100C7000013108400028F1D0E068002817D0032196
:100C8000090420690840002808D10F4800698843FA
:100C90000121490440180C49086108E00A4800692C
:100CA000032109048843216908430749086100BFFB
:100CB000E068012814D104484030C069012108438C
:100CC00001494031C86127E00010024018100008B7
:100CD000C0000020C80000200070004052E050E03A
:100CE000E06805280CD16F48C069042108436D49AC
:100CF000C8610846C069012108436A49C8610BE020
:100D00006848C069400840006649C8610846C06933
:100D1000042188436349C86100BFE068002812D0FD
:100D2000FFF760FB054607E0FFF75CFB401B5E49F1
:100D3000884201D90320D6E55A48C06902210840FB
:100D40000028F1D011E0FFF74DFB054607E0FFF763
:100D500049FB401B5449884201D90320C3E551484F
:100D6000C069022108400028F1D10198012808D16A
:100D70004C484038C06B0121090788434949403934
:100D8000C86300BF606A002858D046484038806871
:100D900038210840102875D0606A02284FD1414898
:100DA000403800680121090688433E4940390860FF
:100DB000FFF718FB054606E0FFF714FB401B02286F
:100DC00001D903208FE537484038006801214906E2
:100DD00008400028F0D1A06A012800D100BFA06A15
:100DE000002806D100F0C2F83049884201D2012023
:100DF00079E52C484038C06840084000A16A0843A3
:100E000028494039C860084600680121090608439E
:100E1000244940390860FFF7E5FA054606E0FFF788
:100E2000E1FA401B022801D903205CE51D48403847
:100E300000680121490608400028F0D030E0194838
:100E40004038006801210906884316494039086086
:100E50000846C06840084000C860FFF7C3FA05466E
:100E600006E0FFF7BFFA401B022801D903203AE54C
:100E70000C48403800680121490608400028F0D19C
:100E80000EE0FFE7606A012800D12CE505484038F4
:100E9000C768F907C90FA06A814201D0012022E585
:100EA000002020E540100240881300000024F400D8
:100EB00070B504462546681E0949884201D90120BB
:100EC0000CE0681E074948610321081F00F010F874
:100ED00000200449886107200861002070BD0000DF
:100EE000FFFFFF0000E000E000BFFEE770470000EA
:100EF00010B5002819DA1A4A03071B0F083B9B0894
:100F00009B00D2588307DC0EFF23A3409A438B0734
:100F10001B0E8407E40EA3401A43114B0407240F51
:100F2000083CA408A4001A5118E00E4A03231B022F
:100F3000D21883089B00D2588307DC0EFF23A340FE
:100F40009A438B071B0E8407E40EA3401A43054BFC
:100F5000032424021B198408A4001A5110BD0000A8
:100F60001CED00E000E100E070470000044840682C
:100F7000072252031040410B8800024A1058704764
:100F80000010024078100008704710B5FFF730FAE3
:100F900010BD000008484068000C0004012149030E
:100FA000401806498988C904C90C084302494860A9
:100FB000C80303498860704700100240000FFF1FFC
:100FC00000ED00E030B47446641E2578641CAB422A
:100FD00004D3635D5B00E31830BC18471D46F8E797
:100FE00002E008C8121F08C1002AFAD170477047F2
:100FF000002001E001C1121F002AFBD17047FFF75A
:1010000003FA07221207012109060020FFF79AFBC5
:10101000FFF7D6F800BFFEE7000000000000000068
:1010200000000000000000000000000000000000C0
:1010300000000000000000000100000002000000AD
:10104000030000000400000006000000070000008C
:10105000080000000900000000000000000000007F
:10106000000000000000000001000000020000007D
:10107000030000000400000000093D0000127A0097
:101080000024F4004086510100366E0100093D0045
:1010900000093D0000093D0000093D0000127A00F2
:1010A0000024F4004086510100366E01CC10000887
:1010B00000000020D0000000E00F00089C11000894
:1010C000D000002000040000F00F00080000000025
:1010D0000000000000000000000000000000000010
:1010E0000000000000000000000000000000000000
:1010F00000000000000000000000000000000000F0
:1011000000000000000000000000000000000000DF
:1011100000000000000000000000000000000000CF
:1011200000000000000000000000000000000000BF
:1011300000000000000000000000000000000000AF
:10114000000000000000000000000000000000009F
:10115000000000000000000000000000000000008F
:10116000000000000000000000000000000000007F
:10117000000000000000000000000000000000006F
:1011800000000000000000000000000000127A00D3
:0C1190000000000004000000010000004E
:04000005080000C12E
:00000001FF
